{
  "contractName": "NFT",
  "abi": [
    {
      "inputs": [
        {
          "internalType": "string",
          "name": "name_",
          "type": "string"
        },
        {
          "internalType": "string",
          "name": "symbol_",
          "type": "string"
        }
      ],
      "stateMutability": "nonpayable",
      "type": "constructor"
    },
    {
      "anonymous": false,
      "inputs": [
        {
          "indexed": true,
          "internalType": "address",
          "name": "owner",
          "type": "address"
        },
        {
          "indexed": true,
          "internalType": "address",
          "name": "approved",
          "type": "address"
        },
        {
          "indexed": true,
          "internalType": "uint256",
          "name": "tokenId",
          "type": "uint256"
        }
      ],
      "name": "Approval",
      "type": "event"
    },
    {
      "anonymous": false,
      "inputs": [
        {
          "indexed": true,
          "internalType": "address",
          "name": "owner",
          "type": "address"
        },
        {
          "indexed": true,
          "internalType": "address",
          "name": "operator",
          "type": "address"
        },
        {
          "indexed": false,
          "internalType": "bool",
          "name": "approved",
          "type": "bool"
        }
      ],
      "name": "ApprovalForAll",
      "type": "event"
    },
    {
      "anonymous": false,
      "inputs": [
        {
          "indexed": true,
          "internalType": "address",
          "name": "from",
          "type": "address"
        },
        {
          "indexed": true,
          "internalType": "address",
          "name": "to",
          "type": "address"
        },
        {
          "indexed": true,
          "internalType": "uint256",
          "name": "tokenId",
          "type": "uint256"
        }
      ],
      "name": "Transfer",
      "type": "event"
    },
    {
      "inputs": [
        {
          "internalType": "address",
          "name": "to",
          "type": "address"
        },
        {
          "internalType": "uint256",
          "name": "tokenId",
          "type": "uint256"
        }
      ],
      "name": "approve",
      "outputs": [],
      "stateMutability": "nonpayable",
      "type": "function"
    },
    {
      "inputs": [
        {
          "internalType": "address",
          "name": "owner",
          "type": "address"
        }
      ],
      "name": "balanceOf",
      "outputs": [
        {
          "internalType": "uint256",
          "name": "",
          "type": "uint256"
        }
      ],
      "stateMutability": "view",
      "type": "function",
      "constant": true
    },
    {
      "inputs": [
        {
          "internalType": "uint256",
          "name": "tokenId",
          "type": "uint256"
        }
      ],
      "name": "getApproved",
      "outputs": [
        {
          "internalType": "address",
          "name": "",
          "type": "address"
        }
      ],
      "stateMutability": "view",
      "type": "function",
      "constant": true
    },
    {
      "inputs": [
        {
          "internalType": "address",
          "name": "owner",
          "type": "address"
        },
        {
          "internalType": "address",
          "name": "operator",
          "type": "address"
        }
      ],
      "name": "isApprovedForAll",
      "outputs": [
        {
          "internalType": "bool",
          "name": "",
          "type": "bool"
        }
      ],
      "stateMutability": "view",
      "type": "function",
      "constant": true
    },
    {
      "inputs": [],
      "name": "name",
      "outputs": [
        {
          "internalType": "string",
          "name": "",
          "type": "string"
        }
      ],
      "stateMutability": "view",
      "type": "function",
      "constant": true
    },
    {
      "inputs": [],
      "name": "owner",
      "outputs": [
        {
          "internalType": "address",
          "name": "",
          "type": "address"
        }
      ],
      "stateMutability": "view",
      "type": "function",
      "constant": true
    },
    {
      "inputs": [
        {
          "internalType": "uint256",
          "name": "tokenId",
          "type": "uint256"
        }
      ],
      "name": "ownerOf",
      "outputs": [
        {
          "internalType": "address",
          "name": "",
          "type": "address"
        }
      ],
      "stateMutability": "view",
      "type": "function",
      "constant": true
    },
    {
      "inputs": [
        {
          "internalType": "address",
          "name": "from",
          "type": "address"
        },
        {
          "internalType": "address",
          "name": "to",
          "type": "address"
        },
        {
          "internalType": "uint256",
          "name": "tokenId",
          "type": "uint256"
        }
      ],
      "name": "safeTransferFrom",
      "outputs": [],
      "stateMutability": "nonpayable",
      "type": "function"
    },
    {
      "inputs": [
        {
          "internalType": "address",
          "name": "from",
          "type": "address"
        },
        {
          "internalType": "address",
          "name": "to",
          "type": "address"
        },
        {
          "internalType": "uint256",
          "name": "tokenId",
          "type": "uint256"
        },
        {
          "internalType": "bytes",
          "name": "data",
          "type": "bytes"
        }
      ],
      "name": "safeTransferFrom",
      "outputs": [],
      "stateMutability": "nonpayable",
      "type": "function"
    },
    {
      "inputs": [
        {
          "internalType": "address",
          "name": "operator",
          "type": "address"
        },
        {
          "internalType": "bool",
          "name": "approved",
          "type": "bool"
        }
      ],
      "name": "setApprovalForAll",
      "outputs": [],
      "stateMutability": "nonpayable",
      "type": "function"
    },
    {
      "inputs": [
        {
          "internalType": "bytes4",
          "name": "interfaceId",
          "type": "bytes4"
        }
      ],
      "name": "supportsInterface",
      "outputs": [
        {
          "internalType": "bool",
          "name": "",
          "type": "bool"
        }
      ],
      "stateMutability": "view",
      "type": "function",
      "constant": true
    },
    {
      "inputs": [],
      "name": "symbol",
      "outputs": [
        {
          "internalType": "string",
          "name": "",
          "type": "string"
        }
      ],
      "stateMutability": "view",
      "type": "function",
      "constant": true
    },
    {
      "inputs": [],
      "name": "tokenCounter",
      "outputs": [
        {
          "internalType": "uint256",
          "name": "",
          "type": "uint256"
        }
      ],
      "stateMutability": "view",
      "type": "function",
      "constant": true
    },
    {
      "inputs": [
        {
          "internalType": "uint256",
          "name": "tokenId",
          "type": "uint256"
        }
      ],
      "name": "tokenURI",
      "outputs": [
        {
          "internalType": "string",
          "name": "",
          "type": "string"
        }
      ],
      "stateMutability": "view",
      "type": "function",
      "constant": true
    },
    {
      "inputs": [
        {
          "internalType": "address",
          "name": "from",
          "type": "address"
        },
        {
          "internalType": "address",
          "name": "to",
          "type": "address"
        },
        {
          "internalType": "uint256",
          "name": "tokenId",
          "type": "uint256"
        }
      ],
      "name": "transferFrom",
      "outputs": [],
      "stateMutability": "nonpayable",
      "type": "function"
    },
    {
      "inputs": [
        {
          "internalType": "uint256",
          "name": "_amount",
          "type": "uint256"
        }
      ],
      "name": "mint",
      "outputs": [],
      "stateMutability": "nonpayable",
      "type": "function"
    }
  ],
  "bytecode": "0x608060405260016007553480156200001657600080fd5b5060405162001a4238038062001a42833981016040819052620000399162000212565b8151829082906200005290600090602085019062000086565b5080516200006890600190602084019062000086565b505060068054600160a060020a0319163317905550620002d2915050565b82805462000094906200027c565b90600052602060002090601f016020900481019282620000b8576000855562000103565b82601f10620000d357805160ff191683800117855562000103565b8280016001018555821562000103579182015b8281111562000103578251825591602001919060010190620000e6565b506200011192915062000115565b5090565b5b8082111562000111576000815560010162000116565b7f4e487b7100000000000000000000000000000000000000000000000000000000600052604160045260246000fd5b600082601f8301126200016d57600080fd5b81516001604060020a03808211156200018a576200018a6200012c565b604051601f8301601f19908116603f01168101908282118183101715620001b557620001b56200012c565b81604052838152602092508683858801011115620001d257600080fd5b600091505b83821015620001f65785820183015181830184015290820190620001d7565b83821115620002085760008385830101525b9695505050505050565b600080604083850312156200022657600080fd5b82516001604060020a03808211156200023e57600080fd5b6200024c868387016200015b565b935060208501519150808211156200026357600080fd5b5062000272858286016200015b565b9150509250929050565b6002810460018216806200029157607f821691505b60208210811415620002cc577f4e487b7100000000000000000000000000000000000000000000000000000000600052602260045260246000fd5b50919050565b61176080620002e26000396000f3fe608060405234801561001057600080fd5b506004361061011d576000357c0100000000000000000000000000000000000000000000000000000000900480638da5cb5b116100b4578063b88d4fde11610083578063b88d4fde1461023a578063c87b56dd1461024d578063d082e38114610260578063e985e9c51461026957600080fd5b80638da5cb5b146101f957806395d89b411461020c578063a0712d6814610214578063a22cb4651461022757600080fd5b806323b872dd116100f057806323b872dd1461019f57806342842e0e146101b25780636352211e146101c557806370a08231146101d857600080fd5b806301ffc9a71461012257806306fdde031461014a578063081812fc1461015f578063095ea7b31461018a575b600080fd5b61013561013036600461131d565b6102a5565b60405190151581526020015b60405180910390f35b610152610381565b6040516101419190611392565b61017261016d3660046113a5565b610413565b604051600160a060020a039091168152602001610141565b61019d6101983660046113da565b61043a565b005b61019d6101ad366004611404565b610577565b61019d6101c0366004611404565b610601565b6101726101d33660046113a5565b61061c565b6101eb6101e6366004611440565b610684565b604051908152602001610141565b60065461017290600160a060020a031681565b610152610721565b61019d6102223660046113a5565b610730565b61019d61023536600461145b565b610773565b61019d6102483660046114c6565b61077e565b61015261025b3660046113a5565b61080f565b6101eb60075481565b6101356102773660046115a2565b600160a060020a03918216600090815260056020908152604080832093909416825291909152205460ff1690565b60007bffffffffffffffffffffffffffffffffffffffffffffffffffffffff1982167f80ac58cd00000000000000000000000000000000000000000000000000000000148061033257507bffffffffffffffffffffffffffffffffffffffffffffffffffffffff1982167f5b5e139f00000000000000000000000000000000000000000000000000000000145b8061037b57507f01ffc9a7000000000000000000000000000000000000000000000000000000007bffffffffffffffffffffffffffffffffffffffffffffffffffffffff198316145b92915050565b606060008054610390906115d5565b80601f01602080910402602001604051908101604052809291908181526020018280546103bc906115d5565b80156104095780601f106103de57610100808354040283529160200191610409565b820191906000526020600020905b8154815290600101906020018083116103ec57829003601f168201915b5050505050905090565b600061041e82610883565b50600090815260046020526040902054600160a060020a031690565b60006104458261061c565b905080600160a060020a031683600160a060020a031614156104d75760405160e560020a62461bcd02815260206004820152602160248201527f4552433732313a20617070726f76616c20746f2063757272656e74206f776e6560448201527f720000000000000000000000000000000000000000000000000000000000000060648201526084015b60405180910390fd5b33600160a060020a03821614806104f357506104f38133610277565b6105685760405160e560020a62461bcd02815260206004820152603d60248201527f4552433732313a20617070726f76652063616c6c6572206973206e6f7420746f60448201527f6b656e206f776e6572206f7220617070726f76656420666f7220616c6c00000060648201526084016104ce565b61057283836108ed565b505050565b6105813382610968565b6105f65760405160e560020a62461bcd02815260206004820152602d60248201527f4552433732313a2063616c6c6572206973206e6f7420746f6b656e206f776e6560448201527f72206f7220617070726f7665640000000000000000000000000000000000000060648201526084016104ce565b6105728383836109e7565b6105728383836040518060200160405280600081525061077e565b600081815260026020526040812054600160a060020a03168061037b5760405160e560020a62461bcd02815260206004820152601860248201527f4552433732313a20696e76616c696420746f6b656e204944000000000000000060448201526064016104ce565b6000600160a060020a0382166107055760405160e560020a62461bcd02815260206004820152602960248201527f4552433732313a2061646472657373207a65726f206973206e6f74206120766160448201527f6c6964206f776e6572000000000000000000000000000000000000000000000060648201526084016104ce565b50600160a060020a031660009081526003602052604090205490565b606060018054610390906115d5565b60005b8181101561076f5761074733600754610c33565b6007805490600061075783611658565b9190505550808061076790611658565b915050610733565b5050565b61076f338383610de2565b6107883383610968565b6107fd5760405160e560020a62461bcd02815260206004820152602d60248201527f4552433732313a2063616c6c6572206973206e6f7420746f6b656e206f776e6560448201527f72206f7220617070726f7665640000000000000000000000000000000000000060648201526084016104ce565b61080984848484610eb4565b50505050565b606061081a82610883565b600061083160408051602081019091526000815290565b90506000815111610851576040518060200160405280600081525061087c565b8061085b84610f40565b60405160200161086c929190611673565b6040516020818303038152906040525b9392505050565b600081815260026020526040902054600160a060020a03166108ea5760405160e560020a62461bcd02815260206004820152601860248201527f4552433732313a20696e76616c696420746f6b656e204944000000000000000060448201526064016104ce565b50565b6000818152600460205260409020805473ffffffffffffffffffffffffffffffffffffffff1916600160a060020a038416908117909155819061092f8261061c565b600160a060020a03167f8c5be1e5ebec7d5bd14f71427d1e84f3dd0314c0f7b2291e5b200ac8c7c3b92560405160405180910390a45050565b6000806109748361061c565b905080600160a060020a031684600160a060020a031614806109bb5750600160a060020a0380821660009081526005602090815260408083209388168352929052205460ff165b806109df575083600160a060020a03166109d484610413565b600160a060020a0316145b949350505050565b82600160a060020a03166109fa8261061c565b600160a060020a031614610a795760405160e560020a62461bcd02815260206004820152602560248201527f4552433732313a207472616e736665722066726f6d20696e636f72726563742060448201527f6f776e657200000000000000000000000000000000000000000000000000000060648201526084016104ce565b600160a060020a038216610af75760405160e560020a62461bcd028152602060048201526024808201527f4552433732313a207472616e7366657220746f20746865207a65726f2061646460448201527f726573730000000000000000000000000000000000000000000000000000000060648201526084016104ce565b610b048383836001610fea565b82600160a060020a0316610b178261061c565b600160a060020a031614610b965760405160e560020a62461bcd02815260206004820152602560248201527f4552433732313a207472616e736665722066726f6d20696e636f72726563742060448201527f6f776e657200000000000000000000000000000000000000000000000000000060648201526084016104ce565b6000818152600460209081526040808320805473ffffffffffffffffffffffffffffffffffffffff19908116909155600160a060020a0387811680865260038552838620805460001901905590871680865283862080546001019055868652600290945282852080549092168417909155905184937fddf252ad1be2c89b69c2b068fc378daa952ba7f163c4a11628f55a4df523b3ef91a4505050565b600160a060020a038216610c8c5760405160e560020a62461bcd02815260206004820181905260248201527f4552433732313a206d696e7420746f20746865207a65726f206164647265737360448201526064016104ce565b600081815260026020526040902054600160a060020a031615610cf45760405160e560020a62461bcd02815260206004820152601c60248201527f4552433732313a20746f6b656e20616c7265616479206d696e7465640000000060448201526064016104ce565b610d02600083836001610fea565b600081815260026020526040902054600160a060020a031615610d6a5760405160e560020a62461bcd02815260206004820152601c60248201527f4552433732313a20746f6b656e20616c7265616479206d696e7465640000000060448201526064016104ce565b600160a060020a0382166000818152600360209081526040808320805460010190558483526002909152808220805473ffffffffffffffffffffffffffffffffffffffff19168417905551839291907fddf252ad1be2c89b69c2b068fc378daa952ba7f163c4a11628f55a4df523b3ef908290a45050565b81600160a060020a031683600160a060020a03161415610e475760405160e560020a62461bcd02815260206004820152601960248201527f4552433732313a20617070726f766520746f2063616c6c65720000000000000060448201526064016104ce565b600160a060020a03838116600081815260056020908152604080832094871680845294825291829020805460ff191686151590811790915591519182527f17307eab39ab6107e8899845ad3d59bd9653f200f220920489ca2b5937696c31910160405180910390a3505050565b610ebf8484846109e7565b610ecb84848484611072565b6108095760405160e560020a62461bcd02815260206004820152603260248201527f4552433732313a207472616e7366657220746f206e6f6e20455243373231526560448201527f63656976657220696d706c656d656e746572000000000000000000000000000060648201526084016104ce565b60606000610f4d83611210565b600101905060008167ffffffffffffffff811115610f6d57610f6d611497565b6040519080825280601f01601f191660200182016040528015610f97576020820181803683370190505b5090508181016020015b600019017f3031323334353637383961626364656600000000000000000000000000000000600a86061a8153600a8504945084610fdd57610fe2565b610fa1565b509392505050565b600181111561080957600160a060020a0384161561103057600160a060020a0384166000908152600360205260408120805483929061102a9084906116a2565b90915550505b600160a060020a0383161561080957600160a060020a038316600090815260036020526040812080548392906110679084906116b9565b909155505050505050565b6000600160a060020a0384163b15611205576040517f150b7a02000000000000000000000000000000000000000000000000000000008152600160a060020a0385169063150b7a02906110cf9033908990889088906004016116d1565b6020604051808303816000875af192505050801561110a575060408051601f3d908101601f191682019092526111079181019061170d565b60015b6111bd573d808015611138576040519150601f19603f3d011682016040523d82523d6000602084013e61113d565b606091505b5080516111b55760405160e560020a62461bcd02815260206004820152603260248201527f4552433732313a207472616e7366657220746f206e6f6e20455243373231526560448201527f63656976657220696d706c656d656e746572000000000000000000000000000060648201526084016104ce565b805181602001fd5b7bffffffffffffffffffffffffffffffffffffffffffffffffffffffff19167f150b7a02000000000000000000000000000000000000000000000000000000001490506109df565b506001949350505050565b6000807a184f03e93ff9f4daa797ed6e38ed64bf6a1f0100000000000000008310611259577a184f03e93ff9f4daa797ed6e38ed64bf6a1f010000000000000000830492506040015b6d04ee2d6d415b85acef81000000008310611285576d04ee2d6d415b85acef8100000000830492506020015b662386f26fc1000083106112a357662386f26fc10000830492506010015b6305f5e10083106112bb576305f5e100830492506008015b61271083106112cf57612710830492506004015b606483106112e1576064830492506002015b600a831061037b5760010192915050565b7bffffffffffffffffffffffffffffffffffffffffffffffffffffffff19811681146108ea57600080fd5b60006020828403121561132f57600080fd5b813561087c816112f2565b60005b8381101561135557818101518382015260200161133d565b838111156108095750506000910152565b6000815180845261137e81602086016020860161133a565b601f01601f19169290920160200192915050565b60208152600061087c6020830184611366565b6000602082840312156113b757600080fd5b5035919050565b8035600160a060020a03811681146113d557600080fd5b919050565b600080604083850312156113ed57600080fd5b6113f6836113be565b946020939093013593505050565b60008060006060848603121561141957600080fd5b611422846113be565b9250611430602085016113be565b9150604084013590509250925092565b60006020828403121561145257600080fd5b61087c826113be565b6000806040838503121561146e57600080fd5b611477836113be565b91506020830135801515811461148c57600080fd5b809150509250929050565b7f4e487b7100000000000000000000000000000000000000000000000000000000600052604160045260246000fd5b600080600080608085870312156114dc57600080fd5b6114e5856113be565b93506114f3602086016113be565b925060408501359150606085013567ffffffffffffffff8082111561151757600080fd5b818701915087601f83011261152b57600080fd5b81358181111561153d5761153d611497565b604051601f8201601f19908116603f0116810190838211818310171561156557611565611497565b816040528281528a602084870101111561157e57600080fd5b82602086016020830137600060208483010152809550505050505092959194509250565b600080604083850312156115b557600080fd5b6115be836113be565b91506115cc602084016113be565b90509250929050565b6002810460018216806115e957607f821691505b60208210811415611623577f4e487b7100000000000000000000000000000000000000000000000000000000600052602260045260246000fd5b50919050565b7f4e487b7100000000000000000000000000000000000000000000000000000000600052601160045260246000fd5b600060001982141561166c5761166c611629565b5060010190565b6000835161168581846020880161133a565b83519083019061169981836020880161133a565b01949350505050565b6000828210156116b4576116b4611629565b500390565b600082198211156116cc576116cc611629565b500190565b6000600160a060020a038087168352808616602084015250836040830152608060608301526117036080830184611366565b9695505050505050565b60006020828403121561171f57600080fd5b815161087c816112f256fea26469706673582212209972fac67eb1e180fe9e8564ab3de85e4a41736b0ed53cec3e82b99e3f3e61e164736f6c634300080b0033",
  "immutableReferences": {},
  "source": "// SPDX-License-Identifier: MIT\r\npragma solidity ^0.8.11;\r\n\r\nimport \"@openzeppelin/contracts/token/ERC721/ERC721.sol\";\r\n\r\ncontract NFT is ERC721 {\r\n    address public owner;\r\n    uint256 public tokenCounter = 1;\r\n\r\n    constructor(string memory name_, string memory symbol_)\r\n        ERC721(name_, symbol_)\r\n    {\r\n        owner = msg.sender;\r\n    }\r\n\r\n    function mint(uint256 _amount) external {\r\n        for (uint256 i = 0; i < _amount; i++) {\r\n            _mint(msg.sender, tokenCounter);\r\n            tokenCounter++;\r\n        }\r\n    }\r\n}\r\n",
  "sourcePath": "C:\\Github\\rent-NFT\\contracts\\test\\NFT.sol",
  "compiler": {
    "name": "solc",
    "version": "0.8.11+commit.d7f03943.Emscripten.clang"
  },
  "schemaVersion": "3.4.11",
  "updatedAt": "2022-12-17T04:10:19.912Z",
  "networkType": "ethereum",
  "devdoc": {
    "kind": "dev",
    "methods": {
      "approve(address,uint256)": {
        "details": "See {IERC721-approve}."
      },
      "balanceOf(address)": {
        "details": "See {IERC721-balanceOf}."
      },
      "getApproved(uint256)": {
        "details": "See {IERC721-getApproved}."
      },
      "isApprovedForAll(address,address)": {
        "details": "See {IERC721-isApprovedForAll}."
      },
      "name()": {
        "details": "See {IERC721Metadata-name}."
      },
      "ownerOf(uint256)": {
        "details": "See {IERC721-ownerOf}."
      },
      "safeTransferFrom(address,address,uint256)": {
        "details": "See {IERC721-safeTransferFrom}."
      },
      "safeTransferFrom(address,address,uint256,bytes)": {
        "details": "See {IERC721-safeTransferFrom}."
      },
      "setApprovalForAll(address,bool)": {
        "details": "See {IERC721-setApprovalForAll}."
      },
      "supportsInterface(bytes4)": {
        "details": "See {IERC165-supportsInterface}."
      },
      "symbol()": {
        "details": "See {IERC721Metadata-symbol}."
      },
      "tokenURI(uint256)": {
        "details": "See {IERC721Metadata-tokenURI}."
      },
      "transferFrom(address,address,uint256)": {
        "details": "See {IERC721-transferFrom}."
      }
    },
    "version": 1
  },
  "userdoc": {
    "kind": "user",
    "methods": {},
    "version": 1
  }
}