{
  "contractName": "NFT",
  "abi": [
    {
      "inputs": [
        {
          "internalType": "string",
          "name": "name_",
          "type": "string"
        },
        {
          "internalType": "string",
          "name": "symbol_",
          "type": "string"
        }
      ],
      "stateMutability": "nonpayable",
      "type": "constructor"
    },
    {
      "anonymous": false,
      "inputs": [
        {
          "indexed": true,
          "internalType": "address",
          "name": "owner",
          "type": "address"
        },
        {
          "indexed": true,
          "internalType": "address",
          "name": "approved",
          "type": "address"
        },
        {
          "indexed": true,
          "internalType": "uint256",
          "name": "tokenId",
          "type": "uint256"
        }
      ],
      "name": "Approval",
      "type": "event"
    },
    {
      "anonymous": false,
      "inputs": [
        {
          "indexed": true,
          "internalType": "address",
          "name": "owner",
          "type": "address"
        },
        {
          "indexed": true,
          "internalType": "address",
          "name": "operator",
          "type": "address"
        },
        {
          "indexed": false,
          "internalType": "bool",
          "name": "approved",
          "type": "bool"
        }
      ],
      "name": "ApprovalForAll",
      "type": "event"
    },
    {
      "anonymous": false,
      "inputs": [
        {
          "indexed": true,
          "internalType": "address",
          "name": "from",
          "type": "address"
        },
        {
          "indexed": true,
          "internalType": "address",
          "name": "to",
          "type": "address"
        },
        {
          "indexed": true,
          "internalType": "uint256",
          "name": "tokenId",
          "type": "uint256"
        }
      ],
      "name": "Transfer",
      "type": "event"
    },
    {
      "inputs": [
        {
          "internalType": "address",
          "name": "to",
          "type": "address"
        },
        {
          "internalType": "uint256",
          "name": "tokenId",
          "type": "uint256"
        }
      ],
      "name": "approve",
      "outputs": [],
      "stateMutability": "nonpayable",
      "type": "function"
    },
    {
      "inputs": [
        {
          "internalType": "address",
          "name": "owner",
          "type": "address"
        }
      ],
      "name": "balanceOf",
      "outputs": [
        {
          "internalType": "uint256",
          "name": "",
          "type": "uint256"
        }
      ],
      "stateMutability": "view",
      "type": "function",
      "constant": true
    },
    {
      "inputs": [
        {
          "internalType": "uint256",
          "name": "tokenId",
          "type": "uint256"
        }
      ],
      "name": "getApproved",
      "outputs": [
        {
          "internalType": "address",
          "name": "",
          "type": "address"
        }
      ],
      "stateMutability": "view",
      "type": "function",
      "constant": true
    },
    {
      "inputs": [
        {
          "internalType": "address",
          "name": "owner",
          "type": "address"
        },
        {
          "internalType": "address",
          "name": "operator",
          "type": "address"
        }
      ],
      "name": "isApprovedForAll",
      "outputs": [
        {
          "internalType": "bool",
          "name": "",
          "type": "bool"
        }
      ],
      "stateMutability": "view",
      "type": "function",
      "constant": true
    },
    {
      "inputs": [],
      "name": "name",
      "outputs": [
        {
          "internalType": "string",
          "name": "",
          "type": "string"
        }
      ],
      "stateMutability": "view",
      "type": "function",
      "constant": true
    },
    {
      "inputs": [],
      "name": "owner",
      "outputs": [
        {
          "internalType": "address",
          "name": "",
          "type": "address"
        }
      ],
      "stateMutability": "view",
      "type": "function",
      "constant": true
    },
    {
      "inputs": [
        {
          "internalType": "uint256",
          "name": "tokenId",
          "type": "uint256"
        }
      ],
      "name": "ownerOf",
      "outputs": [
        {
          "internalType": "address",
          "name": "",
          "type": "address"
        }
      ],
      "stateMutability": "view",
      "type": "function",
      "constant": true
    },
    {
      "inputs": [
        {
          "internalType": "address",
          "name": "from",
          "type": "address"
        },
        {
          "internalType": "address",
          "name": "to",
          "type": "address"
        },
        {
          "internalType": "uint256",
          "name": "tokenId",
          "type": "uint256"
        }
      ],
      "name": "safeTransferFrom",
      "outputs": [],
      "stateMutability": "nonpayable",
      "type": "function"
    },
    {
      "inputs": [
        {
          "internalType": "address",
          "name": "from",
          "type": "address"
        },
        {
          "internalType": "address",
          "name": "to",
          "type": "address"
        },
        {
          "internalType": "uint256",
          "name": "tokenId",
          "type": "uint256"
        },
        {
          "internalType": "bytes",
          "name": "_data",
          "type": "bytes"
        }
      ],
      "name": "safeTransferFrom",
      "outputs": [],
      "stateMutability": "nonpayable",
      "type": "function"
    },
    {
      "inputs": [
        {
          "internalType": "address",
          "name": "operator",
          "type": "address"
        },
        {
          "internalType": "bool",
          "name": "approved",
          "type": "bool"
        }
      ],
      "name": "setApprovalForAll",
      "outputs": [],
      "stateMutability": "nonpayable",
      "type": "function"
    },
    {
      "inputs": [
        {
          "internalType": "bytes4",
          "name": "interfaceId",
          "type": "bytes4"
        }
      ],
      "name": "supportsInterface",
      "outputs": [
        {
          "internalType": "bool",
          "name": "",
          "type": "bool"
        }
      ],
      "stateMutability": "view",
      "type": "function",
      "constant": true
    },
    {
      "inputs": [],
      "name": "symbol",
      "outputs": [
        {
          "internalType": "string",
          "name": "",
          "type": "string"
        }
      ],
      "stateMutability": "view",
      "type": "function",
      "constant": true
    },
    {
      "inputs": [],
      "name": "tokenCounter",
      "outputs": [
        {
          "internalType": "uint256",
          "name": "",
          "type": "uint256"
        }
      ],
      "stateMutability": "view",
      "type": "function",
      "constant": true
    },
    {
      "inputs": [
        {
          "internalType": "uint256",
          "name": "tokenId",
          "type": "uint256"
        }
      ],
      "name": "tokenURI",
      "outputs": [
        {
          "internalType": "string",
          "name": "",
          "type": "string"
        }
      ],
      "stateMutability": "view",
      "type": "function",
      "constant": true
    },
    {
      "inputs": [
        {
          "internalType": "address",
          "name": "from",
          "type": "address"
        },
        {
          "internalType": "address",
          "name": "to",
          "type": "address"
        },
        {
          "internalType": "uint256",
          "name": "tokenId",
          "type": "uint256"
        }
      ],
      "name": "transferFrom",
      "outputs": [],
      "stateMutability": "nonpayable",
      "type": "function"
    },
    {
      "inputs": [
        {
          "internalType": "uint256",
          "name": "_amount",
          "type": "uint256"
        }
      ],
      "name": "mint",
      "outputs": [],
      "stateMutability": "nonpayable",
      "type": "function"
    }
  ],
  "bytecode": "0x608060405260016007553480156200001657600080fd5b5060405162002b8e38038062002b8e83398181016040528101906200003c919062000308565b8181816000908051906020019062000056929190620000bb565b5080600190805190602001906200006f929190620000bb565b50505033600660006101000a81548173ffffffffffffffffffffffffffffffffffffffff021916908373ffffffffffffffffffffffffffffffffffffffff1602179055505050620003f2565b828054620000c990620003bc565b90600052602060002090601f016020900481019282620000ed576000855562000139565b82601f106200010857805160ff191683800117855562000139565b8280016001018555821562000139579182015b82811115620001385782518255916020019190600101906200011b565b5b5090506200014891906200014c565b5090565b5b80821115620001675760008160009055506001016200014d565b5090565b6000604051905090565b600080fd5b600080fd5b600080fd5b600080fd5b6000601f19601f8301169050919050565b7f4e487b7100000000000000000000000000000000000000000000000000000000600052604160045260246000fd5b620001d48262000189565b810181811067ffffffffffffffff82111715620001f657620001f56200019a565b5b80604052505050565b60006200020b6200016b565b9050620002198282620001c9565b919050565b600067ffffffffffffffff8211156200023c576200023b6200019a565b5b620002478262000189565b9050602081019050919050565b60005b838110156200027457808201518184015260208101905062000257565b8381111562000284576000848401525b50505050565b6000620002a16200029b846200021e565b620001ff565b905082815260208101848484011115620002c057620002bf62000184565b5b620002cd84828562000254565b509392505050565b600082601f830112620002ed57620002ec6200017f565b5b8151620002ff8482602086016200028a565b91505092915050565b6000806040838503121562000322576200032162000175565b5b600083015167ffffffffffffffff8111156200034357620003426200017a565b5b6200035185828601620002d5565b925050602083015167ffffffffffffffff8111156200037557620003746200017a565b5b6200038385828601620002d5565b9150509250929050565b7f4e487b7100000000000000000000000000000000000000000000000000000000600052602260045260246000fd5b60006002820490506001821680620003d557607f821691505b60208210811415620003ec57620003eb6200038d565b5b50919050565b61278c80620004026000396000f3fe608060405234801561001057600080fd5b50600436106101005760003560e01c80638da5cb5b11610097578063b88d4fde11610066578063b88d4fde146102ab578063c87b56dd146102c7578063d082e381146102f7578063e985e9c51461031557610100565b80638da5cb5b1461023757806395d89b4114610255578063a0712d6814610273578063a22cb4651461028f57610100565b806323b872dd116100d357806323b872dd1461019f57806342842e0e146101bb5780636352211e146101d757806370a082311461020757610100565b806301ffc9a71461010557806306fdde0314610135578063081812fc14610153578063095ea7b314610183575b600080fd5b61011f600480360381019061011a919061170f565b610345565b60405161012c9190611757565b60405180910390f35b61013d610427565b60405161014a919061180b565b60405180910390f35b61016d60048036038101906101689190611863565b6104b9565b60405161017a91906118d1565b60405180910390f35b61019d60048036038101906101989190611918565b61053e565b005b6101b960048036038101906101b49190611958565b610656565b005b6101d560048036038101906101d09190611958565b6106b6565b005b6101f160048036038101906101ec9190611863565b6106d6565b6040516101fe91906118d1565b60405180910390f35b610221600480360381019061021c91906119ab565b610788565b60405161022e91906119e7565b60405180910390f35b61023f610840565b60405161024c91906118d1565b60405180910390f35b61025d610866565b60405161026a919061180b565b60405180910390f35b61028d60048036038101906102889190611863565b6108f8565b005b6102a960048036038101906102a49190611a2e565b61093e565b005b6102c560048036038101906102c09190611ba3565b610954565b005b6102e160048036038101906102dc9190611863565b6109b6565b6040516102ee919061180b565b60405180910390f35b6102ff610a5d565b60405161030c91906119e7565b60405180910390f35b61032f600480360381019061032a9190611c26565b610a63565b60405161033c9190611757565b60405180910390f35b60007f80ac58cd000000000000000000000000000000000000000000000000000000007bffffffffffffffffffffffffffffffffffffffffffffffffffffffff1916827bffffffffffffffffffffffffffffffffffffffffffffffffffffffff1916148061041057507f5b5e139f000000000000000000000000000000000000000000000000000000007bffffffffffffffffffffffffffffffffffffffffffffffffffffffff1916827bffffffffffffffffffffffffffffffffffffffffffffffffffffffff1916145b80610420575061041f82610af7565b5b9050919050565b60606000805461043690611c95565b80601f016020809104026020016040519081016040528092919081815260200182805461046290611c95565b80156104af5780601f10610484576101008083540402835291602001916104af565b820191906000526020600020905b81548152906001019060200180831161049257829003601f168201915b5050505050905090565b60006104c482610b61565b610503576040517f08c379a00000000000000000000000000000000000000000000000000000000081526004016104fa90611d39565b60405180910390fd5b6004600083815260200190815260200160002060009054906101000a900473ffffffffffffffffffffffffffffffffffffffff169050919050565b6000610549826106d6565b90508073ffffffffffffffffffffffffffffffffffffffff168373ffffffffffffffffffffffffffffffffffffffff1614156105ba576040517f08c379a00000000000000000000000000000000000000000000000000000000081526004016105b190611dcb565b60405180910390fd5b8073ffffffffffffffffffffffffffffffffffffffff166105d9610bcd565b73ffffffffffffffffffffffffffffffffffffffff161480610608575061060781610602610bcd565b610a63565b5b610647576040517f08c379a000000000000000000000000000000000000000000000000000000000815260040161063e90611e5d565b60405180910390fd5b6106518383610bd5565b505050565b610667610661610bcd565b82610c8e565b6106a6576040517f08c379a000000000000000000000000000000000000000000000000000000000815260040161069d90611eef565b60405180910390fd5b6106b1838383610d6c565b505050565b6106d183838360405180602001604052806000815250610954565b505050565b6000806002600084815260200190815260200160002060009054906101000a900473ffffffffffffffffffffffffffffffffffffffff169050600073ffffffffffffffffffffffffffffffffffffffff168173ffffffffffffffffffffffffffffffffffffffff16141561077f576040517f08c379a000000000000000000000000000000000000000000000000000000000815260040161077690611f81565b60405180910390fd5b80915050919050565b60008073ffffffffffffffffffffffffffffffffffffffff168273ffffffffffffffffffffffffffffffffffffffff1614156107f9576040517f08c379a00000000000000000000000000000000000000000000000000000000081526004016107f090612013565b60405180910390fd5b600360008373ffffffffffffffffffffffffffffffffffffffff1673ffffffffffffffffffffffffffffffffffffffff168152602001908152602001600020549050919050565b600660009054906101000a900473ffffffffffffffffffffffffffffffffffffffff1681565b60606001805461087590611c95565b80601f01602080910402602001604051908101604052809291908181526020018280546108a190611c95565b80156108ee5780601f106108c3576101008083540402835291602001916108ee565b820191906000526020600020905b8154815290600101906020018083116108d157829003601f168201915b5050505050905090565b60005b8181101561093a5761090f33600754610fd3565b6007600081548092919061092290612062565b9190505550808061093290612062565b9150506108fb565b5050565b610950610949610bcd565b83836111ad565b5050565b61096561095f610bcd565b83610c8e565b6109a4576040517f08c379a000000000000000000000000000000000000000000000000000000000815260040161099b90611eef565b60405180910390fd5b6109b08484848461131a565b50505050565b60606109c182610b61565b610a00576040517f08c379a00000000000000000000000000000000000000000000000000000000081526004016109f79061211d565b60405180910390fd5b6000610a0a611376565b90506000815111610a2a5760405180602001604052806000815250610a55565b80610a348461138d565b604051602001610a45929190612179565b6040516020818303038152906040525b915050919050565b60075481565b6000600560008473ffffffffffffffffffffffffffffffffffffffff1673ffffffffffffffffffffffffffffffffffffffff16815260200190815260200160002060008373ffffffffffffffffffffffffffffffffffffffff1673ffffffffffffffffffffffffffffffffffffffff16815260200190815260200160002060009054906101000a900460ff16905092915050565b60007f01ffc9a7000000000000000000000000000000000000000000000000000000007bffffffffffffffffffffffffffffffffffffffffffffffffffffffff1916827bffffffffffffffffffffffffffffffffffffffffffffffffffffffff1916149050919050565b60008073ffffffffffffffffffffffffffffffffffffffff166002600084815260200190815260200160002060009054906101000a900473ffffffffffffffffffffffffffffffffffffffff1673ffffffffffffffffffffffffffffffffffffffff1614159050919050565b600033905090565b816004600083815260200190815260200160002060006101000a81548173ffffffffffffffffffffffffffffffffffffffff021916908373ffffffffffffffffffffffffffffffffffffffff160217905550808273ffffffffffffffffffffffffffffffffffffffff16610c48836106d6565b73ffffffffffffffffffffffffffffffffffffffff167f8c5be1e5ebec7d5bd14f71427d1e84f3dd0314c0f7b2291e5b200ac8c7c3b92560405160405180910390a45050565b6000610c9982610b61565b610cd8576040517f08c379a0000000000000000000000000000000000000000000000000000000008152600401610ccf9061220f565b60405180910390fd5b6000610ce3836106d6565b90508073ffffffffffffffffffffffffffffffffffffffff168473ffffffffffffffffffffffffffffffffffffffff161480610d255750610d248185610a63565b5b80610d6357508373ffffffffffffffffffffffffffffffffffffffff16610d4b846104b9565b73ffffffffffffffffffffffffffffffffffffffff16145b91505092915050565b8273ffffffffffffffffffffffffffffffffffffffff16610d8c826106d6565b73ffffffffffffffffffffffffffffffffffffffff1614610de2576040517f08c379a0000000000000000000000000000000000000000000000000000000008152600401610dd9906122a1565b60405180910390fd5b600073ffffffffffffffffffffffffffffffffffffffff168273ffffffffffffffffffffffffffffffffffffffff161415610e52576040517f08c379a0000000000000000000000000000000000000000000000000000000008152600401610e4990612333565b60405180910390fd5b610e5d8383836114ee565b610e68600082610bd5565b6001600360008573ffffffffffffffffffffffffffffffffffffffff1673ffffffffffffffffffffffffffffffffffffffff1681526020019081526020016000206000828254610eb89190612353565b925050819055506001600360008473ffffffffffffffffffffffffffffffffffffffff1673ffffffffffffffffffffffffffffffffffffffff1681526020019081526020016000206000828254610f0f9190612387565b92505081905550816002600083815260200190815260200160002060006101000a81548173ffffffffffffffffffffffffffffffffffffffff021916908373ffffffffffffffffffffffffffffffffffffffff160217905550808273ffffffffffffffffffffffffffffffffffffffff168473ffffffffffffffffffffffffffffffffffffffff167fddf252ad1be2c89b69c2b068fc378daa952ba7f163c4a11628f55a4df523b3ef60405160405180910390a4610fce8383836114f3565b505050565b600073ffffffffffffffffffffffffffffffffffffffff168273ffffffffffffffffffffffffffffffffffffffff161415611043576040517f08c379a000000000000000000000000000000000000000000000000000000000815260040161103a90612429565b60405180910390fd5b61104c81610b61565b1561108c576040517f08c379a000000000000000000000000000000000000000000000000000000000815260040161108390612495565b60405180910390fd5b611098600083836114ee565b6001600360008473ffffffffffffffffffffffffffffffffffffffff1673ffffffffffffffffffffffffffffffffffffffff16815260200190815260200160002060008282546110e89190612387565b92505081905550816002600083815260200190815260200160002060006101000a81548173ffffffffffffffffffffffffffffffffffffffff021916908373ffffffffffffffffffffffffffffffffffffffff160217905550808273ffffffffffffffffffffffffffffffffffffffff16600073ffffffffffffffffffffffffffffffffffffffff167fddf252ad1be2c89b69c2b068fc378daa952ba7f163c4a11628f55a4df523b3ef60405160405180910390a46111a9600083836114f3565b5050565b8173ffffffffffffffffffffffffffffffffffffffff168373ffffffffffffffffffffffffffffffffffffffff16141561121c576040517f08c379a000000000000000000000000000000000000000000000000000000000815260040161121390612501565b60405180910390fd5b80600560008573ffffffffffffffffffffffffffffffffffffffff1673ffffffffffffffffffffffffffffffffffffffff16815260200190815260200160002060008473ffffffffffffffffffffffffffffffffffffffff1673ffffffffffffffffffffffffffffffffffffffff16815260200190815260200160002060006101000a81548160ff0219169083151502179055508173ffffffffffffffffffffffffffffffffffffffff168373ffffffffffffffffffffffffffffffffffffffff167f17307eab39ab6107e8899845ad3d59bd9653f200f220920489ca2b5937696c318360405161130d9190611757565b60405180910390a3505050565b611325848484610d6c565b611331848484846114f8565b611370576040517f08c379a000000000000000000000000000000000000000000000000000000000815260040161136790612593565b60405180910390fd5b50505050565b606060405180602001604052806000815250905090565b606060008214156113d5576040518060400160405280600181526020017f300000000000000000000000000000000000000000000000000000000000000081525090506114e9565b600082905060005b600082146114075780806113f090612062565b915050600a8261140091906125e2565b91506113dd565b60008167ffffffffffffffff81111561142357611422611a78565b5b6040519080825280601f01601f1916602001820160405280156114555781602001600182028036833780820191505090505b5090505b600085146114e25760018261146e9190612353565b9150600a8561147d9190612613565b60306114899190612387565b60f81b81838151811061149f5761149e612644565b5b60200101907effffffffffffffffffffffffffffffffffffffffffffffffffffffffffffff1916908160001a905350600a856114db91906125e2565b9450611459565b8093505050505b919050565b505050565b505050565b60006115198473ffffffffffffffffffffffffffffffffffffffff16611680565b15611673578373ffffffffffffffffffffffffffffffffffffffff1663150b7a02611542610bcd565b8786866040518563ffffffff1660e01b815260040161156494939291906126c8565b6020604051808303816000875af19250505080156115a057506040513d601f19601f8201168201806040525081019061159d9190612729565b60015b611623573d80600081146115d0576040519150601f19603f3d011682016040523d82523d6000602084013e6115d5565b606091505b5060008151141561161b576040517f08c379a000000000000000000000000000000000000000000000000000000000815260040161161290612593565b60405180910390fd5b805181602001fd5b63150b7a0260e01b7bffffffffffffffffffffffffffffffffffffffffffffffffffffffff1916817bffffffffffffffffffffffffffffffffffffffffffffffffffffffff191614915050611678565b600190505b949350505050565b6000808273ffffffffffffffffffffffffffffffffffffffff163b119050919050565b6000604051905090565b600080fd5b600080fd5b60007fffffffff0000000000000000000000000000000000000000000000000000000082169050919050565b6116ec816116b7565b81146116f757600080fd5b50565b600081359050611709816116e3565b92915050565b600060208284031215611725576117246116ad565b5b6000611733848285016116fa565b91505092915050565b60008115159050919050565b6117518161173c565b82525050565b600060208201905061176c6000830184611748565b92915050565b600081519050919050565b600082825260208201905092915050565b60005b838110156117ac578082015181840152602081019050611791565b838111156117bb576000848401525b50505050565b6000601f19601f8301169050919050565b60006117dd82611772565b6117e7818561177d565b93506117f781856020860161178e565b611800816117c1565b840191505092915050565b6000602082019050818103600083015261182581846117d2565b905092915050565b6000819050919050565b6118408161182d565b811461184b57600080fd5b50565b60008135905061185d81611837565b92915050565b600060208284031215611879576118786116ad565b5b60006118878482850161184e565b91505092915050565b600073ffffffffffffffffffffffffffffffffffffffff82169050919050565b60006118bb82611890565b9050919050565b6118cb816118b0565b82525050565b60006020820190506118e660008301846118c2565b92915050565b6118f5816118b0565b811461190057600080fd5b50565b600081359050611912816118ec565b92915050565b6000806040838503121561192f5761192e6116ad565b5b600061193d85828601611903565b925050602061194e8582860161184e565b9150509250929050565b600080600060608486031215611971576119706116ad565b5b600061197f86828701611903565b935050602061199086828701611903565b92505060406119a18682870161184e565b9150509250925092565b6000602082840312156119c1576119c06116ad565b5b60006119cf84828501611903565b91505092915050565b6119e18161182d565b82525050565b60006020820190506119fc60008301846119d8565b92915050565b611a0b8161173c565b8114611a1657600080fd5b50565b600081359050611a2881611a02565b92915050565b60008060408385031215611a4557611a446116ad565b5b6000611a5385828601611903565b9250506020611a6485828601611a19565b9150509250929050565b600080fd5b600080fd5b7f4e487b7100000000000000000000000000000000000000000000000000000000600052604160045260246000fd5b611ab0826117c1565b810181811067ffffffffffffffff82111715611acf57611ace611a78565b5b80604052505050565b6000611ae26116a3565b9050611aee8282611aa7565b919050565b600067ffffffffffffffff821115611b0e57611b0d611a78565b5b611b17826117c1565b9050602081019050919050565b82818337600083830152505050565b6000611b46611b4184611af3565b611ad8565b905082815260208101848484011115611b6257611b61611a73565b5b611b6d848285611b24565b509392505050565b600082601f830112611b8a57611b89611a6e565b5b8135611b9a848260208601611b33565b91505092915050565b60008060008060808587031215611bbd57611bbc6116ad565b5b6000611bcb87828801611903565b9450506020611bdc87828801611903565b9350506040611bed8782880161184e565b925050606085013567ffffffffffffffff811115611c0e57611c0d6116b2565b5b611c1a87828801611b75565b91505092959194509250565b60008060408385031215611c3d57611c3c6116ad565b5b6000611c4b85828601611903565b9250506020611c5c85828601611903565b9150509250929050565b7f4e487b7100000000000000000000000000000000000000000000000000000000600052602260045260246000fd5b60006002820490506001821680611cad57607f821691505b60208210811415611cc157611cc0611c66565b5b50919050565b7f4552433732313a20617070726f76656420717565727920666f72206e6f6e657860008201527f697374656e7420746f6b656e0000000000000000000000000000000000000000602082015250565b6000611d23602c8361177d565b9150611d2e82611cc7565b604082019050919050565b60006020820190508181036000830152611d5281611d16565b9050919050565b7f4552433732313a20617070726f76616c20746f2063757272656e74206f776e6560008201527f7200000000000000000000000000000000000000000000000000000000000000602082015250565b6000611db560218361177d565b9150611dc082611d59565b604082019050919050565b60006020820190508181036000830152611de481611da8565b9050919050565b7f4552433732313a20617070726f76652063616c6c6572206973206e6f74206f7760008201527f6e6572206e6f7220617070726f76656420666f7220616c6c0000000000000000602082015250565b6000611e4760388361177d565b9150611e5282611deb565b604082019050919050565b60006020820190508181036000830152611e7681611e3a565b9050919050565b7f4552433732313a207472616e736665722063616c6c6572206973206e6f74206f60008201527f776e6572206e6f7220617070726f766564000000000000000000000000000000602082015250565b6000611ed960318361177d565b9150611ee482611e7d565b604082019050919050565b60006020820190508181036000830152611f0881611ecc565b9050919050565b7f4552433732313a206f776e657220717565727920666f72206e6f6e657869737460008201527f656e7420746f6b656e0000000000000000000000000000000000000000000000602082015250565b6000611f6b60298361177d565b9150611f7682611f0f565b604082019050919050565b60006020820190508181036000830152611f9a81611f5e565b9050919050565b7f4552433732313a2062616c616e636520717565727920666f7220746865207a6560008201527f726f206164647265737300000000000000000000000000000000000000000000602082015250565b6000611ffd602a8361177d565b915061200882611fa1565b604082019050919050565b6000602082019050818103600083015261202c81611ff0565b9050919050565b7f4e487b7100000000000000000000000000000000000000000000000000000000600052601160045260246000fd5b600061206d8261182d565b91507fffffffffffffffffffffffffffffffffffffffffffffffffffffffffffffffff8214156120a05761209f612033565b5b600182019050919050565b7f4552433732314d657461646174613a2055524920717565727920666f72206e6f60008201527f6e6578697374656e7420746f6b656e0000000000000000000000000000000000602082015250565b6000612107602f8361177d565b9150612112826120ab565b604082019050919050565b60006020820190508181036000830152612136816120fa565b9050919050565b600081905092915050565b600061215382611772565b61215d818561213d565b935061216d81856020860161178e565b80840191505092915050565b60006121858285612148565b91506121918284612148565b91508190509392505050565b7f4552433732313a206f70657261746f7220717565727920666f72206e6f6e657860008201527f697374656e7420746f6b656e0000000000000000000000000000000000000000602082015250565b60006121f9602c8361177d565b91506122048261219d565b604082019050919050565b60006020820190508181036000830152612228816121ec565b9050919050565b7f4552433732313a207472616e736665722066726f6d20696e636f72726563742060008201527f6f776e6572000000000000000000000000000000000000000000000000000000602082015250565b600061228b60258361177d565b91506122968261222f565b604082019050919050565b600060208201905081810360008301526122ba8161227e565b9050919050565b7f4552433732313a207472616e7366657220746f20746865207a65726f2061646460008201527f7265737300000000000000000000000000000000000000000000000000000000602082015250565b600061231d60248361177d565b9150612328826122c1565b604082019050919050565b6000602082019050818103600083015261234c81612310565b9050919050565b600061235e8261182d565b91506123698361182d565b92508282101561237c5761237b612033565b5b828203905092915050565b60006123928261182d565b915061239d8361182d565b9250827fffffffffffffffffffffffffffffffffffffffffffffffffffffffffffffffff038211156123d2576123d1612033565b5b828201905092915050565b7f4552433732313a206d696e7420746f20746865207a65726f2061646472657373600082015250565b600061241360208361177d565b915061241e826123dd565b602082019050919050565b6000602082019050818103600083015261244281612406565b9050919050565b7f4552433732313a20746f6b656e20616c7265616479206d696e74656400000000600082015250565b600061247f601c8361177d565b915061248a82612449565b602082019050919050565b600060208201905081810360008301526124ae81612472565b9050919050565b7f4552433732313a20617070726f766520746f2063616c6c657200000000000000600082015250565b60006124eb60198361177d565b91506124f6826124b5565b602082019050919050565b6000602082019050818103600083015261251a816124de565b9050919050565b7f4552433732313a207472616e7366657220746f206e6f6e20455243373231526560008201527f63656976657220696d706c656d656e7465720000000000000000000000000000602082015250565b600061257d60328361177d565b915061258882612521565b604082019050919050565b600060208201905081810360008301526125ac81612570565b9050919050565b7f4e487b7100000000000000000000000000000000000000000000000000000000600052601260045260246000fd5b60006125ed8261182d565b91506125f88361182d565b925082612608576126076125b3565b5b828204905092915050565b600061261e8261182d565b91506126298361182d565b925082612639576126386125b3565b5b828206905092915050565b7f4e487b7100000000000000000000000000000000000000000000000000000000600052603260045260246000fd5b600081519050919050565b600082825260208201905092915050565b600061269a82612673565b6126a4818561267e565b93506126b481856020860161178e565b6126bd816117c1565b840191505092915050565b60006080820190506126dd60008301876118c2565b6126ea60208301866118c2565b6126f760408301856119d8565b8181036060830152612709818461268f565b905095945050505050565b600081519050612723816116e3565b92915050565b60006020828403121561273f5761273e6116ad565b5b600061274d84828501612714565b9150509291505056fea2646970667358221220c1087fe31ae890345e9edfb250ef12543c2a8e156b7b4c4aed72a3dd6cbedaa464736f6c634300080b0033",
  "immutableReferences": {},
  "source": "// SPDX-License-Identifier: MIT\r\npragma solidity ^0.8.11;\r\n\r\nimport \"@openzeppelin/contracts/token/ERC721/ERC721.sol\";\r\n\r\ncontract NFT is ERC721 {\r\n    address public owner;\r\n    uint256 public tokenCounter = 1;\r\n\r\n    constructor(string memory name_, string memory symbol_)\r\n        ERC721(name_, symbol_)\r\n    {\r\n        owner = msg.sender;\r\n    }\r\n\r\n    function mint(uint256 _amount) external {\r\n        for (uint256 i = 0; i < _amount; i++) {\r\n            _mint(msg.sender, tokenCounter);\r\n            tokenCounter++;\r\n        }\r\n    }\r\n}\r\n",
  "sourcePath": "C:\\Github\\rent-NFT\\contracts\\test\\NFT.sol",
  "compiler": {
    "name": "solc",
    "version": "0.8.11+commit.d7f03943.Emscripten.clang"
  },
  "schemaVersion": "3.4.11",
  "updatedAt": "2022-12-08T12:05:34.224Z",
  "networkType": "ethereum",
  "devdoc": {
    "kind": "dev",
    "methods": {
      "approve(address,uint256)": {
        "details": "See {IERC721-approve}."
      },
      "balanceOf(address)": {
        "details": "See {IERC721-balanceOf}."
      },
      "getApproved(uint256)": {
        "details": "See {IERC721-getApproved}."
      },
      "isApprovedForAll(address,address)": {
        "details": "See {IERC721-isApprovedForAll}."
      },
      "name()": {
        "details": "See {IERC721Metadata-name}."
      },
      "ownerOf(uint256)": {
        "details": "See {IERC721-ownerOf}."
      },
      "safeTransferFrom(address,address,uint256)": {
        "details": "See {IERC721-safeTransferFrom}."
      },
      "safeTransferFrom(address,address,uint256,bytes)": {
        "details": "See {IERC721-safeTransferFrom}."
      },
      "setApprovalForAll(address,bool)": {
        "details": "See {IERC721-setApprovalForAll}."
      },
      "supportsInterface(bytes4)": {
        "details": "See {IERC165-supportsInterface}."
      },
      "symbol()": {
        "details": "See {IERC721Metadata-symbol}."
      },
      "tokenURI(uint256)": {
        "details": "See {IERC721Metadata-tokenURI}."
      },
      "transferFrom(address,address,uint256)": {
        "details": "See {IERC721-transferFrom}."
      }
    },
    "version": 1
  },
  "userdoc": {
    "kind": "user",
    "methods": {},
    "version": 1
  }
}