{
  "contractName": "ReNFT",
  "abi": [
    {
      "inputs": [
        {
          "internalType": "address",
          "name": "_resolver",
          "type": "address"
        },
        {
          "internalType": "address payable",
          "name": "_beneficiary",
          "type": "address"
        },
        {
          "internalType": "address",
          "name": "_admin",
          "type": "address"
        }
      ],
      "stateMutability": "nonpayable",
      "type": "constructor"
    },
    {
      "anonymous": false,
      "inputs": [
        {
          "indexed": true,
          "internalType": "uint256",
          "name": "lendingId",
          "type": "uint256"
        },
        {
          "indexed": false,
          "internalType": "uint32",
          "name": "claimedAt",
          "type": "uint32"
        }
      ],
      "name": "CollateralClaimed",
      "type": "event"
    },
    {
      "anonymous": false,
      "inputs": [
        {
          "indexed": true,
          "internalType": "uint256",
          "name": "lendingId",
          "type": "uint256"
        },
        {
          "indexed": false,
          "internalType": "uint32",
          "name": "stoppedAt",
          "type": "uint32"
        }
      ],
      "name": "LendingStopped",
      "type": "event"
    },
    {
      "anonymous": false,
      "inputs": [
        {
          "indexed": true,
          "internalType": "address",
          "name": "nftAddress",
          "type": "address"
        },
        {
          "indexed": true,
          "internalType": "uint256",
          "name": "tokenId",
          "type": "uint256"
        },
        {
          "indexed": false,
          "internalType": "uint8",
          "name": "lentAmount",
          "type": "uint8"
        },
        {
          "indexed": false,
          "internalType": "uint256",
          "name": "lendingId",
          "type": "uint256"
        },
        {
          "indexed": true,
          "internalType": "address",
          "name": "lenderAddress",
          "type": "address"
        },
        {
          "indexed": false,
          "internalType": "uint8",
          "name": "maxRentDuration",
          "type": "uint8"
        },
        {
          "indexed": false,
          "internalType": "bytes4",
          "name": "dailyRentPrice",
          "type": "bytes4"
        },
        {
          "indexed": false,
          "internalType": "bytes4",
          "name": "nftPrice",
          "type": "bytes4"
        },
        {
          "indexed": false,
          "internalType": "bool",
          "name": "isERC721",
          "type": "bool"
        },
        {
          "indexed": false,
          "internalType": "enum IResolver.PaymentToken",
          "name": "paymentToken",
          "type": "uint8"
        }
      ],
      "name": "Lent",
      "type": "event"
    },
    {
      "anonymous": false,
      "inputs": [
        {
          "indexed": false,
          "internalType": "uint256",
          "name": "lendingId",
          "type": "uint256"
        },
        {
          "indexed": true,
          "internalType": "address",
          "name": "renterAddress",
          "type": "address"
        },
        {
          "indexed": false,
          "internalType": "uint8",
          "name": "rentDuration",
          "type": "uint8"
        },
        {
          "indexed": false,
          "internalType": "uint32",
          "name": "rentedAt",
          "type": "uint32"
        }
      ],
      "name": "Rented",
      "type": "event"
    },
    {
      "anonymous": false,
      "inputs": [
        {
          "indexed": true,
          "internalType": "uint256",
          "name": "lendingId",
          "type": "uint256"
        },
        {
          "indexed": false,
          "internalType": "uint32",
          "name": "returnedAt",
          "type": "uint32"
        }
      ],
      "name": "Returned",
      "type": "event"
    },
    {
      "inputs": [
        {
          "internalType": "address",
          "name": "",
          "type": "address"
        },
        {
          "internalType": "address",
          "name": "",
          "type": "address"
        },
        {
          "internalType": "uint256[]",
          "name": "",
          "type": "uint256[]"
        },
        {
          "internalType": "uint256[]",
          "name": "",
          "type": "uint256[]"
        },
        {
          "internalType": "bytes",
          "name": "",
          "type": "bytes"
        }
      ],
      "name": "onERC1155BatchReceived",
      "outputs": [
        {
          "internalType": "bytes4",
          "name": "",
          "type": "bytes4"
        }
      ],
      "stateMutability": "nonpayable",
      "type": "function"
    },
    {
      "inputs": [
        {
          "internalType": "address",
          "name": "",
          "type": "address"
        },
        {
          "internalType": "address",
          "name": "",
          "type": "address"
        },
        {
          "internalType": "uint256",
          "name": "",
          "type": "uint256"
        },
        {
          "internalType": "uint256",
          "name": "",
          "type": "uint256"
        },
        {
          "internalType": "bytes",
          "name": "",
          "type": "bytes"
        }
      ],
      "name": "onERC1155Received",
      "outputs": [
        {
          "internalType": "bytes4",
          "name": "",
          "type": "bytes4"
        }
      ],
      "stateMutability": "nonpayable",
      "type": "function"
    },
    {
      "inputs": [
        {
          "internalType": "address",
          "name": "",
          "type": "address"
        },
        {
          "internalType": "address",
          "name": "",
          "type": "address"
        },
        {
          "internalType": "uint256",
          "name": "",
          "type": "uint256"
        },
        {
          "internalType": "bytes",
          "name": "",
          "type": "bytes"
        }
      ],
      "name": "onERC721Received",
      "outputs": [
        {
          "internalType": "bytes4",
          "name": "",
          "type": "bytes4"
        }
      ],
      "stateMutability": "nonpayable",
      "type": "function"
    },
    {
      "inputs": [],
      "name": "paused",
      "outputs": [
        {
          "internalType": "bool",
          "name": "",
          "type": "bool"
        }
      ],
      "stateMutability": "view",
      "type": "function",
      "constant": true
    },
    {
      "inputs": [],
      "name": "rentFee",
      "outputs": [
        {
          "internalType": "uint256",
          "name": "",
          "type": "uint256"
        }
      ],
      "stateMutability": "view",
      "type": "function",
      "constant": true
    },
    {
      "inputs": [
        {
          "internalType": "bytes4",
          "name": "interfaceId",
          "type": "bytes4"
        }
      ],
      "name": "supportsInterface",
      "outputs": [
        {
          "internalType": "bool",
          "name": "",
          "type": "bool"
        }
      ],
      "stateMutability": "view",
      "type": "function",
      "constant": true
    },
    {
      "inputs": [
        {
          "internalType": "address",
          "name": "_nft",
          "type": "address"
        },
        {
          "internalType": "uint256",
          "name": "_tokenId",
          "type": "uint256"
        },
        {
          "internalType": "uint256",
          "name": "_lendAmount",
          "type": "uint256"
        },
        {
          "internalType": "uint8",
          "name": "_maxRentDuration",
          "type": "uint8"
        },
        {
          "internalType": "bytes4",
          "name": "_dailyRentPrice",
          "type": "bytes4"
        },
        {
          "internalType": "bytes4",
          "name": "_nftPrice",
          "type": "bytes4"
        },
        {
          "internalType": "enum IResolver.PaymentToken",
          "name": "_paymentToken",
          "type": "uint8"
        }
      ],
      "name": "lend",
      "outputs": [],
      "stateMutability": "nonpayable",
      "type": "function"
    },
    {
      "inputs": [
        {
          "internalType": "uint256",
          "name": "_rentFee",
          "type": "uint256"
        }
      ],
      "name": "setRentFee",
      "outputs": [],
      "stateMutability": "nonpayable",
      "type": "function"
    },
    {
      "inputs": [
        {
          "internalType": "address payable",
          "name": "_newBeneficiary",
          "type": "address"
        }
      ],
      "name": "setBeneficiary",
      "outputs": [],
      "stateMutability": "nonpayable",
      "type": "function"
    },
    {
      "inputs": [
        {
          "internalType": "bool",
          "name": "_paused",
          "type": "bool"
        }
      ],
      "name": "setPaused",
      "outputs": [],
      "stateMutability": "nonpayable",
      "type": "function"
    }
  ],
  "bytecode": "0x608060405260016003556004805460ff1916905560006005553480156200002557600080fd5b506040516200193938038062001939833981016040819052620000489162000155565b6200005c83640100000000620000c7810204565b6200007082640100000000620000c7810204565b6200008481640100000000620000c7810204565b60008054600160a060020a03948516600160a060020a031991821617909155600280549385169382169390931790925560018054919093169116179055620001a9565b600160a060020a0381166200013c576040517f08c379a000000000000000000000000000000000000000000000000000000000815260206004820152601360248201527f52654e46543a3a7a65726f206164647265737300000000000000000000000000604482015260640160405180910390fd5b50565b600160a060020a03811681146200013c57600080fd5b6000806000606084860312156200016b57600080fd5b835162000178816200013f565b60208501519093506200018b816200013f565b60408501519092506200019e816200013f565b809150509250925092565b61178080620001b96000396000f3fe608060405234801561001057600080fd5b50600436106100bb576000357c0100000000000000000000000000000000000000000000000000000000900480635c975abb116100835780635c975abb1461017957806376774ea314610186578063bc197c8114610199578063bf2b23ea146101d1578063f23a6e61146101e857600080fd5b806301ffc9a7146100c0578063150b7a02146100e857806316c38b3c1461013e57806316f2cc57146101535780631c31f71014610166575b600080fd5b6100d36100ce366004611220565b610220565b60405190151581526020015b60405180910390f35b61011f6100f6366004611327565b7f150b7a0200000000000000000000000000000000000000000000000000000000949350505050565b60405160008051602061172b83398151915290911681526020016100df565b61015161014c3660046113a1565b610295565b005b6101516101613660046113be565b61030a565b610151610174366004611448565b610383565b6004546100d39060ff1681565b610151610194366004611465565b61040f565b61011f6101a73660046114fd565b7fbc197c810000000000000000000000000000000000000000000000000000000095945050505050565b6101da60055481565b6040519081526020016100df565b61011f6101f63660046115ab565b7ff23a6e610000000000000000000000000000000000000000000000000000000095945050505050565b600060008051602061172b83398151915282167f4e2312e000000000000000000000000000000000000000000000000000000000148061028f57507f01ffc9a70000000000000000000000000000000000000000000000000000000060008051602061172b8339815191528316145b92915050565b600154600160a060020a031633146102f75760405160e560020a62461bcd02815260206004820152601060248201527f52654e46543a3a6e6f742061646d696e0000000000000000000000000000000060448201526064015b60405180910390fd5b6004805460ff1916911515919091179055565b60045460ff16156103605760405160e560020a62461bcd02815260206004820152600d60248201527f52654e46543a3a7061757365640000000000000000000000000000000000000060448201526064016102ee565b61037a6104c561037589898989898989610a00565b610ac8565b50505050505050565b600154600160a060020a031633146103e05760405160e560020a62461bcd02815260206004820152601060248201527f52654e46543a3a6e6f742061646d696e0000000000000000000000000000000060448201526064016102ee565b6002805473ffffffffffffffffffffffffffffffffffffffff1916600160a060020a0392909216919091179055565b600154600160a060020a0316331461046c5760405160e560020a62461bcd02815260206004820152601060248201527f52654e46543a3a6e6f742061646d696e0000000000000000000000000000000060448201526064016102ee565b61271081106104c05760405160e560020a62461bcd02815260206004820152601960248201527f52654e46543a3a6665652065786365656473203130307063740000000000000060448201526064016102ee565b600555565b6104ce81610ad9565b805160208083015160035460408051600160a060020a039586166c01000000000000000000000000028186015260348101939093526054808401929092528051808403909201825260748301808252825192850192909220600090815260069094529283902061013483019093528254938416815260ff7401000000000000000000000000000000000000000085048116609484015260008051602061172b8339815191527c0100000000000000000000000000000000000000000000000000000000750100000000000000000000000000000000000000000087048102821660b48601527901000000000000000000000000000000000000000000000000008704021660d48401527d0100000000000000000000000000000000000000000000000000000000008504811660f484015292936106579391928592610114909101917e01000000000000000000000000000000000000000000000000000000000000900416801561064157610641611614565b801561064f5761064f611614565b905250610d3a565b604080516060810182526001830154600160a060020a038116825274010000000000000000000000000000000000000000810460ff1660208301527501000000000000000000000000000000000000000000900463ffffffff16918101919091526106c190610e67565b60006106d08360000151610f25565b90506040518060c0016040528033600160a060020a03168152602001846060015160ff16815260200184608001517bffffffffffffffffffffffffffffffffffffffffffffffffffffffff191681526020018460a001517bffffffffffffffffffffffffffffffffffffffffffffffffffffffff191681526020018261075a57846040015161075d565b60015b60ff168152602001846101000151600081111561077c5761077c611614565b9052805183546020830151604084015160608501516080860151600160a060020a0390951674ffffffffffffffffffffffffffffffffffffffffff19909416939093177401000000000000000000000000000000000000000060ff93841602177fffffff0000000000000000ffffffffffffffffffffffffffffffffffffffffff1675010000000000000000000000000000000000000000007c010000000000000000000000000000000000000000000000000000000092839004027fffffff00000000ffffffffffffffffffffffffffffffffffffffffffffffffff16177901000000000000000000000000000000000000000000000000009190930402919091177fffff00ffffffffffffffffffffffffffffffffffffffffffffffffffffffffff81167d0100000000000000000000000000000000000000000000000000000000009290931691909102918217855560a08301518592909183917fff0000ffffffffffffffffffffffffffffffffffffffffffffffffffffffffff9091167fff00ffffffffffffffffffffffffffffffffffffffffffffffffffffffffffff909116177e0100000000000000000000000000000000000000000000000000000000000083801561095157610951611614565b0217905550505060208301518351339190600160a060020a03167fc1b2f77226541f6b308379a3110d77af45464d9a161a6eb4b6cfdcd0fb2089c68461099b57866040015161099e565b60015b600354606089015160808a015160a08b01516101008c01516040516109c99695949392918c91611643565b60405180910390a4600380549060006109e1836116cb565b91905055506109fb83333086602001518760400151610fca565b505050565b610a4d6040805161012081018252600080825260208201819052918101829052606081018290526080810182905260a0810182905260c0810182905260e081018290529061010082015290565b6040805161012081018252600160a060020a038a1681526020810189905290810187905260ff8616606082015260008051602061172b8339815191528086166080830152841660a0820152600060c0820181905260e08201526101008101838015610aba57610aba611614565b905298975050505050505050565b610ad5818363ffffffff16565b5050565b6000816040015111610b305760405160e560020a62461bcd02815260206004820152601a60248201527f52654e46543a3a6c656e6420616d6f756e74206973207a65726f00000000000060448201526064016102ee565b604081015160ff1015610b885760405160e560020a62461bcd02815260206004820152601060248201527f52654e46543a3a6e6f742075696e74380000000000000000000000000000000060448201526064016102ee565b6000816060015160ff1611610be25760405160e560020a62461bcd02815260206004820152601760248201527f52654e46543a3a6475726174696f6e206973207a65726f00000000000000000060448201526064016102ee565b606081015160ff9081161115610c3d5760405160e560020a62461bcd02815260206004820152601060248201527f52654e46543a3a6e6f742075696e74380000000000000000000000000000000060448201526064016102ee565b600081608001517c0100000000000000000000000000000000000000000000000000000000900463ffffffff1611610cba5760405160e560020a62461bcd02815260206004820152601960248201527f52654e46543a3a72656e74207072696365206973207a65726f0000000000000060448201526064016102ee565b60008160a001517c0100000000000000000000000000000000000000000000000000000000900463ffffffff1611610d375760405160e560020a62461bcd02815260206004820152601860248201527f52654e46543a3a6e6674207072696365206973207a65726f000000000000000060448201526064016102ee565b50565b8051610d459061113b565b602081015160ff1615610d9d5760405160e560020a62461bcd02815260206004820152601860248201527f52654e46543a3a6475726174696f6e206e6f74207a65726f000000000000000060448201526064016102ee565b604081015160008051602061172b8339815191521615610e025760405160e560020a62461bcd02815260206004820152601a60248201527f52654e46543a3a72656e74207072696365206e6f74207a65726f00000000000060448201526064016102ee565b606081015160008051602061172b8339815191521615610d375760405160e560020a62461bcd02815260206004820152601960248201527f52654e46543a3a6e6674207072696365206e6f74207a65726f0000000000000060448201526064016102ee565b8051610e729061113b565b602081015160ff1615610eca5760405160e560020a62461bcd02815260206004820152601860248201527f52654e46543a3a6475726174696f6e206e6f74207a65726f000000000000000060448201526064016102ee565b604081015163ffffffff1615610d375760405160e560020a62461bcd02815260206004820152601960248201527f52654e46543a3a72656e746564206174206e6f74207a65726f0000000000000060448201526064016102ee565b6040517f01ffc9a70000000000000000000000000000000000000000000000000000000081527f80ac58cd000000000000000000000000000000000000000000000000000000006004820152600090600160a060020a038316906301ffc9a7906024015b602060405180830381865afa158015610fa6573d6000803e3d6000fd5b505050506040513d601f19601f8201168201806040525081019061028f919061170d565b8451610fd590610f25565b1561106b57845160208601516040517f23b872dd000000000000000000000000000000000000000000000000000000008152600160a060020a038781166004830152868116602483015260448201929092529116906323b872dd906064015b600060405180830381600087803b15801561104e57600080fd5b505af1158015611062573d6000803e3d6000fd5b50505050611134565b845161107690611195565b156110e95784516040517ff242432a000000000000000000000000000000000000000000000000000000008152600160a060020a0386811660048301528581166024830152604482018590526064820184905260a06084830152600060a48301529091169063f242432a9060c401611034565b60405160e560020a62461bcd02815260206004820152601d60248201527f52654e46543a3a756e737570706f7274656420746f6b656e207479706500000060448201526064016102ee565b5050505050565b600160a060020a03811615610d375760405160e560020a62461bcd02815260206004820152601960248201527f52654e46543a3a6e6f742061207a65726f20616464726573730000000000000060448201526064016102ee565b6040517f01ffc9a70000000000000000000000000000000000000000000000000000000081527fd9b67a26000000000000000000000000000000000000000000000000000000006004820152600090600160a060020a038316906301ffc9a790602401610f89565b803560008051602061172b8339815191528116811461121b57600080fd5b919050565b60006020828403121561123257600080fd5b61123b826111fd565b9392505050565b600160a060020a0381168114610d3757600080fd5b7f4e487b7100000000000000000000000000000000000000000000000000000000600052604160045260246000fd5b604051601f8201601f1916810167ffffffffffffffff811182821017156112af576112af611257565b604052919050565b600082601f8301126112c857600080fd5b813567ffffffffffffffff8111156112e2576112e2611257565b6112f5601f8201601f1916602001611286565b81815284602083860101111561130a57600080fd5b816020850160208301376000918101602001919091529392505050565b6000806000806080858703121561133d57600080fd5b843561134881611242565b9350602085013561135881611242565b925060408501359150606085013567ffffffffffffffff81111561137b57600080fd5b611387878288016112b7565b91505092959194509250565b8015158114610d3757600080fd5b6000602082840312156113b357600080fd5b813561123b81611393565b600080600080600080600060e0888a0312156113d957600080fd5b87356113e481611242565b96506020880135955060408801359450606088013560ff8116811461140857600080fd5b9350611416608089016111fd565b925061142460a089016111fd565b915060c08801356001811061143857600080fd5b8091505092959891949750929550565b60006020828403121561145a57600080fd5b813561123b81611242565b60006020828403121561147757600080fd5b5035919050565b600082601f83011261148f57600080fd5b8135602067ffffffffffffffff8211156114ab576114ab611257565b8082026114b9828201611286565b92835284810182019282810190878511156114d357600080fd5b83870192505b848310156114f2578235825291830191908301906114d9565b979650505050505050565b600080600080600060a0868803121561151557600080fd5b853561152081611242565b9450602086013561153081611242565b9350604086013567ffffffffffffffff8082111561154d57600080fd5b61155989838a0161147e565b9450606088013591508082111561156f57600080fd5b61157b89838a0161147e565b9350608088013591508082111561159157600080fd5b5061159e888289016112b7565b9150509295509295909350565b600080600080600060a086880312156115c357600080fd5b85356115ce81611242565b945060208601356115de81611242565b93506040860135925060608601359150608086013567ffffffffffffffff81111561160857600080fd5b61159e888289016112b7565b7f4e487b7100000000000000000000000000000000000000000000000000000000600052602160045260246000fd5b60ff8881168252602082018890528616604082015260008051602061172b83398151915285811660608301528416608082015282151560a082015260e08101600183106116b9577f4e487b7100000000000000000000000000000000000000000000000000000000600052602160045260246000fd5b8260c083015298975050505050505050565b6000600019821415611706577f4e487b7100000000000000000000000000000000000000000000000000000000600052601160045260246000fd5b5060010190565b60006020828403121561171f57600080fd5b815161123b8161139356feffffffff00000000000000000000000000000000000000000000000000000000a26469706673582212209482cc760cc82b2197c5783732df2575b5c157a3eaac869eef38c74d3252678a64736f6c634300080b0033",
  "immutableReferences": {},
  "source": "// SPDX-License-Identifier: MIT\r\npragma solidity ^0.8.11;\r\n\r\nimport \"@openzeppelin/contracts/token/ERC20/IERC20.sol\";\r\nimport \"@openzeppelin/contracts/token/ERC20/ERC20.sol\";\r\nimport \"@openzeppelin/contracts/token/ERC721/IERC721.sol\";\r\nimport \"@openzeppelin/contracts/token/ERC1155/IERC1155.sol\";\r\nimport \"@openzeppelin/contracts/token/ERC721/utils/ERC721Holder.sol\";\r\nimport \"@openzeppelin/contracts/token/ERC1155/utils/ERC1155Receiver.sol\";\r\nimport \"@openzeppelin/contracts/token/ERC1155/utils/ERC1155Holder.sol\";\r\n\r\nimport \"./Interface/IResolver.sol\";\r\nimport \"./Interface/IReNFT.sol\";\r\n\r\ncontract ReNFT is IReNft, ERC721Holder, ERC1155Receiver, ERC1155Holder {\r\n    using SafeERC20 for ERC20;\r\n\r\n    IResolver private resolver;\r\n    address private admin;\r\n    address payable private beneficiary;\r\n    uint256 private lendingId = 1;\r\n    bool public paused = false;\r\n\r\n    // in bps. so 1000 => 1%\r\n    uint256 public rentFee = 0;\r\n\r\n    uint256 private constant SECONDS_IN_DAY = 86400;\r\n\r\n    // single storage slot: address - 160 bits, 168, 200, 232, 240, 248\r\n    struct Lending {\r\n        address payable lenderAddress;\r\n        uint8 maxRentDuration;\r\n        bytes4 dailyRentPrice;\r\n        bytes4 nftPrice;\r\n        uint8 lentAmount;\r\n        IResolver.PaymentToken paymentToken;\r\n    }\r\n\r\n    // single storage slot: 160 bits, 168, 200\r\n    struct Renting {\r\n        address payable renterAddress;\r\n        uint8 rentDuration;\r\n        uint32 rentedAt;\r\n    }\r\n\r\n    struct LendingRenting {\r\n        Lending lending;\r\n        Renting renting;\r\n    }\r\n\r\n    mapping(bytes32 => LendingRenting) private lendingRenting;\r\n\r\n    struct CallData {\r\n        address nft;\r\n        uint256 tokenId;\r\n        uint256 lentAmount;\r\n        uint8 maxRentDuration;\r\n        bytes4 dailyRentPrice;\r\n        bytes4 nftPrice;\r\n        uint256 lendingId;\r\n        uint8 rentDuration;\r\n        IResolver.PaymentToken paymentToken;\r\n    }\r\n\r\n    modifier onlyAdmin() {\r\n        require(msg.sender == admin, \"ReNFT::not admin\");\r\n        _;\r\n    }\r\n\r\n    modifier notPaused() {\r\n        require(!paused, \"ReNFT::paused\");\r\n        _;\r\n    }\r\n\r\n    constructor(\r\n        address _resolver,\r\n        address payable _beneficiary,\r\n        address _admin\r\n    ) {\r\n        ensureIsNotZeroAddr(_resolver);\r\n        ensureIsNotZeroAddr(_beneficiary);\r\n        ensureIsNotZeroAddr(_admin);\r\n        resolver = IResolver(_resolver);\r\n        beneficiary = _beneficiary;\r\n        admin = _admin;\r\n    }\r\n\r\n    function bundleCall(function(CallData memory) _handler, CallData memory _cd)\r\n        private\r\n    {\r\n        // require(_cd.nfts.length > 0, \"ReNFT::no nfts\");\r\n        // while (_cd.right != _cd.nfts.length) {\r\n        //     if (\r\n        //         (_cd.nfts[_cd.left] == _cd.nfts[_cd.right]) &&\r\n        //         (is1155(_cd.nfts[_cd.right]))\r\n        //     ) {\r\n        //         _cd.right++;\r\n        //     } else {\r\n        //         _handler(_cd);\r\n        //         _cd.left = _cd.right;\r\n        //         _cd.right++;\r\n        //     }\r\n        // }\r\n        _handler(_cd);\r\n    }\r\n\r\n    // lend, rent, return, stop, claim\r\n    function lend(\r\n        address _nft,\r\n        uint256 _tokenId,\r\n        uint256 _lendAmount,\r\n        uint8 _maxRentDuration,\r\n        bytes4 _dailyRentPrice,\r\n        bytes4 _nftPrice,\r\n        IResolver.PaymentToken _paymentToken\r\n    ) external notPaused {\r\n        bundleCall(\r\n            handleLend,\r\n            createLendCallData(\r\n                _nft,\r\n                _tokenId,\r\n                _lendAmount,\r\n                _maxRentDuration,\r\n                _dailyRentPrice,\r\n                _nftPrice,\r\n                _paymentToken\r\n            )\r\n        );\r\n    }\r\n\r\n    // function rent(\r\n    //     address[] memory _nfts,\r\n    //     uint256[] memory _tokenIds,\r\n    //     uint256[] memory _lendingIds,\r\n    //     uint8[] memory _rentDurations\r\n    // ) external override notPaused {\r\n    //     bundleCall(\r\n    //         handleRent,\r\n    //         createRentCallData(_nfts, _tokenIds, _lendingIds, _rentDurations)\r\n    //     );\r\n    // }\r\n\r\n    // function returnIt(\r\n    //     address[] memory _nfts,\r\n    //     uint256[] memory _tokenIds,\r\n    //     uint256[] memory _lendingIds\r\n    // ) external override notPaused {\r\n    //     bundleCall(\r\n    //         handleReturn,\r\n    //         createActionCallData(_nfts, _tokenIds, _lendingIds)\r\n    //     );\r\n    // }\r\n\r\n    // function stopLending(\r\n    //     address[] memory _nfts,\r\n    //     uint256[] memory _tokenIds,\r\n    //     uint256[] memory _lendingIds\r\n    // ) external override notPaused {\r\n    //     bundleCall(\r\n    //         handleStopLending,\r\n    //         createActionCallData(_nfts, _tokenIds, _lendingIds)\r\n    //     );\r\n    // }\r\n\r\n    // function claimCollateral(\r\n    //     address[] memory _nfts,\r\n    //     uint256[] memory _tokenIds,\r\n    //     uint256[] memory _lendingIds\r\n    // ) external override notPaused {\r\n    //     bundleCall(\r\n    //         handleClaimCollateral,\r\n    //         createActionCallData(_nfts, _tokenIds, _lendingIds)\r\n    //     );\r\n    // }\r\n\r\n    //      .-.     .-.     .-.     .-.     .-.     .-.     .-.     .-.     .-.     .-.\r\n    // `._.'   `._.'   `._.'   `._.'   `._.'   `._.'   `._.'   `._.'   `._.'   `._.'   `._.'\r\n\r\n    // function takeFee(uint256 _rent, IResolver.PaymentToken _paymentToken)\r\n    //     private\r\n    //     returns (uint256 fee)\r\n    // {\r\n    //     fee = _rent * rentFee;\r\n    //     fee /= 10000;\r\n    //     uint8 paymentTokenIx = uint8(_paymentToken);\r\n    //     ensureTokenNotSentinel(paymentTokenIx);\r\n    //     ERC20 paymentToken = ERC20(resolver.getPaymentToken(paymentTokenIx));\r\n    //     paymentToken.safeTransfer(beneficiary, fee);\r\n    // }\r\n\r\n    // function distributePayments(\r\n    //     LendingRenting storage _lendingRenting,\r\n    //     uint256 _secondsSinceRentStart\r\n    // ) private {\r\n    //     uint8 paymentTokenIx = uint8(_lendingRenting.lending.paymentToken);\r\n    //     ensureTokenNotSentinel(paymentTokenIx);\r\n    //     address paymentToken = resolver.getPaymentToken(paymentTokenIx);\r\n    //     uint256 decimals = ERC20(paymentToken).decimals();\r\n\r\n    //     uint256 scale = 10**decimals;\r\n    //     uint256 nftPrice = _lendingRenting.lending.lentAmount *\r\n    //         unpackPrice(_lendingRenting.lending.nftPrice, scale);\r\n    //     uint256 rentPrice = unpackPrice(\r\n    //         _lendingRenting.lending.dailyRentPrice,\r\n    //         scale\r\n    //     );\r\n    //     uint256 totalRenterPmtWoCollateral = rentPrice *\r\n    //         _lendingRenting.renting.rentDuration;\r\n    //     uint256 sendLenderAmt = (_secondsSinceRentStart * rentPrice) /\r\n    //         SECONDS_IN_DAY;\r\n    //     require(\r\n    //         totalRenterPmtWoCollateral > 0,\r\n    //         \"ReNFT::total payment wo collateral is zero\"\r\n    //     );\r\n    //     require(sendLenderAmt > 0, \"ReNFT::lender payment is zero\");\r\n    //     uint256 sendRenterAmt = totalRenterPmtWoCollateral - sendLenderAmt;\r\n\r\n    //     uint256 takenFee = takeFee(\r\n    //         sendLenderAmt,\r\n    //         _lendingRenting.lending.paymentToken\r\n    //     );\r\n\r\n    //     sendLenderAmt -= takenFee;\r\n    //     sendRenterAmt += nftPrice;\r\n\r\n    //     ERC20(paymentToken).safeTransfer(\r\n    //         _lendingRenting.lending.lenderAddress,\r\n    //         sendLenderAmt\r\n    //     );\r\n    //     ERC20(paymentToken).safeTransfer(\r\n    //         _lendingRenting.renting.renterAddress,\r\n    //         sendRenterAmt\r\n    //     );\r\n    // }\r\n\r\n    // function distributeClaimPayment(LendingRenting memory _lendingRenting)\r\n    //     private\r\n    // {\r\n    //     uint8 paymentTokenIx = uint8(_lendingRenting.lending.paymentToken);\r\n    //     ensureTokenNotSentinel(paymentTokenIx);\r\n    //     ERC20 paymentToken = ERC20(resolver.getPaymentToken(paymentTokenIx));\r\n\r\n    //     uint256 decimals = ERC20(paymentToken).decimals();\r\n    //     uint256 scale = 10**decimals;\r\n    //     uint256 nftPrice = _lendingRenting.lending.lentAmount *\r\n    //         unpackPrice(_lendingRenting.lending.nftPrice, scale);\r\n    //     uint256 rentPrice = unpackPrice(\r\n    //         _lendingRenting.lending.dailyRentPrice,\r\n    //         scale\r\n    //     );\r\n    //     uint256 maxRentPayment = rentPrice *\r\n    //         _lendingRenting.renting.rentDuration;\r\n    //     uint256 takenFee = takeFee(\r\n    //         maxRentPayment,\r\n    //         IResolver.PaymentToken(paymentTokenIx)\r\n    //     );\r\n    //     uint256 finalAmt = maxRentPayment + nftPrice;\r\n\r\n    //     require(maxRentPayment > 0, \"ReNFT::collateral plus rent is zero\");\r\n\r\n    //     paymentToken.safeTransfer(\r\n    //         _lendingRenting.lending.lenderAddress,\r\n    //         finalAmt - takenFee\r\n    //     );\r\n    // }\r\n\r\n    function safeTransfer(\r\n        CallData memory _cd,\r\n        address _from,\r\n        address _to,\r\n        uint256 _tokenId,\r\n        uint256 _lentAmount\r\n    ) private {\r\n        if (is721(_cd.nft)) {\r\n            IERC721(_cd.nft).transferFrom(_from, _to, _cd.tokenId);\r\n        } else if (is1155(_cd.nft)) {\r\n            IERC1155(_cd.nft).safeTransferFrom(\r\n                _from,\r\n                _to,\r\n                _tokenId,\r\n                _lentAmount,\r\n                \"\"\r\n            );\r\n        } else {\r\n            revert(\"ReNFT::unsupported token type\");\r\n        }\r\n    }\r\n\r\n    //      .-.     .-.     .-.     .-.     .-.     .-.     .-.     .-.     .-.     .-.\r\n    // `._.'   `._.'   `._.'   `._.'   `._.'   `._.'   `._.'   `._.'   `._.'   `._.'   `._.'\r\n\r\n    function handleLend(CallData memory _cd) private {\r\n        ensureIsLendable(_cd);\r\n\r\n        LendingRenting storage item = lendingRenting[\r\n            keccak256(abi.encodePacked(_cd.nft, _cd.tokenId, lendingId))\r\n        ];\r\n\r\n        ensureIsNull(item.lending);\r\n        ensureIsNull(item.renting);\r\n\r\n        bool nftIs721 = is721(_cd.nft);\r\n        item.lending = Lending({\r\n            lenderAddress: payable(msg.sender),\r\n            lentAmount: nftIs721 ? 1 : uint8(_cd.lentAmount),\r\n            maxRentDuration: _cd.maxRentDuration,\r\n            dailyRentPrice: _cd.dailyRentPrice,\r\n            nftPrice: _cd.nftPrice,\r\n            paymentToken: _cd.paymentToken\r\n        });\r\n\r\n        emit Lent(\r\n            _cd.nft,\r\n            _cd.tokenId,\r\n            nftIs721 ? 1 : uint8(_cd.lentAmount),\r\n            lendingId,\r\n            msg.sender,\r\n            _cd.maxRentDuration,\r\n            _cd.dailyRentPrice,\r\n            _cd.nftPrice,\r\n            nftIs721,\r\n            _cd.paymentToken\r\n        );\r\n\r\n        lendingId++;\r\n\r\n        safeTransfer(\r\n            _cd,\r\n            msg.sender,\r\n            address(this),\r\n            _cd.tokenId,\r\n            _cd.lentAmount\r\n        );\r\n    }\r\n\r\n    // function handleRent(CallData memory _cd) private {\r\n    //     uint256[] memory lentAmounts = new uint256[](_cd.right - _cd.left);\r\n\r\n    //     for (uint256 i = _cd.left; i < _cd.right; i++) {\r\n    //         LendingRenting storage item = lendingRenting[\r\n    //             keccak256(\r\n    //                 abi.encodePacked(\r\n    //                     _cd.nfts[_cd.left],\r\n    //                     _cd.tokenIds[i],\r\n    //                     _cd.lendingIds[i]\r\n    //                 )\r\n    //             )\r\n    //         ];\r\n\r\n    //         ensureIsNotNull(item.lending);\r\n    //         ensureIsNull(item.renting);\r\n    //         ensureIsRentable(item.lending, _cd, i, msg.sender);\r\n\r\n    //         uint8 paymentTokenIx = uint8(item.lending.paymentToken);\r\n    //         ensureTokenNotSentinel(paymentTokenIx);\r\n    //         address paymentToken = resolver.getPaymentToken(paymentTokenIx);\r\n    //         uint256 decimals = ERC20(paymentToken).decimals();\r\n\r\n    //         {\r\n    //             uint256 scale = 10**decimals;\r\n    //             uint256 rentPrice = _cd.rentDurations[i] *\r\n    //                 unpackPrice(item.lending.dailyRentPrice, scale);\r\n    //             uint256 nftPrice = item.lending.lentAmount *\r\n    //                 unpackPrice(item.lending.nftPrice, scale);\r\n\r\n    //             require(rentPrice > 0, \"ReNFT::rent price is zero\");\r\n    //             require(nftPrice > 0, \"ReNFT::nft price is zero\");\r\n\r\n    //             ERC20(paymentToken).safeTransferFrom(\r\n    //                 msg.sender,\r\n    //                 address(this),\r\n    //                 rentPrice + nftPrice\r\n    //             );\r\n    //         }\r\n\r\n    //         lentAmounts[i - _cd.left] = item.lending.lentAmount;\r\n\r\n    //         item.renting.renterAddress = payable(msg.sender);\r\n    //         item.renting.rentDuration = _cd.rentDurations[i];\r\n    //         item.renting.rentedAt = uint32(block.timestamp);\r\n\r\n    //         emit Rented(\r\n    //             _cd.lendingIds[i],\r\n    //             msg.sender,\r\n    //             _cd.rentDurations[i],\r\n    //             item.renting.rentedAt\r\n    //         );\r\n    //     }\r\n\r\n    //     safeTransfer(\r\n    //         _cd,\r\n    //         address(this),\r\n    //         msg.sender,\r\n    //         sliceArr(_cd.tokenIds, _cd.left, _cd.right, 0),\r\n    //         sliceArr(lentAmounts, _cd.left, _cd.right, _cd.left)\r\n    //     );\r\n    // }\r\n\r\n    // function handleReturn(CallData memory _cd) private {\r\n    //     uint256[] memory lentAmounts = new uint256[](_cd.right - _cd.left);\r\n\r\n    //     for (uint256 i = _cd.left; i < _cd.right; i++) {\r\n    //         LendingRenting storage item = lendingRenting[\r\n    //             keccak256(\r\n    //                 abi.encodePacked(\r\n    //                     _cd.nfts[_cd.left],\r\n    //                     _cd.tokenIds[i],\r\n    //                     _cd.lendingIds[i]\r\n    //                 )\r\n    //             )\r\n    //         ];\r\n\r\n    //         ensureIsNotNull(item.lending);\r\n    //         ensureIsReturnable(item.renting, msg.sender, block.timestamp);\r\n\r\n    //         uint256 secondsSinceRentStart = block.timestamp -\r\n    //             item.renting.rentedAt;\r\n    //         distributePayments(item, secondsSinceRentStart);\r\n\r\n    //         lentAmounts[i - _cd.left] = item.lending.lentAmount;\r\n\r\n    //         emit Returned(_cd.lendingIds[i], uint32(block.timestamp));\r\n\r\n    //         delete item.renting;\r\n    //     }\r\n\r\n    //     safeTransfer(\r\n    //         _cd,\r\n    //         msg.sender,\r\n    //         address(this),\r\n    //         sliceArr(_cd.tokenIds, _cd.left, _cd.right, 0),\r\n    //         sliceArr(lentAmounts, _cd.left, _cd.right, _cd.left)\r\n    //     );\r\n    // }\r\n\r\n    // function handleStopLending(CallData memory _cd) private {\r\n    //     uint256[] memory lentAmounts = new uint256[](_cd.right - _cd.left);\r\n\r\n    //     for (uint256 i = _cd.left; i < _cd.right; i++) {\r\n    //         LendingRenting storage item = lendingRenting[\r\n    //             keccak256(\r\n    //                 abi.encodePacked(\r\n    //                     _cd.nfts[_cd.left],\r\n    //                     _cd.tokenIds[i],\r\n    //                     _cd.lendingIds[i]\r\n    //                 )\r\n    //             )\r\n    //         ];\r\n\r\n    //         ensureIsNotNull(item.lending);\r\n    //         ensureIsNull(item.renting);\r\n    //         ensureIsStoppable(item.lending, msg.sender);\r\n\r\n    //         lentAmounts[i - _cd.left] = item.lending.lentAmount;\r\n\r\n    //         emit LendingStopped(_cd.lendingIds[i], uint32(block.timestamp));\r\n\r\n    //         delete item.lending;\r\n    //     }\r\n\r\n    //     safeTransfer(\r\n    //         _cd,\r\n    //         address(this),\r\n    //         msg.sender,\r\n    //         sliceArr(_cd.tokenIds, _cd.left, _cd.right, 0),\r\n    //         sliceArr(lentAmounts, _cd.left, _cd.right, _cd.left)\r\n    //     );\r\n    // }\r\n\r\n    // function handleClaimCollateral(CallData memory _cd) private {\r\n    //     for (uint256 i = _cd.left; i < _cd.right; i++) {\r\n    //         LendingRenting storage item = lendingRenting[\r\n    //             keccak256(\r\n    //                 abi.encodePacked(\r\n    //                     _cd.nfts[_cd.left],\r\n    //                     _cd.tokenIds[i],\r\n    //                     _cd.lendingIds[i]\r\n    //                 )\r\n    //             )\r\n    //         ];\r\n\r\n    //         ensureIsNotNull(item.lending);\r\n    //         ensureIsNotNull(item.renting);\r\n    //         ensureIsClaimable(item.renting, block.timestamp);\r\n\r\n    //         distributeClaimPayment(item);\r\n\r\n    //         emit CollateralClaimed(_cd.lendingIds[i], uint32(block.timestamp));\r\n\r\n    //         delete item.lending;\r\n    //         delete item.renting;\r\n    //     }\r\n    // }\r\n\r\n    //      .-.     .-.     .-.     .-.     .-.     .-.     .-.     .-.     .-.     .-.\r\n    // `._.'   `._.'   `._.'   `._.'   `._.'   `._.'   `._.'   `._.'   `._.'   `._.'   `._.'\r\n\r\n    function is721(address _nft) private view returns (bool) {\r\n        return IERC165(_nft).supportsInterface(type(IERC721).interfaceId);\r\n    }\r\n\r\n    function is1155(address _nft) private view returns (bool) {\r\n        return IERC165(_nft).supportsInterface(type(IERC1155).interfaceId);\r\n    }\r\n\r\n    //      .-.     .-.     .-.     .-.     .-.     .-.     .-.     .-.     .-.     .-.\r\n    // `._.'   `._.'   `._.'   `._.'   `._.'   `._.'   `._.'   `._.'   `._.'   `._.'   `._.'\r\n\r\n    function createLendCallData(\r\n        address _nft,\r\n        uint256 _tokenId,\r\n        uint256 _lendAmount,\r\n        uint8 _maxRentDuration,\r\n        bytes4 _dailyRentPrice,\r\n        bytes4 _nftPrice,\r\n        IResolver.PaymentToken _paymentToken\r\n    ) private pure returns (CallData memory cd) {\r\n        return\r\n            CallData({\r\n                nft: _nft,\r\n                tokenId: _tokenId,\r\n                lentAmount: _lendAmount,\r\n                lendingId: 0,\r\n                rentDuration: 0,\r\n                maxRentDuration: _maxRentDuration,\r\n                dailyRentPrice: _dailyRentPrice,\r\n                nftPrice: _nftPrice,\r\n                paymentToken: _paymentToken\r\n            });\r\n    }\r\n\r\n    // function createRentCallData(\r\n    //     address[] memory _nfts,\r\n    //     uint256[] memory _tokenIds,\r\n    //     uint256[] memory _lendingIds,\r\n    //     uint8[] memory _rentDurations\r\n    // ) private pure returns (CallData memory cd) {\r\n    //     return\r\n    //         CallData({\r\n    //             left: 0,\r\n    //             right: 1,\r\n    //             nfts: _nfts,\r\n    //             tokenIds: _tokenIds,\r\n    //             lentAmounts: new uint256[](0),\r\n    //             lendingIds: _lendingIds,\r\n    //             rentDurations: _rentDurations,\r\n    //             maxRentDurations: new uint8[](0),\r\n    //             dailyRentPrices: new bytes4[](0),\r\n    //             nftPrices: new bytes4[](0),\r\n    //             paymentTokens: new IResolver.PaymentToken[](0)\r\n    //         });\r\n    // }\r\n\r\n    // function createActionCallData(\r\n    //     address[] memory _nfts,\r\n    //     uint256[] memory _tokenIds,\r\n    //     uint256[] memory _lendingIds\r\n    // ) private pure returns (CallData memory cd) {\r\n    //     return\r\n    //         CallData({\r\n    //             left: 0,\r\n    //             right: 1,\r\n    //             nfts: _nfts,\r\n    //             tokenIds: _tokenIds,\r\n    //             lentAmounts: new uint256[](0),\r\n    //             lendingIds: _lendingIds,\r\n    //             rentDurations: new uint8[](0),\r\n    //             maxRentDurations: new uint8[](0),\r\n    //             dailyRentPrices: new bytes4[](0),\r\n    //             nftPrices: new bytes4[](0),\r\n    //             paymentTokens: new IResolver.PaymentToken[](0)\r\n    //         });\r\n    // }\r\n\r\n    // function unpackPrice(bytes4 _price, uint256 _scale)\r\n    //     private\r\n    //     pure\r\n    //     returns (uint256)\r\n    // {\r\n    //     ensureIsUnpackablePrice(_price, _scale);\r\n\r\n    //     uint16 whole = uint16(bytes2(_price));\r\n    //     uint16 decimal = uint16(bytes2(_price << 16));\r\n    //     uint256 decimalScale = _scale / 10000;\r\n\r\n    //     if (whole > 9999) {\r\n    //         whole = 9999;\r\n    //     }\r\n    //     if (decimal > 9999) {\r\n    //         decimal = 9999;\r\n    //     }\r\n\r\n    //     uint256 w = whole * _scale;\r\n    //     uint256 d = decimal * decimalScale;\r\n    //     uint256 price = w + d;\r\n\r\n    //     return price;\r\n    // }\r\n\r\n    // function sliceArr(\r\n    //     uint256[] memory _arr,\r\n    //     uint256 _fromIx,\r\n    //     uint256 _toIx,\r\n    //     uint256 _arrOffset\r\n    // ) private pure returns (uint256[] memory r) {\r\n    //     r = new uint256[](_toIx - _fromIx);\r\n    //     for (uint256 i = _fromIx; i < _toIx; i++) {\r\n    //         r[i - _fromIx] = _arr[i - _arrOffset];\r\n    //     }\r\n    // }\r\n\r\n    //      .-.     .-.     .-.     .-.     .-.     .-.     .-.     .-.     .-.     .-.\r\n    // `._.'   `._.'   `._.'   `._.'   `._.'   `._.'   `._.'   `._.'   `._.'   `._.'   `._.'\r\n\r\n    function ensureIsNotZeroAddr(address _addr) private pure {\r\n        require(_addr != address(0), \"ReNFT::zero address\");\r\n    }\r\n\r\n    function ensureIsZeroAddr(address _addr) private pure {\r\n        require(_addr == address(0), \"ReNFT::not a zero address\");\r\n    }\r\n\r\n    function ensureIsNull(Lending memory _lending) private pure {\r\n        ensureIsZeroAddr(_lending.lenderAddress);\r\n        require(_lending.maxRentDuration == 0, \"ReNFT::duration not zero\");\r\n        require(_lending.dailyRentPrice == 0, \"ReNFT::rent price not zero\");\r\n        require(_lending.nftPrice == 0, \"ReNFT::nft price not zero\");\r\n    }\r\n\r\n    function ensureIsNotNull(Lending memory _lending) private pure {\r\n        ensureIsNotZeroAddr(_lending.lenderAddress);\r\n        require(_lending.maxRentDuration != 0, \"ReNFT::duration zero\");\r\n        require(_lending.dailyRentPrice != 0, \"ReNFT::rent price is zero\");\r\n        require(_lending.nftPrice != 0, \"ReNFT::nft price is zero\");\r\n    }\r\n\r\n    function ensureIsNull(Renting memory _renting) private pure {\r\n        ensureIsZeroAddr(_renting.renterAddress);\r\n        require(_renting.rentDuration == 0, \"ReNFT::duration not zero\");\r\n        require(_renting.rentedAt == 0, \"ReNFT::rented at not zero\");\r\n    }\r\n\r\n    function ensureIsNotNull(Renting memory _renting) private pure {\r\n        ensureIsNotZeroAddr(_renting.renterAddress);\r\n        require(_renting.rentDuration != 0, \"ReNFT::duration is zero\");\r\n        require(_renting.rentedAt != 0, \"ReNFT::rented at is zero\");\r\n    }\r\n\r\n    function ensureIsLendable(CallData memory _cd) private pure {\r\n        require(_cd.lentAmount > 0, \"ReNFT::lend amount is zero\");\r\n        require(_cd.lentAmount <= type(uint8).max, \"ReNFT::not uint8\");\r\n        require(_cd.maxRentDuration > 0, \"ReNFT::duration is zero\");\r\n        require(_cd.maxRentDuration <= type(uint8).max, \"ReNFT::not uint8\");\r\n        require(uint32(_cd.dailyRentPrice) > 0, \"ReNFT::rent price is zero\");\r\n        require(uint32(_cd.nftPrice) > 0, \"ReNFT::nft price is zero\");\r\n    }\r\n\r\n    // function ensureIsRentable(\r\n    //     Lending memory _lending,\r\n    //     CallData memory _cd,\r\n    //     address _msgSender\r\n    // ) private pure {\r\n    //     require(\r\n    //         _msgSender != _lending.lenderAddress,\r\n    //         \"ReNFT::cant rent own nft\"\r\n    //     );\r\n    //     require(_cd.rentDuration <= type(uint8).max, \"ReNFT::not uint8\");\r\n    //     require(_cd.rentDuration > 0, \"ReNFT::duration is zero\");\r\n    //     require(\r\n    //         _cd.rentDuration <= _lending.maxRentDuration,\r\n    //         \"ReNFT::rent duration exceeds allowed max\"\r\n    //     );\r\n    // }\r\n\r\n    // function ensureIsReturnable(\r\n    //     Renting memory _renting,\r\n    //     address _msgSender,\r\n    //     uint256 _blockTimestamp\r\n    // ) private pure {\r\n    //     require(_renting.renterAddress == _msgSender, \"ReNFT::not renter\");\r\n    //     require(\r\n    //         !isPastReturnDate(_renting, _blockTimestamp),\r\n    //         \"ReNFT::past return date\"\r\n    //     );\r\n    // }\r\n\r\n    // function ensureIsStoppable(Lending memory _lending, address _msgSender)\r\n    //     private\r\n    //     pure\r\n    // {\r\n    //     require(_lending.lenderAddress == _msgSender, \"ReNFT::not lender\");\r\n    // }\r\n\r\n    // function ensureIsClaimable(Renting memory _renting, uint256 _blockTimestamp)\r\n    //     private\r\n    //     pure\r\n    // {\r\n    //     require(\r\n    //         isPastReturnDate(_renting, _blockTimestamp),\r\n    //         \"ReNFT::return date not passed\"\r\n    //     );\r\n    // }\r\n\r\n    // function ensureIsUnpackablePrice(bytes4 _price, uint256 _scale)\r\n    //     private\r\n    //     pure\r\n    // {\r\n    //     require(uint32(_price) > 0, \"ReNFT::invalid price\");\r\n    //     require(_scale >= 10000, \"ReNFT::invalid scale\");\r\n    // }\r\n\r\n    // function ensureTokenNotSentinel(uint8 _paymentIx) private pure {\r\n    //     require(_paymentIx > 0, \"ReNFT::token is sentinel\");\r\n    // }\r\n\r\n    // function isPastReturnDate(Renting memory _renting, uint256 _now)\r\n    //     private\r\n    //     pure\r\n    //     returns (bool)\r\n    // {\r\n    //     require(_now > _renting.rentedAt, \"ReNFT::now before rented\");\r\n    //     return\r\n    //         _now - _renting.rentedAt > _renting.rentDuration * SECONDS_IN_DAY;\r\n    // }\r\n\r\n    //      .-.     .-.     .-.     .-.     .-.     .-.     .-.     .-.     .-.     .-.\r\n    // `._.'   `._.'   `._.'   `._.'   `._.'   `._.'   `._.'   `._.'   `._.'   `._.'   `._.'\r\n\r\n    function setRentFee(uint256 _rentFee) external onlyAdmin {\r\n        require(_rentFee < 10000, \"ReNFT::fee exceeds 100pct\");\r\n        rentFee = _rentFee;\r\n    }\r\n\r\n    function setBeneficiary(address payable _newBeneficiary)\r\n        external\r\n        onlyAdmin\r\n    {\r\n        beneficiary = _newBeneficiary;\r\n    }\r\n\r\n    function setPaused(bool _paused) external onlyAdmin {\r\n        paused = _paused;\r\n    }\r\n}\r\n",
  "sourcePath": "C:\\Github\\rent-NFT\\contracts\\ReNFT.sol",
  "compiler": {
    "name": "solc",
    "version": "0.8.11+commit.d7f03943.Emscripten.clang"
  },
  "schemaVersion": "3.4.11",
  "updatedAt": "2022-12-17T04:10:20.396Z",
  "networkType": "ethereum",
  "devdoc": {
    "kind": "dev",
    "methods": {
      "onERC721Received(address,address,uint256,bytes)": {
        "details": "See {IERC721Receiver-onERC721Received}. Always returns `IERC721Receiver.onERC721Received.selector`."
      },
      "supportsInterface(bytes4)": {
        "details": "See {IERC165-supportsInterface}."
      }
    },
    "version": 1
  },
  "userdoc": {
    "kind": "user",
    "methods": {},
    "version": 1
  }
}