{
  "contractName": "ReNFT",
  "abi": [
    {
      "inputs": [
        {
          "internalType": "address",
          "name": "_resolver",
          "type": "address"
        },
        {
          "internalType": "address payable",
          "name": "_beneficiary",
          "type": "address"
        },
        {
          "internalType": "address",
          "name": "_admin",
          "type": "address"
        }
      ],
      "stateMutability": "nonpayable",
      "type": "constructor"
    },
    {
      "anonymous": false,
      "inputs": [
        {
          "indexed": true,
          "internalType": "uint256",
          "name": "lendingId",
          "type": "uint256"
        },
        {
          "indexed": false,
          "internalType": "uint32",
          "name": "claimedAt",
          "type": "uint32"
        }
      ],
      "name": "CollateralClaimed",
      "type": "event"
    },
    {
      "anonymous": false,
      "inputs": [
        {
          "indexed": true,
          "internalType": "uint256",
          "name": "lendingId",
          "type": "uint256"
        },
        {
          "indexed": false,
          "internalType": "uint32",
          "name": "stoppedAt",
          "type": "uint32"
        }
      ],
      "name": "LendingStopped",
      "type": "event"
    },
    {
      "anonymous": false,
      "inputs": [
        {
          "indexed": true,
          "internalType": "address",
          "name": "nftAddress",
          "type": "address"
        },
        {
          "indexed": true,
          "internalType": "uint256",
          "name": "tokenId",
          "type": "uint256"
        },
        {
          "indexed": false,
          "internalType": "uint8",
          "name": "lentAmount",
          "type": "uint8"
        },
        {
          "indexed": false,
          "internalType": "uint256",
          "name": "lendingId",
          "type": "uint256"
        },
        {
          "indexed": true,
          "internalType": "address",
          "name": "lenderAddress",
          "type": "address"
        },
        {
          "indexed": false,
          "internalType": "uint8",
          "name": "maxRentDuration",
          "type": "uint8"
        },
        {
          "indexed": false,
          "internalType": "bytes4",
          "name": "dailyRentPrice",
          "type": "bytes4"
        },
        {
          "indexed": false,
          "internalType": "bytes4",
          "name": "nftPrice",
          "type": "bytes4"
        },
        {
          "indexed": false,
          "internalType": "bool",
          "name": "isERC721",
          "type": "bool"
        },
        {
          "indexed": false,
          "internalType": "enum IResolver.PaymentToken",
          "name": "paymentToken",
          "type": "uint8"
        }
      ],
      "name": "Lent",
      "type": "event"
    },
    {
      "anonymous": false,
      "inputs": [
        {
          "indexed": false,
          "internalType": "uint256",
          "name": "lendingId",
          "type": "uint256"
        },
        {
          "indexed": true,
          "internalType": "address",
          "name": "renterAddress",
          "type": "address"
        },
        {
          "indexed": false,
          "internalType": "uint8",
          "name": "rentDuration",
          "type": "uint8"
        },
        {
          "indexed": false,
          "internalType": "uint32",
          "name": "rentedAt",
          "type": "uint32"
        }
      ],
      "name": "Rented",
      "type": "event"
    },
    {
      "anonymous": false,
      "inputs": [
        {
          "indexed": true,
          "internalType": "uint256",
          "name": "lendingId",
          "type": "uint256"
        },
        {
          "indexed": false,
          "internalType": "uint32",
          "name": "returnedAt",
          "type": "uint32"
        }
      ],
      "name": "Returned",
      "type": "event"
    },
    {
      "inputs": [
        {
          "internalType": "address",
          "name": "",
          "type": "address"
        },
        {
          "internalType": "address",
          "name": "",
          "type": "address"
        },
        {
          "internalType": "uint256[]",
          "name": "",
          "type": "uint256[]"
        },
        {
          "internalType": "uint256[]",
          "name": "",
          "type": "uint256[]"
        },
        {
          "internalType": "bytes",
          "name": "",
          "type": "bytes"
        }
      ],
      "name": "onERC1155BatchReceived",
      "outputs": [
        {
          "internalType": "bytes4",
          "name": "",
          "type": "bytes4"
        }
      ],
      "stateMutability": "nonpayable",
      "type": "function"
    },
    {
      "inputs": [
        {
          "internalType": "address",
          "name": "",
          "type": "address"
        },
        {
          "internalType": "address",
          "name": "",
          "type": "address"
        },
        {
          "internalType": "uint256",
          "name": "",
          "type": "uint256"
        },
        {
          "internalType": "uint256",
          "name": "",
          "type": "uint256"
        },
        {
          "internalType": "bytes",
          "name": "",
          "type": "bytes"
        }
      ],
      "name": "onERC1155Received",
      "outputs": [
        {
          "internalType": "bytes4",
          "name": "",
          "type": "bytes4"
        }
      ],
      "stateMutability": "nonpayable",
      "type": "function"
    },
    {
      "inputs": [
        {
          "internalType": "address",
          "name": "",
          "type": "address"
        },
        {
          "internalType": "address",
          "name": "",
          "type": "address"
        },
        {
          "internalType": "uint256",
          "name": "",
          "type": "uint256"
        },
        {
          "internalType": "bytes",
          "name": "",
          "type": "bytes"
        }
      ],
      "name": "onERC721Received",
      "outputs": [
        {
          "internalType": "bytes4",
          "name": "",
          "type": "bytes4"
        }
      ],
      "stateMutability": "nonpayable",
      "type": "function"
    },
    {
      "inputs": [],
      "name": "paused",
      "outputs": [
        {
          "internalType": "bool",
          "name": "",
          "type": "bool"
        }
      ],
      "stateMutability": "view",
      "type": "function",
      "constant": true
    },
    {
      "inputs": [],
      "name": "rentFee",
      "outputs": [
        {
          "internalType": "uint256",
          "name": "",
          "type": "uint256"
        }
      ],
      "stateMutability": "view",
      "type": "function",
      "constant": true
    },
    {
      "inputs": [
        {
          "internalType": "bytes4",
          "name": "interfaceId",
          "type": "bytes4"
        }
      ],
      "name": "supportsInterface",
      "outputs": [
        {
          "internalType": "bool",
          "name": "",
          "type": "bool"
        }
      ],
      "stateMutability": "view",
      "type": "function",
      "constant": true
    },
    {
      "inputs": [
        {
          "internalType": "address[]",
          "name": "_nfts",
          "type": "address[]"
        },
        {
          "internalType": "uint256[]",
          "name": "_tokenIds",
          "type": "uint256[]"
        },
        {
          "internalType": "uint256[]",
          "name": "_lendAmounts",
          "type": "uint256[]"
        },
        {
          "internalType": "uint8[]",
          "name": "_maxRentDurations",
          "type": "uint8[]"
        },
        {
          "internalType": "bytes4[]",
          "name": "_dailyRentPrices",
          "type": "bytes4[]"
        },
        {
          "internalType": "bytes4[]",
          "name": "_nftPrices",
          "type": "bytes4[]"
        },
        {
          "internalType": "enum IResolver.PaymentToken[]",
          "name": "_paymentTokens",
          "type": "uint8[]"
        }
      ],
      "name": "lend",
      "outputs": [],
      "stateMutability": "nonpayable",
      "type": "function"
    },
    {
      "inputs": [
        {
          "internalType": "address[]",
          "name": "_nfts",
          "type": "address[]"
        },
        {
          "internalType": "uint256[]",
          "name": "_tokenIds",
          "type": "uint256[]"
        },
        {
          "internalType": "uint256[]",
          "name": "_lendingIds",
          "type": "uint256[]"
        },
        {
          "internalType": "uint8[]",
          "name": "_rentDurations",
          "type": "uint8[]"
        }
      ],
      "name": "rent",
      "outputs": [],
      "stateMutability": "nonpayable",
      "type": "function"
    },
    {
      "inputs": [
        {
          "internalType": "address[]",
          "name": "_nfts",
          "type": "address[]"
        },
        {
          "internalType": "uint256[]",
          "name": "_tokenIds",
          "type": "uint256[]"
        },
        {
          "internalType": "uint256[]",
          "name": "_lendingIds",
          "type": "uint256[]"
        }
      ],
      "name": "returnIt",
      "outputs": [],
      "stateMutability": "nonpayable",
      "type": "function"
    },
    {
      "inputs": [
        {
          "internalType": "address[]",
          "name": "_nfts",
          "type": "address[]"
        },
        {
          "internalType": "uint256[]",
          "name": "_tokenIds",
          "type": "uint256[]"
        },
        {
          "internalType": "uint256[]",
          "name": "_lendingIds",
          "type": "uint256[]"
        }
      ],
      "name": "stopLending",
      "outputs": [],
      "stateMutability": "nonpayable",
      "type": "function"
    },
    {
      "inputs": [
        {
          "internalType": "address[]",
          "name": "_nfts",
          "type": "address[]"
        },
        {
          "internalType": "uint256[]",
          "name": "_tokenIds",
          "type": "uint256[]"
        },
        {
          "internalType": "uint256[]",
          "name": "_lendingIds",
          "type": "uint256[]"
        }
      ],
      "name": "claimCollateral",
      "outputs": [],
      "stateMutability": "nonpayable",
      "type": "function"
    },
    {
      "inputs": [
        {
          "internalType": "uint256",
          "name": "_rentFee",
          "type": "uint256"
        }
      ],
      "name": "setRentFee",
      "outputs": [],
      "stateMutability": "nonpayable",
      "type": "function"
    },
    {
      "inputs": [
        {
          "internalType": "address payable",
          "name": "_newBeneficiary",
          "type": "address"
        }
      ],
      "name": "setBeneficiary",
      "outputs": [],
      "stateMutability": "nonpayable",
      "type": "function"
    },
    {
      "inputs": [
        {
          "internalType": "bool",
          "name": "_paused",
          "type": "bool"
        }
      ],
      "name": "setPaused",
      "outputs": [],
      "stateMutability": "nonpayable",
      "type": "function"
    }
  ],
  "bytecode": "0x608060405260016003556000600460006101000a81548160ff02191690831515021790555060006005553480156200003657600080fd5b50604051620076203803806200762083398181016040528101906200005c91906200027f565b6200006d836200015a60201b60201c565b6200007e826200015a60201b60201c565b6200008f816200015a60201b60201c565b826000806101000a81548173ffffffffffffffffffffffffffffffffffffffff021916908373ffffffffffffffffffffffffffffffffffffffff16021790555081600260006101000a81548173ffffffffffffffffffffffffffffffffffffffff021916908373ffffffffffffffffffffffffffffffffffffffff16021790555080600160006101000a81548173ffffffffffffffffffffffffffffffffffffffff021916908373ffffffffffffffffffffffffffffffffffffffff1602179055505050506200035e565b600073ffffffffffffffffffffffffffffffffffffffff168173ffffffffffffffffffffffffffffffffffffffff161415620001cd576040517f08c379a0000000000000000000000000000000000000000000000000000000008152600401620001c4906200033c565b60405180910390fd5b50565b600080fd5b600073ffffffffffffffffffffffffffffffffffffffff82169050919050565b60006200020282620001d5565b9050919050565b6200021481620001f5565b81146200022057600080fd5b50565b600081519050620002348162000209565b92915050565b60006200024782620001d5565b9050919050565b62000259816200023a565b81146200026557600080fd5b50565b60008151905062000279816200024e565b92915050565b6000806000606084860312156200029b576200029a620001d0565b5b6000620002ab8682870162000223565b9350506020620002be8682870162000268565b9250506040620002d18682870162000223565b9150509250925092565b600082825260208201905092915050565b7f52654e46543a3a7a65726f206164647265737300000000000000000000000000600082015250565b600062000324601383620002db565b91506200033182620002ec565b602082019050919050565b60006020820190508181036000830152620003578162000315565b9050919050565b6172b2806200036e6000396000f3fe608060405234801561001057600080fd5b50600436106100ea5760003560e01c80635de07ca31161008c578063bf2b23ea11610066578063bf2b23ea14610245578063e50364b214610263578063f23a6e611461027f578063fb158519146102af576100ea565b80635de07ca3146101dd57806376774ea3146101f9578063bc197c8114610215576100ea565b806316c38b3c116100c857806316c38b3c1461016b5780631c31f7101461018757806359fe66e4146101a35780635c975abb146101bf576100ea565b806301ffc9a7146100ef578063098130df1461011f578063150b7a021461013b575b600080fd5b61010960048036038101906101049190614dbd565b6102cb565b6040516101169190614e05565b60405180910390f35b610139600480360381019061013491906150d0565b610345565b005b6101556004803603810190610150919061522c565b6103b0565b60405161016291906152be565b60405180910390f35b61018560048036038101906101809190615305565b6103c4565b005b6101a1600480360381019061019c9190615370565b610471565b005b6101bd60048036038101906101b891906150d0565b610545565b005b6101c76105b0565b6040516101d49190614e05565b60405180910390f35b6101f760048036038101906101f29190615499565b6105c3565b005b610213600480360381019061020e9190615570565b610630565b005b61022f600480360381019061022a919061559d565b61070e565b60405161023c91906152be565b60405180910390f35b61024d610723565b60405161025a919061567b565b60405180910390f35b61027d60048036038101906102789190615841565b610729565b005b610299600480360381019061029491906159a7565b61079c565b6040516102a691906152be565b60405180910390f35b6102c960048036038101906102c491906150d0565b6107b1565b005b60007f4e2312e0000000000000000000000000000000000000000000000000000000007bffffffffffffffffffffffffffffffffffffffffffffffffffffffff1916827bffffffffffffffffffffffffffffffffffffffffffffffffffffffff1916148061033e575061033d8261081c565b5b9050919050565b600460009054906101000a900460ff1615610395576040517f08c379a000000000000000000000000000000000000000000000000000000000815260040161038c90615a9b565b60405180910390fd5b6103ab6108866103a6858585610eef565b611104565b505050565b600063150b7a0260e01b9050949350505050565b600160009054906101000a900473ffffffffffffffffffffffffffffffffffffffff1673ffffffffffffffffffffffffffffffffffffffff163373ffffffffffffffffffffffffffffffffffffffff1614610454576040517f08c379a000000000000000000000000000000000000000000000000000000000815260040161044b90615b07565b60405180910390fd5b80600460006101000a81548160ff02191690831515021790555050565b600160009054906101000a900473ffffffffffffffffffffffffffffffffffffffff1673ffffffffffffffffffffffffffffffffffffffff163373ffffffffffffffffffffffffffffffffffffffff1614610501576040517f08c379a00000000000000000000000000000000000000000000000000000000081526004016104f890615b07565b60405180910390fd5b80600260006101000a81548173ffffffffffffffffffffffffffffffffffffffff021916908373ffffffffffffffffffffffffffffffffffffffff16021790555050565b600460009054906101000a900460ff1615610595576040517f08c379a000000000000000000000000000000000000000000000000000000000815260040161058c90615a9b565b60405180910390fd5b6105ab61126b6105a6858585610eef565b611104565b505050565b600460009054906101000a900460ff1681565b600460009054906101000a900460ff1615610613576040517f08c379a000000000000000000000000000000000000000000000000000000000815260040161060a90615a9b565b60405180910390fd5b61062a6119b861062586868686612337565b611104565b50505050565b600160009054906101000a900473ffffffffffffffffffffffffffffffffffffffff1673ffffffffffffffffffffffffffffffffffffffff163373ffffffffffffffffffffffffffffffffffffffff16146106c0576040517f08c379a00000000000000000000000000000000000000000000000000000000081526004016106b790615b07565b60405180910390fd5b6127108110610704576040517f08c379a00000000000000000000000000000000000000000000000000000000081526004016106fb90615b73565b60405180910390fd5b8060058190555050565b600063bc197c8160e01b905095945050505050565b60055481565b600460009054906101000a900460ff1615610779576040517f08c379a000000000000000000000000000000000000000000000000000000000815260040161077090615a9b565b60405180910390fd5b61079361250461078e89898989898989612c19565b611104565b50505050505050565b600063f23a6e6160e01b905095945050505050565b600460009054906101000a900460ff1615610801576040517f08c379a00000000000000000000000000000000000000000000000000000000081526004016107f890615a9b565b60405180910390fd5b610817612d0e610812858585610eef565b611104565b505050565b60007f01ffc9a7000000000000000000000000000000000000000000000000000000007bffffffffffffffffffffffffffffffffffffffffffffffffffffffff1916827bffffffffffffffffffffffffffffffffffffffffffffffffffffffff1916149050919050565b60008160000151826020015161089c9190615bc2565b67ffffffffffffffff8111156108b5576108b4614e36565b5b6040519080825280602002602001820160405280156108e35781602001602082028036833780820191505090505b5090506000826000015190505b8260200151811015610eae57600060066000856040015186600001518151811061091d5761091c615bf6565b5b60200260200101518660600151858151811061093c5761093b615bf6565b5b6020026020010151876101000151868151811061095c5761095b615bf6565b5b602002602001015160405160200161097693929190615c8e565b6040516020818303038152906040528051906020012081526020019081526020016000209050610b28816000016040518060c00160405290816000820160009054906101000a900473ffffffffffffffffffffffffffffffffffffffff1673ffffffffffffffffffffffffffffffffffffffff1673ffffffffffffffffffffffffffffffffffffffff1681526020016000820160149054906101000a900460ff1660ff1660ff1681526020016000820160159054906101000a900460e01b7bffffffffffffffffffffffffffffffffffffffffffffffffffffffff19167bffffffffffffffffffffffffffffffffffffffffffffffffffffffff191681526020016000820160199054906101000a900460e01b7bffffffffffffffffffffffffffffffffffffffffffffffffffffffff19167bffffffffffffffffffffffffffffffffffffffffffffffffffffffff1916815260200160008201601d9054906101000a900460ff1660ff1660ff16815260200160008201601e9054906101000a900460ff166000811115610b0d57610b0c615ccb565b5b6000811115610b1f57610b1e615ccb565b5b815250506131e5565b610bd8816001016040518060600160405290816000820160009054906101000a900473ffffffffffffffffffffffffffffffffffffffff1673ffffffffffffffffffffffffffffffffffffffff1673ffffffffffffffffffffffffffffffffffffffff1681526020016000820160149054906101000a900460ff1660ff1660ff1681526020016000820160159054906101000a900463ffffffff1663ffffffff1663ffffffff1681525050613314565b610d65816000016040518060c00160405290816000820160009054906101000a900473ffffffffffffffffffffffffffffffffffffffff1673ffffffffffffffffffffffffffffffffffffffff1673ffffffffffffffffffffffffffffffffffffffff1681526020016000820160149054906101000a900460ff1660ff1660ff1681526020016000820160159054906101000a900460e01b7bffffffffffffffffffffffffffffffffffffffffffffffffffffffff19167bffffffffffffffffffffffffffffffffffffffffffffffffffffffff191681526020016000820160199054906101000a900460e01b7bffffffffffffffffffffffffffffffffffffffffffffffffffffffff19167bffffffffffffffffffffffffffffffffffffffffffffffffffffffff1916815260200160008201601d9054906101000a900460ff1660ff1660ff16815260200160008201601e9054906101000a900460ff166000811115610d4957610d48615ccb565b5b6000811115610d5b57610d5a615ccb565b5b81525050336133bb565b80600001600001601d9054906101000a900460ff1660ff1683856000015184610d8e9190615bc2565b81518110610d9f57610d9e615bf6565b5b6020026020010181815250508361010001518281518110610dc357610dc2615bf6565b5b60200260200101517f61bcecd87c002ae006d9d8c760291b4f3646fa6109590b4b3ea93084aae4bb6a42604051610dfa9190615d19565b60405180910390a280600001600080820160006101000a81549073ffffffffffffffffffffffffffffffffffffffff02191690556000820160146101000a81549060ff02191690556000820160156101000a81549063ffffffff02191690556000820160196101000a81549063ffffffff021916905560008201601d6101000a81549060ff021916905560008201601e6101000a81549060ff02191690555050508080610ea690615d34565b9150506108f0565b50610eeb823033610ece8660600151876000015188602001516000613431565b610ee686886000015189602001518a60000151613431565b613503565b5050565b610ef7614cf7565b6040518061016001604052806000815260200160018152602001858152602001848152602001600067ffffffffffffffff811115610f3857610f37614e36565b5b604051908082528060200260200182016040528015610f665781602001602082028036833780820191505090505b508152602001600067ffffffffffffffff811115610f8757610f86614e36565b5b604051908082528060200260200182016040528015610fb55781602001602082028036833780820191505090505b508152602001600067ffffffffffffffff811115610fd657610fd5614e36565b5b6040519080825280602002602001820160405280156110045781602001602082028036833780820191505090505b508152602001600067ffffffffffffffff81111561102557611024614e36565b5b6040519080825280602002602001820160405280156110535781602001602082028036833780820191505090505b508152602001838152602001600067ffffffffffffffff81111561107a57611079614e36565b5b6040519080825280602002602001820160405280156110a85781602001602082028036833780820191505090505b508152602001600067ffffffffffffffff8111156110c9576110c8614e36565b5b6040519080825280602002602001820160405280156110f75781602001602082028036833780820191505090505b5081525090509392505050565b60008160400151511161114c576040517f08c379a000000000000000000000000000000000000000000000000000000000815260040161114390615dc9565b60405180910390fd5b5b80604001515181602001511461125a57806040015181602001518151811061117857611177615bf6565b5b602002602001015173ffffffffffffffffffffffffffffffffffffffff1681604001518260000151815181106111b1576111b0615bf6565b5b602002602001015173ffffffffffffffffffffffffffffffffffffffff16148015611203575061120281604001518260200151815181106111f5576111f4615bf6565b5b60200260200101516136f6565b5b156112235780602001805180919061121a90615d34565b81525050611255565b611230818363ffffffff16565b806020015181600001818152505080602001805180919061125090615d34565b815250505b61114d565b611267818363ffffffff16565b5050565b6000816000015190505b81602001518110156119b45760006006600084604001518560000151815181106112a2576112a1615bf6565b5b6020026020010151856060015185815181106112c1576112c0615bf6565b5b602002602001015186610100015186815181106112e1576112e0615bf6565b5b60200260200101516040516020016112fb93929190615c8e565b60405160208183030381529060405280519060200120815260200190815260200160002090506114ad816000016040518060c00160405290816000820160009054906101000a900473ffffffffffffffffffffffffffffffffffffffff1673ffffffffffffffffffffffffffffffffffffffff1673ffffffffffffffffffffffffffffffffffffffff1681526020016000820160149054906101000a900460ff1660ff1660ff1681526020016000820160159054906101000a900460e01b7bffffffffffffffffffffffffffffffffffffffffffffffffffffffff19167bffffffffffffffffffffffffffffffffffffffffffffffffffffffff191681526020016000820160199054906101000a900460e01b7bffffffffffffffffffffffffffffffffffffffffffffffffffffffff19167bffffffffffffffffffffffffffffffffffffffffffffffffffffffff1916815260200160008201601d9054906101000a900460ff1660ff1660ff16815260200160008201601e9054906101000a900460ff16600081111561149257611491615ccb565b5b60008111156114a4576114a3615ccb565b5b815250506131e5565b61155d816001016040518060600160405290816000820160009054906101000a900473ffffffffffffffffffffffffffffffffffffffff1673ffffffffffffffffffffffffffffffffffffffff1673ffffffffffffffffffffffffffffffffffffffff1681526020016000820160149054906101000a900460ff1660ff1660ff1681526020016000820160159054906101000a900463ffffffff1663ffffffff1663ffffffff1681525050613799565b61160e816001016040518060600160405290816000820160009054906101000a900473ffffffffffffffffffffffffffffffffffffffff1673ffffffffffffffffffffffffffffffffffffffff1673ffffffffffffffffffffffffffffffffffffffff1681526020016000820160149054906101000a900460ff1660ff1660ff1681526020016000820160159054906101000a900463ffffffff1663ffffffff1663ffffffff168152505042613842565b61185881604051806040016040529081600082016040518060c00160405290816000820160009054906101000a900473ffffffffffffffffffffffffffffffffffffffff1673ffffffffffffffffffffffffffffffffffffffff1673ffffffffffffffffffffffffffffffffffffffff1681526020016000820160149054906101000a900460ff1660ff1660ff1681526020016000820160159054906101000a900460e01b7bffffffffffffffffffffffffffffffffffffffffffffffffffffffff19167bffffffffffffffffffffffffffffffffffffffffffffffffffffffff191681526020016000820160199054906101000a900460e01b7bffffffffffffffffffffffffffffffffffffffffffffffffffffffff19167bffffffffffffffffffffffffffffffffffffffffffffffffffffffff1916815260200160008201601d9054906101000a900460ff1660ff1660ff16815260200160008201601e9054906101000a900460ff16600081111561178c5761178b615ccb565b5b600081111561179e5761179d615ccb565b5b815250508152602001600182016040518060600160405290816000820160009054906101000a900473ffffffffffffffffffffffffffffffffffffffff1673ffffffffffffffffffffffffffffffffffffffff1673ffffffffffffffffffffffffffffffffffffffff1681526020016000820160149054906101000a900460ff1660ff1660ff1681526020016000820160159054906101000a900463ffffffff1663ffffffff1663ffffffff16815250508152505061388f565b82610100015182815181106118705761186f615bf6565b5b60200260200101517f8ac1440f996b8b13e31275705c447bd09a92005cf2ec131a8183afedc636f5a2426040516118a79190615d19565b60405180910390a280600001600080820160006101000a81549073ffffffffffffffffffffffffffffffffffffffff02191690556000820160146101000a81549060ff02191690556000820160156101000a81549063ffffffff02191690556000820160196101000a81549063ffffffff021916905560008201601d6101000a81549060ff021916905560008201601e6101000a81549060ff0219169055505080600101600080820160006101000a81549073ffffffffffffffffffffffffffffffffffffffff02191690556000820160146101000a81549060ff02191690556000820160156101000a81549063ffffffff021916905550505080806119ac90615d34565b915050611275565b5050565b6000816000015182602001516119ce9190615bc2565b67ffffffffffffffff8111156119e7576119e6614e36565b5b604051908082528060200260200182016040528015611a155781602001602082028036833780820191505090505b5090506000826000015190505b82602001518110156122f6576000600660008560400151866000015181518110611a4f57611a4e615bf6565b5b602002602001015186606001518581518110611a6e57611a6d615bf6565b5b60200260200101518761010001518681518110611a8e57611a8d615bf6565b5b6020026020010151604051602001611aa893929190615c8e565b6040516020818303038152906040528051906020012081526020019081526020016000209050611c5a816000016040518060c00160405290816000820160009054906101000a900473ffffffffffffffffffffffffffffffffffffffff1673ffffffffffffffffffffffffffffffffffffffff1673ffffffffffffffffffffffffffffffffffffffff1681526020016000820160149054906101000a900460ff1660ff1660ff1681526020016000820160159054906101000a900460e01b7bffffffffffffffffffffffffffffffffffffffffffffffffffffffff19167bffffffffffffffffffffffffffffffffffffffffffffffffffffffff191681526020016000820160199054906101000a900460e01b7bffffffffffffffffffffffffffffffffffffffffffffffffffffffff19167bffffffffffffffffffffffffffffffffffffffffffffffffffffffff1916815260200160008201601d9054906101000a900460ff1660ff1660ff16815260200160008201601e9054906101000a900460ff166000811115611c3f57611c3e615ccb565b5b6000811115611c5157611c50615ccb565b5b815250506131e5565b611d0a816001016040518060600160405290816000820160009054906101000a900473ffffffffffffffffffffffffffffffffffffffff1673ffffffffffffffffffffffffffffffffffffffff1673ffffffffffffffffffffffffffffffffffffffff1681526020016000820160149054906101000a900460ff1660ff1660ff1681526020016000820160159054906101000a900463ffffffff1663ffffffff1663ffffffff1681525050613314565b611e99816000016040518060c00160405290816000820160009054906101000a900473ffffffffffffffffffffffffffffffffffffffff1673ffffffffffffffffffffffffffffffffffffffff1673ffffffffffffffffffffffffffffffffffffffff1681526020016000820160149054906101000a900460ff1660ff1660ff1681526020016000820160159054906101000a900460e01b7bffffffffffffffffffffffffffffffffffffffffffffffffffffffff19167bffffffffffffffffffffffffffffffffffffffffffffffffffffffff191681526020016000820160199054906101000a900460e01b7bffffffffffffffffffffffffffffffffffffffffffffffffffffffff19167bffffffffffffffffffffffffffffffffffffffffffffffffffffffff1916815260200160008201601d9054906101000a900460ff1660ff1660ff16815260200160008201601e9054906101000a900460ff166000811115611e7b57611e7a615ccb565b5b6000811115611e8d57611e8c615ccb565b5b81525050858433613afa565b600081600001600001601e9054906101000a900460ff166000811115611ec257611ec1615ccb565b5b9050611ecd81613cac565b60008060009054906101000a900473ffffffffffffffffffffffffffffffffffffffff1673ffffffffffffffffffffffffffffffffffffffff1663c6ee427f836040518263ffffffff1660e01b8152600401611f299190615df8565b602060405180830381865afa158015611f46573d6000803e3d6000fd5b505050506040513d601f19601f82011682018060405250810190611f6a9190615e28565b905060008173ffffffffffffffffffffffffffffffffffffffff1663313ce5676040518163ffffffff1660e01b8152600401602060405180830381865afa158015611fb9573d6000803e3d6000fd5b505050506040513d601f19601f82011682018060405250810190611fdd9190615e6a565b60ff169050600081600a611ff19190615fca565b905060006120138660000160000160159054906101000a900460e01b83613cf5565b896101200151888151811061202b5761202a615bf6565b5b602002602001015160ff166120409190616015565b905060006120628760000160000160199054906101000a900460e01b84613cf5565b87600001600001601d9054906101000a900460ff1660ff166120849190616015565b9050600082116120c9576040517f08c379a00000000000000000000000000000000000000000000000000000000081526004016120c0906160bb565b60405180910390fd5b6000811161210c576040517f08c379a000000000000000000000000000000000000000000000000000000000815260040161210390616127565b60405180910390fd5b6121443330838561211d9190616147565b8873ffffffffffffffffffffffffffffffffffffffff16613db5909392919063ffffffff16565b50505083600001600001601d9054906101000a900460ff1660ff16868860000151876121709190615bc2565b8151811061218157612180615bf6565b5b602002602001018181525050338460010160000160006101000a81548173ffffffffffffffffffffffffffffffffffffffff021916908373ffffffffffffffffffffffffffffffffffffffff16021790555086610120015185815181106121eb576121ea615bf6565b5b60200260200101518460010160000160146101000a81548160ff021916908360ff160217905550428460010160000160156101000a81548163ffffffff021916908363ffffffff1602179055503373ffffffffffffffffffffffffffffffffffffffff167f3140d73adcc923e4a0de3b1522aeec546a872bcdc06a3e25fe1209df30b954ec886101000151878151811061228857612287615bf6565b5b602002602001015189610120015188815181106122a8576122a7615bf6565b5b60200260200101518760010160000160159054906101000a900463ffffffff166040516122d79392919061619d565b60405180910390a25050505080806122ee90615d34565b915050611a22565b506123338230336123168660600151876000015188602001516000613431565b61232e86886000015189602001518a60000151613431565b613503565b5050565b61233f614cf7565b6040518061016001604052806000815260200160018152602001868152602001858152602001600067ffffffffffffffff8111156123805761237f614e36565b5b6040519080825280602002602001820160405280156123ae5781602001602082028036833780820191505090505b508152602001600067ffffffffffffffff8111156123cf576123ce614e36565b5b6040519080825280602002602001820160405280156123fd5781602001602082028036833780820191505090505b508152602001600067ffffffffffffffff81111561241e5761241d614e36565b5b60405190808252806020026020018201604052801561244c5781602001602082028036833780820191505090505b508152602001600067ffffffffffffffff81111561246d5761246c614e36565b5b60405190808252806020026020018201604052801561249b5781602001602082028036833780820191505090505b508152602001848152602001838152602001600067ffffffffffffffff8111156124c8576124c7614e36565b5b6040519080825280602002602001820160405280156124f65781602001602082028036833780820191505090505b508152509050949350505050565b6000816000015190505b8160200151811015612bd8576125248282613e3e565b600060066000846040015185600001518151811061254557612544615bf6565b5b60200260200101518560600151858151811061256457612563615bf6565b5b602002602001015160035460405160200161258193929190615c8e565b6040516020818303038152906040528051906020012081526020019081526020016000209050612733816000016040518060c00160405290816000820160009054906101000a900473ffffffffffffffffffffffffffffffffffffffff1673ffffffffffffffffffffffffffffffffffffffff1673ffffffffffffffffffffffffffffffffffffffff1681526020016000820160149054906101000a900460ff1660ff1660ff1681526020016000820160159054906101000a900460e01b7bffffffffffffffffffffffffffffffffffffffffffffffffffffffff19167bffffffffffffffffffffffffffffffffffffffffffffffffffffffff191681526020016000820160199054906101000a900460e01b7bffffffffffffffffffffffffffffffffffffffffffffffffffffffff19167bffffffffffffffffffffffffffffffffffffffffffffffffffffffff1916815260200160008201601d9054906101000a900460ff1660ff1660ff16815260200160008201601e9054906101000a900460ff16600081111561271857612717615ccb565b5b600081111561272a57612729615ccb565b5b815250506140a6565b6127e3816001016040518060600160405290816000820160009054906101000a900473ffffffffffffffffffffffffffffffffffffffff1673ffffffffffffffffffffffffffffffffffffffff1673ffffffffffffffffffffffffffffffffffffffff1681526020016000820160149054906101000a900460ff1660ff1660ff1681526020016000820160159054906101000a900463ffffffff1663ffffffff1663ffffffff1681525050613314565b600061280c846040015184815181106127ff576127fe615bf6565b5b60200260200101516141d2565b90506040518060c001604052803373ffffffffffffffffffffffffffffffffffffffff1681526020018560a00151858151811061284c5761284b615bf6565b5b602002602001015160ff1681526020018560c00151858151811061287357612872615bf6565b5b60200260200101517bffffffffffffffffffffffffffffffffffffffffffffffffffffffff191681526020018560e0015185815181106128b6576128b5615bf6565b5b60200260200101517bffffffffffffffffffffffffffffffffffffffffffffffffffffffff191681526020018261290b57856080015185815181106128fe576128fd615bf6565b5b602002602001015161290e565b60015b60ff168152602001856101400151858151811061292e5761292d615bf6565b5b6020026020010151600081111561294857612947615ccb565b5b8152508260000160008201518160000160006101000a81548173ffffffffffffffffffffffffffffffffffffffff021916908373ffffffffffffffffffffffffffffffffffffffff16021790555060208201518160000160146101000a81548160ff021916908360ff16021790555060408201518160000160156101000a81548163ffffffff021916908360e01c021790555060608201518160000160196101000a81548163ffffffff021916908360e01c0217905550608082015181600001601d6101000a81548160ff021916908360ff16021790555060a082015181600001601e6101000a81548160ff02191690836000811115612a4b57612a4a615ccb565b5b02179055509050503373ffffffffffffffffffffffffffffffffffffffff1684606001518481518110612a8157612a80615bf6565b5b60200260200101518560400151866000015181518110612aa457612aa3615bf6565b5b602002602001015173ffffffffffffffffffffffffffffffffffffffff167fc1b2f77226541f6b308379a3110d77af45464d9a161a6eb4b6cfdcd0fb2089c684612b0c5787608001518781518110612aff57612afe615bf6565b5b6020026020010151612b0f565b60015b6003548960a001518981518110612b2957612b28615bf6565b5b60200260200101518a60c001518a81518110612b4857612b47615bf6565b5b60200260200101518b60e001518b81518110612b6757612b66615bf6565b5b6020026020010151898d61014001518d81518110612b8857612b87615bf6565b5b6020026020010151604051612ba3979695949392919061621c565b60405180910390a460036000815480929190612bbe90615d34565b919050555050508080612bd090615d34565b91505061250e565b50612c16813330612bf88560600151866000015187602001516000613431565b612c118660800151876000015188602001516000613431565b613503565b50565b612c21614cf7565b6040518061016001604052806000815260200160018152602001898152602001888152602001878152602001868152602001858152602001848152602001600067ffffffffffffffff811115612c7a57612c79614e36565b5b604051908082528060200260200182016040528015612ca85781602001602082028036833780820191505090505b508152602001600067ffffffffffffffff811115612cc957612cc8614e36565b5b604051908082528060200260200182016040528015612cf75781602001602082028036833780820191505090505b508152602001838152509050979650505050505050565b600081600001518260200151612d249190615bc2565b67ffffffffffffffff811115612d3d57612d3c614e36565b5b604051908082528060200260200182016040528015612d6b5781602001602082028036833780820191505090505b5090506000826000015190505b82602001518110156131a4576000600660008560400151866000015181518110612da557612da4615bf6565b5b602002602001015186606001518581518110612dc457612dc3615bf6565b5b60200260200101518761010001518681518110612de457612de3615bf6565b5b6020026020010151604051602001612dfe93929190615c8e565b6040516020818303038152906040528051906020012081526020019081526020016000209050612fb0816000016040518060c00160405290816000820160009054906101000a900473ffffffffffffffffffffffffffffffffffffffff1673ffffffffffffffffffffffffffffffffffffffff1673ffffffffffffffffffffffffffffffffffffffff1681526020016000820160149054906101000a900460ff1660ff1660ff1681526020016000820160159054906101000a900460e01b7bffffffffffffffffffffffffffffffffffffffffffffffffffffffff19167bffffffffffffffffffffffffffffffffffffffffffffffffffffffff191681526020016000820160199054906101000a900460e01b7bffffffffffffffffffffffffffffffffffffffffffffffffffffffff19167bffffffffffffffffffffffffffffffffffffffffffffffffffffffff1916815260200160008201601d9054906101000a900460ff1660ff1660ff16815260200160008201601e9054906101000a900460ff166000811115612f9557612f94615ccb565b5b6000811115612fa757612fa6615ccb565b5b815250506131e5565b613062816001016040518060600160405290816000820160009054906101000a900473ffffffffffffffffffffffffffffffffffffffff1673ffffffffffffffffffffffffffffffffffffffff1673ffffffffffffffffffffffffffffffffffffffff1681526020016000820160149054906101000a900460ff1660ff1660ff1681526020016000820160159054906101000a900463ffffffff1663ffffffff1663ffffffff16815250503342614275565b60008160010160000160159054906101000a900463ffffffff1663ffffffff164261308d9190615bc2565b90506130998282614336565b81600001600001601d9054906101000a900460ff1660ff16848660000151856130c29190615bc2565b815181106130d3576130d2615bf6565b5b60200260200101818152505084610100015183815181106130f7576130f6615bf6565b5b60200260200101517f289da9cb3ecd362ad5ae230d4daa346e68abbd8972cd9c01df54b7b1b97ab15b4260405161312e9190615d19565b60405180910390a281600101600080820160006101000a81549073ffffffffffffffffffffffffffffffffffffffff02191690556000820160146101000a81549060ff02191690556000820160156101000a81549063ffffffff021916905550505050808061319c90615d34565b915050612d78565b506131e18233306131c48660600151876000015188602001516000613431565b6131dc86886000015189602001518a60000151613431565b613503565b5050565b6131f281600001516146c1565b6000816020015160ff16141561323d576040517f08c379a0000000000000000000000000000000000000000000000000000000008152600401613234906162d7565b60405180910390fd5b600060e01b81604001517bffffffffffffffffffffffffffffffffffffffffffffffffffffffff191614156132a7576040517f08c379a000000000000000000000000000000000000000000000000000000000815260040161329e906160bb565b60405180910390fd5b600060e01b81606001517bffffffffffffffffffffffffffffffffffffffffffffffffffffffff19161415613311576040517f08c379a000000000000000000000000000000000000000000000000000000000815260040161330890616127565b60405180910390fd5b50565b6133218160000151614734565b6000816020015160ff161461336b576040517f08c379a000000000000000000000000000000000000000000000000000000000815260040161336290616343565b60405180910390fd5b6000816040015163ffffffff16146133b8576040517f08c379a00000000000000000000000000000000000000000000000000000000081526004016133af906163af565b60405180910390fd5b50565b8073ffffffffffffffffffffffffffffffffffffffff16826000015173ffffffffffffffffffffffffffffffffffffffff161461342d576040517f08c379a00000000000000000000000000000000000000000000000000000000081526004016134249061641b565b60405180910390fd5b5050565b6060838361343f9190615bc2565b67ffffffffffffffff81111561345857613457614e36565b5b6040519080825280602002602001820160405280156134865781602001602082028036833780820191505090505b50905060008490505b838110156134fa578583826134a49190615bc2565b815181106134b5576134b4615bf6565b5b60200260200101518286836134ca9190615bc2565b815181106134db576134da615bf6565b5b60200260200101818152505080806134f290615d34565b91505061348f565b50949350505050565b61352e856040015186600001518151811061352157613520615bf6565b5b60200260200101516141d2565b156135eb57846040015185600001518151811061354e5761354d615bf6565b5b602002602001015173ffffffffffffffffffffffffffffffffffffffff166323b872dd8585886060015189600001518151811061358e5761358d615bf6565b5b60200260200101516040518463ffffffff1660e01b81526004016135b49392919061644a565b600060405180830381600087803b1580156135ce57600080fd5b505af11580156135e2573d6000803e3d6000fd5b505050506136ef565b613616856040015186600001518151811061360957613608615bf6565b5b60200260200101516136f6565b156136b357846040015185600001518151811061363657613635615bf6565b5b602002602001015173ffffffffffffffffffffffffffffffffffffffff16632eb2c2d6858585856040518563ffffffff1660e01b815260040161367c9493929190616576565b600060405180830381600087803b15801561369657600080fd5b505af11580156136aa573d6000803e3d6000fd5b505050506136ee565b6040517f08c379a00000000000000000000000000000000000000000000000000000000081526004016136e590616628565b60405180910390fd5b5b5050505050565b60008173ffffffffffffffffffffffffffffffffffffffff166301ffc9a77fd9b67a26000000000000000000000000000000000000000000000000000000006040518263ffffffff1660e01b815260040161375191906152be565b602060405180830381865afa15801561376e573d6000803e3d6000fd5b505050506040513d601f19601f82011682018060405250810190613792919061665d565b9050919050565b6137a681600001516146c1565b6000816020015160ff1614156137f1576040517f08c379a00000000000000000000000000000000000000000000000000000000081526004016137e8906166d6565b60405180910390fd5b6000816040015163ffffffff16141561383f576040517f08c379a000000000000000000000000000000000000000000000000000000000815260040161383690616742565b60405180910390fd5b50565b61384c82826147a6565b61388b576040517f08c379a0000000000000000000000000000000000000000000000000000000008152600401613882906167ae565b60405180910390fd5b5050565b6000816000015160a0015160008111156138ac576138ab615ccb565b5b90506138b781613cac565b60008060009054906101000a900473ffffffffffffffffffffffffffffffffffffffff1673ffffffffffffffffffffffffffffffffffffffff1663c6ee427f836040518263ffffffff1660e01b81526004016139139190615df8565b602060405180830381865afa158015613930573d6000803e3d6000fd5b505050506040513d601f19601f820116820180604052508101906139549190615e28565b905060008173ffffffffffffffffffffffffffffffffffffffff1663313ce5676040518163ffffffff1660e01b8152600401602060405180830381865afa1580156139a3573d6000803e3d6000fd5b505050506040513d601f19601f820116820180604052508101906139c79190615e6a565b60ff169050600081600a6139db9190615fca565b905060006139f186600001516060015183613cf5565b86600001516080015160ff16613a079190616015565b90506000613a1d87600001516040015184613cf5565b9050600087602001516020015160ff1682613a389190616015565b90506000613a5b828960ff166000811115613a5657613a55615ccb565b5b614829565b905060008483613a6b9190616147565b905060008311613ab0576040517f08c379a0000000000000000000000000000000000000000000000000000000008152600401613aa790616840565b60405180910390fd5b613aee8a60000151600001518383613ac89190615bc2565b8a73ffffffffffffffffffffffffffffffffffffffff1661495f9092919063ffffffff16565b50505050505050505050565b836000015173ffffffffffffffffffffffffffffffffffffffff168173ffffffffffffffffffffffffffffffffffffffff161415613b6d576040517f08c379a0000000000000000000000000000000000000000000000000000000008152600401613b64906168ac565b60405180910390fd5b60ff80168361012001518381518110613b8957613b88615bf6565b5b602002602001015160ff161115613bd5576040517f08c379a0000000000000000000000000000000000000000000000000000000008152600401613bcc90616918565b60405180910390fd5b60008361012001518381518110613bef57613bee615bf6565b5b602002602001015160ff1611613c3a576040517f08c379a0000000000000000000000000000000000000000000000000000000008152600401613c31906166d6565b60405180910390fd5b836020015160ff168361012001518381518110613c5a57613c59615bf6565b5b602002602001015160ff161115613ca6576040517f08c379a0000000000000000000000000000000000000000000000000000000008152600401613c9d906169aa565b60405180910390fd5b50505050565b60008160ff1611613cf2576040517f08c379a0000000000000000000000000000000000000000000000000000000008152600401613ce990616a16565b60405180910390fd5b50565b6000613d0183836149e5565b60008360f01c905060006010857bffffffffffffffffffffffffffffffffffffffffffffffffffffffff1916901b60f01c9050600061271085613d449190616a65565b905061270f8361ffff161115613d5a5761270f92505b61270f8261ffff161115613d6e5761270f91505b6000858461ffff16613d809190616015565b90506000828461ffff16613d949190616015565b905060008183613da49190616147565b905080965050505050505092915050565b613e38846323b872dd60e01b858585604051602401613dd69392919061644a565b604051602081830303815290604052907bffffffffffffffffffffffffffffffffffffffffffffffffffffffff19166020820180517bffffffffffffffffffffffffffffffffffffffffffffffffffffffff8381831617835250505050614a7a565b50505050565b600082608001518281518110613e5757613e56615bf6565b5b602002602001015111613e9f576040517f08c379a0000000000000000000000000000000000000000000000000000000008152600401613e9690616ae2565b60405180910390fd5b60ff801682608001518281518110613eba57613eb9615bf6565b5b60200260200101511115613f03576040517f08c379a0000000000000000000000000000000000000000000000000000000008152600401613efa90616918565b60405180910390fd5b60008260a001518281518110613f1c57613f1b615bf6565b5b602002602001015160ff1611613f67576040517f08c379a0000000000000000000000000000000000000000000000000000000008152600401613f5e906166d6565b60405180910390fd5b60ff80168260a001518281518110613f8257613f81615bf6565b5b602002602001015160ff161115613fce576040517f08c379a0000000000000000000000000000000000000000000000000000000008152600401613fc590616918565b60405180910390fd5b60008260c001518281518110613fe757613fe6615bf6565b5b602002602001015160e01c63ffffffff1611614038576040517f08c379a000000000000000000000000000000000000000000000000000000000815260040161402f906160bb565b60405180910390fd5b60008260e00151828151811061405157614050615bf6565b5b602002602001015160e01c63ffffffff16116140a2576040517f08c379a000000000000000000000000000000000000000000000000000000000815260040161409990616127565b60405180910390fd5b5050565b6140b38160000151614734565b6000816020015160ff16146140fd576040517f08c379a00000000000000000000000000000000000000000000000000000000081526004016140f490616343565b60405180910390fd5b600060e01b81604001517bffffffffffffffffffffffffffffffffffffffffffffffffffffffff191614614166576040517f08c379a000000000000000000000000000000000000000000000000000000000815260040161415d90616b4e565b60405180910390fd5b600060e01b81606001517bffffffffffffffffffffffffffffffffffffffffffffffffffffffff1916146141cf576040517f08c379a00000000000000000000000000000000000000000000000000000000081526004016141c690616bba565b60405180910390fd5b50565b60008173ffffffffffffffffffffffffffffffffffffffff166301ffc9a77f80ac58cd000000000000000000000000000000000000000000000000000000006040518263ffffffff1660e01b815260040161422d91906152be565b602060405180830381865afa15801561424a573d6000803e3d6000fd5b505050506040513d601f19601f8201168201806040525081019061426e919061665d565b9050919050565b8173ffffffffffffffffffffffffffffffffffffffff16836000015173ffffffffffffffffffffffffffffffffffffffff16146142e7576040517f08c379a00000000000000000000000000000000000000000000000000000000081526004016142de90616c26565b60405180910390fd5b6142f183826147a6565b15614331576040517f08c379a000000000000000000000000000000000000000000000000000000000815260040161432890616c92565b60405180910390fd5b505050565b600082600001600001601e9054906101000a900460ff16600081111561435f5761435e615ccb565b5b905061436a81613cac565b60008060009054906101000a900473ffffffffffffffffffffffffffffffffffffffff1673ffffffffffffffffffffffffffffffffffffffff1663c6ee427f836040518263ffffffff1660e01b81526004016143c69190615df8565b602060405180830381865afa1580156143e3573d6000803e3d6000fd5b505050506040513d601f19601f820116820180604052508101906144079190615e28565b905060008173ffffffffffffffffffffffffffffffffffffffff1663313ce5676040518163ffffffff1660e01b8152600401602060405180830381865afa158015614456573d6000803e3d6000fd5b505050506040513d601f19601f8201168201806040525081019061447a9190615e6a565b60ff169050600081600a61448e9190615fca565b905060006144b08760000160000160199054906101000a900460e01b83613cf5565b87600001600001601d9054906101000a900460ff1660ff166144d29190616015565b905060006144f48860000160000160159054906101000a900460e01b84613cf5565b905060008860010160000160149054906101000a900460ff1660ff168261451b9190616015565b9050600062015180838a61452f9190616015565b6145399190616a65565b90506000821161457e576040517f08c379a000000000000000000000000000000000000000000000000000000000815260040161457590616d24565b60405180910390fd5b600081116145c1576040517f08c379a00000000000000000000000000000000000000000000000000000000081526004016145b890616d90565b60405180910390fd5b600081836145cf9190615bc2565b905060006145f1838d600001600001601e9054906101000a900460ff16614829565b905080836145ff9190615bc2565b9250858261460d9190616147565b91506146618c60000160000160009054906101000a900473ffffffffffffffffffffffffffffffffffffffff16848b73ffffffffffffffffffffffffffffffffffffffff1661495f9092919063ffffffff16565b6146b38c60010160000160009054906101000a900473ffffffffffffffffffffffffffffffffffffffff16838b73ffffffffffffffffffffffffffffffffffffffff1661495f9092919063ffffffff16565b505050505050505050505050565b600073ffffffffffffffffffffffffffffffffffffffff168173ffffffffffffffffffffffffffffffffffffffff161415614731576040517f08c379a000000000000000000000000000000000000000000000000000000000815260040161472890616dfc565b60405180910390fd5b50565b600073ffffffffffffffffffffffffffffffffffffffff168173ffffffffffffffffffffffffffffffffffffffff16146147a3576040517f08c379a000000000000000000000000000000000000000000000000000000000815260040161479a90616e68565b60405180910390fd5b50565b6000826040015163ffffffff1682116147f4576040517f08c379a00000000000000000000000000000000000000000000000000000000081526004016147eb90616ed4565b60405180910390fd5b62015180836020015160ff1661480a9190616015565b836040015163ffffffff16836148209190615bc2565b11905092915050565b6000600554836148399190616015565b9050612710816148499190616a65565b905060008260008111156148605761485f615ccb565b5b905061486b81613cac565b60008060009054906101000a900473ffffffffffffffffffffffffffffffffffffffff1673ffffffffffffffffffffffffffffffffffffffff1663c6ee427f836040518263ffffffff1660e01b81526004016148c79190615df8565b602060405180830381865afa1580156148e4573d6000803e3d6000fd5b505050506040513d601f19601f820116820180604052508101906149089190615e28565b9050614957600260009054906101000a900473ffffffffffffffffffffffffffffffffffffffff16848373ffffffffffffffffffffffffffffffffffffffff1661495f9092919063ffffffff16565b505092915050565b6149e08363a9059cbb60e01b848460405160240161497e929190616ef4565b604051602081830303815290604052907bffffffffffffffffffffffffffffffffffffffffffffffffffffffff19166020820180517bffffffffffffffffffffffffffffffffffffffffffffffffffffffff8381831617835250505050614a7a565b505050565b60008260e01c63ffffffff1611614a31576040517f08c379a0000000000000000000000000000000000000000000000000000000008152600401614a2890616f69565b60405180910390fd5b612710811015614a76576040517f08c379a0000000000000000000000000000000000000000000000000000000008152600401614a6d90616fd5565b60405180910390fd5b5050565b6000614adc826040518060400160405280602081526020017f5361666545524332303a206c6f772d6c6576656c2063616c6c206661696c65648152508573ffffffffffffffffffffffffffffffffffffffff16614b419092919063ffffffff16565b9050600081511115614b3c5780806020019051810190614afc919061665d565b614b3b576040517f08c379a0000000000000000000000000000000000000000000000000000000008152600401614b3290617067565b60405180910390fd5b5b505050565b6060614b508484600085614b59565b90509392505050565b606082471015614b9e576040517f08c379a0000000000000000000000000000000000000000000000000000000008152600401614b95906170f9565b60405180910390fd5b614ba785614c6d565b614be6576040517f08c379a0000000000000000000000000000000000000000000000000000000008152600401614bdd90617165565b60405180910390fd5b6000808673ffffffffffffffffffffffffffffffffffffffff168587604051614c0f91906171ff565b60006040518083038185875af1925050503d8060008114614c4c576040519150601f19603f3d011682016040523d82523d6000602084013e614c51565b606091505b5091509150614c61828286614c90565b92505050949350505050565b6000808273ffffffffffffffffffffffffffffffffffffffff163b119050919050565b60608315614ca057829050614cf0565b600083511115614cb35782518084602001fd5b816040517f08c379a0000000000000000000000000000000000000000000000000000000008152600401614ce7919061725a565b60405180910390fd5b9392505050565b60405180610160016040528060008152602001600081526020016060815260200160608152602001606081526020016060815260200160608152602001606081526020016060815260200160608152602001606081525090565b6000604051905090565b600080fd5b600080fd5b60007fffffffff0000000000000000000000000000000000000000000000000000000082169050919050565b614d9a81614d65565b8114614da557600080fd5b50565b600081359050614db781614d91565b92915050565b600060208284031215614dd357614dd2614d5b565b5b6000614de184828501614da8565b91505092915050565b60008115159050919050565b614dff81614dea565b82525050565b6000602082019050614e1a6000830184614df6565b92915050565b600080fd5b6000601f19601f8301169050919050565b7f4e487b7100000000000000000000000000000000000000000000000000000000600052604160045260246000fd5b614e6e82614e25565b810181811067ffffffffffffffff82111715614e8d57614e8c614e36565b5b80604052505050565b6000614ea0614d51565b9050614eac8282614e65565b919050565b600067ffffffffffffffff821115614ecc57614ecb614e36565b5b602082029050602081019050919050565b600080fd5b600073ffffffffffffffffffffffffffffffffffffffff82169050919050565b6000614f0d82614ee2565b9050919050565b614f1d81614f02565b8114614f2857600080fd5b50565b600081359050614f3a81614f14565b92915050565b6000614f53614f4e84614eb1565b614e96565b90508083825260208201905060208402830185811115614f7657614f75614edd565b5b835b81811015614f9f5780614f8b8882614f2b565b845260208401935050602081019050614f78565b5050509392505050565b600082601f830112614fbe57614fbd614e20565b5b8135614fce848260208601614f40565b91505092915050565b600067ffffffffffffffff821115614ff257614ff1614e36565b5b602082029050602081019050919050565b6000819050919050565b61501681615003565b811461502157600080fd5b50565b6000813590506150338161500d565b92915050565b600061504c61504784614fd7565b614e96565b9050808382526020820190506020840283018581111561506f5761506e614edd565b5b835b8181101561509857806150848882615024565b845260208401935050602081019050615071565b5050509392505050565b600082601f8301126150b7576150b6614e20565b5b81356150c7848260208601615039565b91505092915050565b6000806000606084860312156150e9576150e8614d5b565b5b600084013567ffffffffffffffff81111561510757615106614d60565b5b61511386828701614fa9565b935050602084013567ffffffffffffffff81111561513457615133614d60565b5b615140868287016150a2565b925050604084013567ffffffffffffffff81111561516157615160614d60565b5b61516d868287016150a2565b9150509250925092565b600080fd5b600067ffffffffffffffff82111561519757615196614e36565b5b6151a082614e25565b9050602081019050919050565b82818337600083830152505050565b60006151cf6151ca8461517c565b614e96565b9050828152602081018484840111156151eb576151ea615177565b5b6151f68482856151ad565b509392505050565b600082601f83011261521357615212614e20565b5b81356152238482602086016151bc565b91505092915050565b6000806000806080858703121561524657615245614d5b565b5b600061525487828801614f2b565b945050602061526587828801614f2b565b935050604061527687828801615024565b925050606085013567ffffffffffffffff81111561529757615296614d60565b5b6152a3878288016151fe565b91505092959194509250565b6152b881614d65565b82525050565b60006020820190506152d360008301846152af565b92915050565b6152e281614dea565b81146152ed57600080fd5b50565b6000813590506152ff816152d9565b92915050565b60006020828403121561531b5761531a614d5b565b5b6000615329848285016152f0565b91505092915050565b600061533d82614ee2565b9050919050565b61534d81615332565b811461535857600080fd5b50565b60008135905061536a81615344565b92915050565b60006020828403121561538657615385614d5b565b5b60006153948482850161535b565b91505092915050565b600067ffffffffffffffff8211156153b8576153b7614e36565b5b602082029050602081019050919050565b600060ff82169050919050565b6153df816153c9565b81146153ea57600080fd5b50565b6000813590506153fc816153d6565b92915050565b60006154156154108461539d565b614e96565b9050808382526020820190506020840283018581111561543857615437614edd565b5b835b81811015615461578061544d88826153ed565b84526020840193505060208101905061543a565b5050509392505050565b600082601f8301126154805761547f614e20565b5b8135615490848260208601615402565b91505092915050565b600080600080608085870312156154b3576154b2614d5b565b5b600085013567ffffffffffffffff8111156154d1576154d0614d60565b5b6154dd87828801614fa9565b945050602085013567ffffffffffffffff8111156154fe576154fd614d60565b5b61550a878288016150a2565b935050604085013567ffffffffffffffff81111561552b5761552a614d60565b5b615537878288016150a2565b925050606085013567ffffffffffffffff81111561555857615557614d60565b5b6155648782880161546b565b91505092959194509250565b60006020828403121561558657615585614d5b565b5b600061559484828501615024565b91505092915050565b600080600080600060a086880312156155b9576155b8614d5b565b5b60006155c788828901614f2b565b95505060206155d888828901614f2b565b945050604086013567ffffffffffffffff8111156155f9576155f8614d60565b5b615605888289016150a2565b935050606086013567ffffffffffffffff81111561562657615625614d60565b5b615632888289016150a2565b925050608086013567ffffffffffffffff81111561565357615652614d60565b5b61565f888289016151fe565b9150509295509295909350565b61567581615003565b82525050565b6000602082019050615690600083018461566c565b92915050565b600067ffffffffffffffff8211156156b1576156b0614e36565b5b602082029050602081019050919050565b60006156d56156d084615696565b614e96565b905080838252602082019050602084028301858111156156f8576156f7614edd565b5b835b81811015615721578061570d8882614da8565b8452602084019350506020810190506156fa565b5050509392505050565b600082601f8301126157405761573f614e20565b5b81356157508482602086016156c2565b91505092915050565b600067ffffffffffffffff82111561577457615773614e36565b5b602082029050602081019050919050565b6001811061579257600080fd5b50565b6000813590506157a481615785565b92915050565b60006157bd6157b884615759565b614e96565b905080838252602082019050602084028301858111156157e0576157df614edd565b5b835b8181101561580957806157f58882615795565b8452602084019350506020810190506157e2565b5050509392505050565b600082601f83011261582857615827614e20565b5b81356158388482602086016157aa565b91505092915050565b600080600080600080600060e0888a0312156158605761585f614d5b565b5b600088013567ffffffffffffffff81111561587e5761587d614d60565b5b61588a8a828b01614fa9565b975050602088013567ffffffffffffffff8111156158ab576158aa614d60565b5b6158b78a828b016150a2565b965050604088013567ffffffffffffffff8111156158d8576158d7614d60565b5b6158e48a828b016150a2565b955050606088013567ffffffffffffffff81111561590557615904614d60565b5b6159118a828b0161546b565b945050608088013567ffffffffffffffff81111561593257615931614d60565b5b61593e8a828b0161572b565b93505060a088013567ffffffffffffffff81111561595f5761595e614d60565b5b61596b8a828b0161572b565b92505060c088013567ffffffffffffffff81111561598c5761598b614d60565b5b6159988a828b01615813565b91505092959891949750929550565b600080600080600060a086880312156159c3576159c2614d5b565b5b60006159d188828901614f2b565b95505060206159e288828901614f2b565b94505060406159f388828901615024565b9350506060615a0488828901615024565b925050608086013567ffffffffffffffff811115615a2557615a24614d60565b5b615a31888289016151fe565b9150509295509295909350565b600082825260208201905092915050565b7f52654e46543a3a70617573656400000000000000000000000000000000000000600082015250565b6000615a85600d83615a3e565b9150615a9082615a4f565b602082019050919050565b60006020820190508181036000830152615ab481615a78565b9050919050565b7f52654e46543a3a6e6f742061646d696e00000000000000000000000000000000600082015250565b6000615af1601083615a3e565b9150615afc82615abb565b602082019050919050565b60006020820190508181036000830152615b2081615ae4565b9050919050565b7f52654e46543a3a66656520657863656564732031303070637400000000000000600082015250565b6000615b5d601983615a3e565b9150615b6882615b27565b602082019050919050565b60006020820190508181036000830152615b8c81615b50565b9050919050565b7f4e487b7100000000000000000000000000000000000000000000000000000000600052601160045260246000fd5b6000615bcd82615003565b9150615bd883615003565b925082821015615beb57615bea615b93565b5b828203905092915050565b7f4e487b7100000000000000000000000000000000000000000000000000000000600052603260045260246000fd5b60008160601b9050919050565b6000615c3d82615c25565b9050919050565b6000615c4f82615c32565b9050919050565b615c67615c6282614f02565b615c44565b82525050565b6000819050919050565b615c88615c8382615003565b615c6d565b82525050565b6000615c9a8286615c56565b601482019150615caa8285615c77565b602082019150615cba8284615c77565b602082019150819050949350505050565b7f4e487b7100000000000000000000000000000000000000000000000000000000600052602160045260246000fd5b600063ffffffff82169050919050565b615d1381615cfa565b82525050565b6000602082019050615d2e6000830184615d0a565b92915050565b6000615d3f82615003565b91507fffffffffffffffffffffffffffffffffffffffffffffffffffffffffffffffff821415615d7257615d71615b93565b5b600182019050919050565b7f52654e46543a3a6e6f206e667473000000000000000000000000000000000000600082015250565b6000615db3600e83615a3e565b9150615dbe82615d7d565b602082019050919050565b60006020820190508181036000830152615de281615da6565b9050919050565b615df2816153c9565b82525050565b6000602082019050615e0d6000830184615de9565b92915050565b600081519050615e2281614f14565b92915050565b600060208284031215615e3e57615e3d614d5b565b5b6000615e4c84828501615e13565b91505092915050565b600081519050615e64816153d6565b92915050565b600060208284031215615e8057615e7f614d5b565b5b6000615e8e84828501615e55565b91505092915050565b60008160011c9050919050565b6000808291508390505b6001851115615eee57808604811115615eca57615ec9615b93565b5b6001851615615ed95780820291505b8081029050615ee785615e97565b9450615eae565b94509492505050565b600082615f075760019050615fc3565b81615f155760009050615fc3565b8160018114615f2b5760028114615f3557615f64565b6001915050615fc3565b60ff841115615f4757615f46615b93565b5b8360020a915084821115615f5e57615f5d615b93565b5b50615fc3565b5060208310610133831016604e8410600b8410161715615f995782820a905083811115615f9457615f93615b93565b5b615fc3565b615fa68484846001615ea4565b92509050818404811115615fbd57615fbc615b93565b5b81810290505b9392505050565b6000615fd582615003565b9150615fe083615003565b925061600d7fffffffffffffffffffffffffffffffffffffffffffffffffffffffffffffffff8484615ef7565b905092915050565b600061602082615003565b915061602b83615003565b9250817fffffffffffffffffffffffffffffffffffffffffffffffffffffffffffffffff048311821515161561606457616063615b93565b5b828202905092915050565b7f52654e46543a3a72656e74207072696365206973207a65726f00000000000000600082015250565b60006160a5601983615a3e565b91506160b08261606f565b602082019050919050565b600060208201905081810360008301526160d481616098565b9050919050565b7f52654e46543a3a6e6674207072696365206973207a65726f0000000000000000600082015250565b6000616111601883615a3e565b915061611c826160db565b602082019050919050565b6000602082019050818103600083015261614081616104565b9050919050565b600061615282615003565b915061615d83615003565b9250827fffffffffffffffffffffffffffffffffffffffffffffffffffffffffffffffff0382111561619257616191615b93565b5b828201905092915050565b60006060820190506161b2600083018661566c565b6161bf6020830185615de9565b6161cc6040830184615d0a565b949350505050565b600181106161e5576161e4615ccb565b5b50565b60008190506161f6826161d4565b919050565b6000616206826161e8565b9050919050565b616216816161fb565b82525050565b600060e082019050616231600083018a615de9565b61623e602083018961566c565b61624b6040830188615de9565b61625860608301876152af565b61626560808301866152af565b61627260a0830185614df6565b61627f60c083018461620d565b98975050505050505050565b7f52654e46543a3a6475726174696f6e207a65726f000000000000000000000000600082015250565b60006162c1601483615a3e565b91506162cc8261628b565b602082019050919050565b600060208201905081810360008301526162f0816162b4565b9050919050565b7f52654e46543a3a6475726174696f6e206e6f74207a65726f0000000000000000600082015250565b600061632d601883615a3e565b9150616338826162f7565b602082019050919050565b6000602082019050818103600083015261635c81616320565b9050919050565b7f52654e46543a3a72656e746564206174206e6f74207a65726f00000000000000600082015250565b6000616399601983615a3e565b91506163a482616363565b602082019050919050565b600060208201905081810360008301526163c88161638c565b9050919050565b7f52654e46543a3a6e6f74206c656e646572000000000000000000000000000000600082015250565b6000616405601183615a3e565b9150616410826163cf565b602082019050919050565b60006020820190508181036000830152616434816163f8565b9050919050565b61644481614f02565b82525050565b600060608201905061645f600083018661643b565b61646c602083018561643b565b616479604083018461566c565b949350505050565b600081519050919050565b600082825260208201905092915050565b6000819050602082019050919050565b6164b681615003565b82525050565b60006164c883836164ad565b60208301905092915050565b6000602082019050919050565b60006164ec82616481565b6164f6818561648c565b93506165018361649d565b8060005b8381101561653257815161651988826164bc565b9750616524836164d4565b925050600181019050616505565b5085935050505092915050565b600082825260208201905092915050565b50565b600061656060008361653f565b915061656b82616550565b600082019050919050565b600060a08201905061658b600083018761643b565b616598602083018661643b565b81810360408301526165aa81856164e1565b905081810360608301526165be81846164e1565b905081810360808301526165d181616553565b905095945050505050565b7f52654e46543a3a756e737570706f7274656420746f6b656e2074797065000000600082015250565b6000616612601d83615a3e565b915061661d826165dc565b602082019050919050565b6000602082019050818103600083015261664181616605565b9050919050565b600081519050616657816152d9565b92915050565b60006020828403121561667357616672614d5b565b5b600061668184828501616648565b91505092915050565b7f52654e46543a3a6475726174696f6e206973207a65726f000000000000000000600082015250565b60006166c0601783615a3e565b91506166cb8261668a565b602082019050919050565b600060208201905081810360008301526166ef816166b3565b9050919050565b7f52654e46543a3a72656e746564206174206973207a65726f0000000000000000600082015250565b600061672c601883615a3e565b9150616737826166f6565b602082019050919050565b6000602082019050818103600083015261675b8161671f565b9050919050565b7f52654e46543a3a72657475726e2064617465206e6f7420706173736564000000600082015250565b6000616798601d83615a3e565b91506167a382616762565b602082019050919050565b600060208201905081810360008301526167c78161678b565b9050919050565b7f52654e46543a3a636f6c6c61746572616c20706c75732072656e74206973207a60008201527f65726f0000000000000000000000000000000000000000000000000000000000602082015250565b600061682a602383615a3e565b9150616835826167ce565b604082019050919050565b600060208201905081810360008301526168598161681d565b9050919050565b7f52654e46543a3a63616e742072656e74206f776e206e66740000000000000000600082015250565b6000616896601883615a3e565b91506168a182616860565b602082019050919050565b600060208201905081810360008301526168c581616889565b9050919050565b7f52654e46543a3a6e6f742075696e743800000000000000000000000000000000600082015250565b6000616902601083615a3e565b915061690d826168cc565b602082019050919050565b60006020820190508181036000830152616931816168f5565b9050919050565b7f52654e46543a3a72656e74206475726174696f6e206578636565647320616c6c60008201527f6f776564206d6178000000000000000000000000000000000000000000000000602082015250565b6000616994602883615a3e565b915061699f82616938565b604082019050919050565b600060208201905081810360008301526169c381616987565b9050919050565b7f52654e46543a3a746f6b656e2069732073656e74696e656c0000000000000000600082015250565b6000616a00601883615a3e565b9150616a0b826169ca565b602082019050919050565b60006020820190508181036000830152616a2f816169f3565b9050919050565b7f4e487b7100000000000000000000000000000000000000000000000000000000600052601260045260246000fd5b6000616a7082615003565b9150616a7b83615003565b925082616a8b57616a8a616a36565b5b828204905092915050565b7f52654e46543a3a6c656e6420616d6f756e74206973207a65726f000000000000600082015250565b6000616acc601a83615a3e565b9150616ad782616a96565b602082019050919050565b60006020820190508181036000830152616afb81616abf565b9050919050565b7f52654e46543a3a72656e74207072696365206e6f74207a65726f000000000000600082015250565b6000616b38601a83615a3e565b9150616b4382616b02565b602082019050919050565b60006020820190508181036000830152616b6781616b2b565b9050919050565b7f52654e46543a3a6e6674207072696365206e6f74207a65726f00000000000000600082015250565b6000616ba4601983615a3e565b9150616baf82616b6e565b602082019050919050565b60006020820190508181036000830152616bd381616b97565b9050919050565b7f52654e46543a3a6e6f742072656e746572000000000000000000000000000000600082015250565b6000616c10601183615a3e565b9150616c1b82616bda565b602082019050919050565b60006020820190508181036000830152616c3f81616c03565b9050919050565b7f52654e46543a3a706173742072657475726e2064617465000000000000000000600082015250565b6000616c7c601783615a3e565b9150616c8782616c46565b602082019050919050565b60006020820190508181036000830152616cab81616c6f565b9050919050565b7f52654e46543a3a746f74616c207061796d656e7420776f20636f6c6c6174657260008201527f616c206973207a65726f00000000000000000000000000000000000000000000602082015250565b6000616d0e602a83615a3e565b9150616d1982616cb2565b604082019050919050565b60006020820190508181036000830152616d3d81616d01565b9050919050565b7f52654e46543a3a6c656e646572207061796d656e74206973207a65726f000000600082015250565b6000616d7a601d83615a3e565b9150616d8582616d44565b602082019050919050565b60006020820190508181036000830152616da981616d6d565b9050919050565b7f52654e46543a3a7a65726f206164647265737300000000000000000000000000600082015250565b6000616de6601383615a3e565b9150616df182616db0565b602082019050919050565b60006020820190508181036000830152616e1581616dd9565b9050919050565b7f52654e46543a3a6e6f742061207a65726f206164647265737300000000000000600082015250565b6000616e52601983615a3e565b9150616e5d82616e1c565b602082019050919050565b60006020820190508181036000830152616e8181616e45565b9050919050565b7f52654e46543a3a6e6f77206265666f72652072656e7465640000000000000000600082015250565b6000616ebe601883615a3e565b9150616ec982616e88565b602082019050919050565b60006020820190508181036000830152616eed81616eb1565b9050919050565b6000604082019050616f09600083018561643b565b616f16602083018461566c565b9392505050565b7f52654e46543a3a696e76616c6964207072696365000000000000000000000000600082015250565b6000616f53601483615a3e565b9150616f5e82616f1d565b602082019050919050565b60006020820190508181036000830152616f8281616f46565b9050919050565b7f52654e46543a3a696e76616c6964207363616c65000000000000000000000000600082015250565b6000616fbf601483615a3e565b9150616fca82616f89565b602082019050919050565b60006020820190508181036000830152616fee81616fb2565b9050919050565b7f5361666545524332303a204552433230206f7065726174696f6e20646964206e60008201527f6f74207375636365656400000000000000000000000000000000000000000000602082015250565b6000617051602a83615a3e565b915061705c82616ff5565b604082019050919050565b6000602082019050818103600083015261708081617044565b9050919050565b7f416464726573733a20696e73756666696369656e742062616c616e636520666f60008201527f722063616c6c0000000000000000000000000000000000000000000000000000602082015250565b60006170e3602683615a3e565b91506170ee82617087565b604082019050919050565b60006020820190508181036000830152617112816170d6565b9050919050565b7f416464726573733a2063616c6c20746f206e6f6e2d636f6e7472616374000000600082015250565b600061714f601d83615a3e565b915061715a82617119565b602082019050919050565b6000602082019050818103600083015261717e81617142565b9050919050565b600081519050919050565b600081905092915050565b60005b838110156171b957808201518184015260208101905061719e565b838111156171c8576000848401525b50505050565b60006171d982617185565b6171e38185617190565b93506171f381856020860161719b565b80840191505092915050565b600061720b82846171ce565b915081905092915050565b600081519050919050565b600061722c82617216565b6172368185615a3e565b935061724681856020860161719b565b61724f81614e25565b840191505092915050565b600060208201905081810360008301526172748184617221565b90509291505056fea2646970667358221220ce5751b729c7a5d2999a81ee4ff72530805fd8f75e187690fe8aae3fd1e76d4964736f6c634300080b0033",
  "immutableReferences": {},
  "source": "// SPDX-License-Identifier: MIT\r\npragma solidity ^0.8.11;\r\n\r\nimport \"@openzeppelin/contracts/token/ERC20/IERC20.sol\";\r\nimport \"@openzeppelin/contracts/token/ERC20/ERC20.sol\";\r\nimport \"@openzeppelin/contracts/token/ERC721/IERC721.sol\";\r\nimport \"@openzeppelin/contracts/token/ERC1155/IERC1155.sol\";\r\nimport \"@openzeppelin/contracts/token/ERC721/utils/ERC721Holder.sol\";\r\nimport \"@openzeppelin/contracts/token/ERC1155/utils/ERC1155Receiver.sol\";\r\nimport \"@openzeppelin/contracts/token/ERC1155/utils/ERC1155Holder.sol\";\r\n\r\nimport \"./Interface/IResolver.sol\";\r\nimport \"./Interface/IReNFT.sol\";\r\n\r\ncontract ReNFT is IReNft, ERC721Holder, ERC1155Receiver, ERC1155Holder {\r\n    using SafeERC20 for ERC20;\r\n\r\n    IResolver private resolver;\r\n    address private admin;\r\n    address payable private beneficiary;\r\n    uint256 private lendingId = 1;\r\n    bool public paused = false;\r\n\r\n    // in bps. so 1000 => 1%\r\n    uint256 public rentFee = 0;\r\n\r\n    uint256 private constant SECONDS_IN_DAY = 86400;\r\n\r\n    // single storage slot: address - 160 bits, 168, 200, 232, 240, 248\r\n    struct Lending {\r\n        address payable lenderAddress;\r\n        uint8 maxRentDuration;\r\n        bytes4 dailyRentPrice;\r\n        bytes4 nftPrice;\r\n        uint8 lentAmount;\r\n        IResolver.PaymentToken paymentToken;\r\n    }\r\n\r\n    // single storage slot: 160 bits, 168, 200\r\n    struct Renting {\r\n        address payable renterAddress;\r\n        uint8 rentDuration;\r\n        uint32 rentedAt;\r\n    }\r\n\r\n    struct LendingRenting {\r\n        Lending lending;\r\n        Renting renting;\r\n    }\r\n\r\n    mapping(bytes32 => LendingRenting) private lendingRenting;\r\n\r\n    struct CallData {\r\n        uint256 left;\r\n        uint256 right;\r\n        address[] nfts;\r\n        uint256[] tokenIds;\r\n        uint256[] lentAmounts;\r\n        uint8[] maxRentDurations;\r\n        bytes4[] dailyRentPrices;\r\n        bytes4[] nftPrices;\r\n        uint256[] lendingIds;\r\n        uint8[] rentDurations;\r\n        IResolver.PaymentToken[] paymentTokens;\r\n    }\r\n\r\n    modifier onlyAdmin() {\r\n        require(msg.sender == admin, \"ReNFT::not admin\");\r\n        _;\r\n    }\r\n\r\n    modifier notPaused() {\r\n        require(!paused, \"ReNFT::paused\");\r\n        _;\r\n    }\r\n\r\n    constructor(\r\n        address _resolver,\r\n        address payable _beneficiary,\r\n        address _admin\r\n    ) {\r\n        ensureIsNotZeroAddr(_resolver);\r\n        ensureIsNotZeroAddr(_beneficiary);\r\n        ensureIsNotZeroAddr(_admin);\r\n        resolver = IResolver(_resolver);\r\n        beneficiary = _beneficiary;\r\n        admin = _admin;\r\n    }\r\n\r\n    function bundleCall(function(CallData memory) _handler, CallData memory _cd)\r\n        private\r\n    {\r\n        require(_cd.nfts.length > 0, \"ReNFT::no nfts\");\r\n        while (_cd.right != _cd.nfts.length) {\r\n            if (\r\n                (_cd.nfts[_cd.left] == _cd.nfts[_cd.right]) &&\r\n                (is1155(_cd.nfts[_cd.right]))\r\n            ) {\r\n                _cd.right++;\r\n            } else {\r\n                _handler(_cd);\r\n                _cd.left = _cd.right;\r\n                _cd.right++;\r\n            }\r\n        }\r\n        _handler(_cd);\r\n    }\r\n\r\n    // lend, rent, return, stop, claim\r\n\r\n    function lend(\r\n        address[] memory _nfts,\r\n        uint256[] memory _tokenIds,\r\n        uint256[] memory _lendAmounts,\r\n        uint8[] memory _maxRentDurations,\r\n        bytes4[] memory _dailyRentPrices,\r\n        bytes4[] memory _nftPrices,\r\n        IResolver.PaymentToken[] memory _paymentTokens\r\n    ) external override notPaused {\r\n        bundleCall(\r\n            handleLend,\r\n            createLendCallData(\r\n                _nfts,\r\n                _tokenIds,\r\n                _lendAmounts,\r\n                _maxRentDurations,\r\n                _dailyRentPrices,\r\n                _nftPrices,\r\n                _paymentTokens\r\n            )\r\n        );\r\n    }\r\n\r\n    function rent(\r\n        address[] memory _nfts,\r\n        uint256[] memory _tokenIds,\r\n        uint256[] memory _lendingIds,\r\n        uint8[] memory _rentDurations\r\n    ) external override notPaused {\r\n        bundleCall(\r\n            handleRent,\r\n            createRentCallData(_nfts, _tokenIds, _lendingIds, _rentDurations)\r\n        );\r\n    }\r\n\r\n    function returnIt(\r\n        address[] memory _nfts,\r\n        uint256[] memory _tokenIds,\r\n        uint256[] memory _lendingIds\r\n    ) external override notPaused {\r\n        bundleCall(\r\n            handleReturn,\r\n            createActionCallData(_nfts, _tokenIds, _lendingIds)\r\n        );\r\n    }\r\n\r\n    function stopLending(\r\n        address[] memory _nfts,\r\n        uint256[] memory _tokenIds,\r\n        uint256[] memory _lendingIds\r\n    ) external override notPaused {\r\n        bundleCall(\r\n            handleStopLending,\r\n            createActionCallData(_nfts, _tokenIds, _lendingIds)\r\n        );\r\n    }\r\n\r\n    function claimCollateral(\r\n        address[] memory _nfts,\r\n        uint256[] memory _tokenIds,\r\n        uint256[] memory _lendingIds\r\n    ) external override notPaused {\r\n        bundleCall(\r\n            handleClaimCollateral,\r\n            createActionCallData(_nfts, _tokenIds, _lendingIds)\r\n        );\r\n    }\r\n\r\n    //      .-.     .-.     .-.     .-.     .-.     .-.     .-.     .-.     .-.     .-.\r\n    // `._.'   `._.'   `._.'   `._.'   `._.'   `._.'   `._.'   `._.'   `._.'   `._.'   `._.'\r\n\r\n    function takeFee(uint256 _rent, IResolver.PaymentToken _paymentToken)\r\n        private\r\n        returns (uint256 fee)\r\n    {\r\n        fee = _rent * rentFee;\r\n        fee /= 10000;\r\n        uint8 paymentTokenIx = uint8(_paymentToken);\r\n        ensureTokenNotSentinel(paymentTokenIx);\r\n        ERC20 paymentToken = ERC20(resolver.getPaymentToken(paymentTokenIx));\r\n        paymentToken.safeTransfer(beneficiary, fee);\r\n    }\r\n\r\n    function distributePayments(\r\n        LendingRenting storage _lendingRenting,\r\n        uint256 _secondsSinceRentStart\r\n    ) private {\r\n        uint8 paymentTokenIx = uint8(_lendingRenting.lending.paymentToken);\r\n        ensureTokenNotSentinel(paymentTokenIx);\r\n        address paymentToken = resolver.getPaymentToken(paymentTokenIx);\r\n        uint256 decimals = ERC20(paymentToken).decimals();\r\n\r\n        uint256 scale = 10**decimals;\r\n        uint256 nftPrice = _lendingRenting.lending.lentAmount *\r\n            unpackPrice(_lendingRenting.lending.nftPrice, scale);\r\n        uint256 rentPrice = unpackPrice(\r\n            _lendingRenting.lending.dailyRentPrice,\r\n            scale\r\n        );\r\n        uint256 totalRenterPmtWoCollateral = rentPrice *\r\n            _lendingRenting.renting.rentDuration;\r\n        uint256 sendLenderAmt = (_secondsSinceRentStart * rentPrice) /\r\n            SECONDS_IN_DAY;\r\n        require(\r\n            totalRenterPmtWoCollateral > 0,\r\n            \"ReNFT::total payment wo collateral is zero\"\r\n        );\r\n        require(sendLenderAmt > 0, \"ReNFT::lender payment is zero\");\r\n        uint256 sendRenterAmt = totalRenterPmtWoCollateral - sendLenderAmt;\r\n\r\n        uint256 takenFee = takeFee(\r\n            sendLenderAmt,\r\n            _lendingRenting.lending.paymentToken\r\n        );\r\n\r\n        sendLenderAmt -= takenFee;\r\n        sendRenterAmt += nftPrice;\r\n\r\n        ERC20(paymentToken).safeTransfer(\r\n            _lendingRenting.lending.lenderAddress,\r\n            sendLenderAmt\r\n        );\r\n        ERC20(paymentToken).safeTransfer(\r\n            _lendingRenting.renting.renterAddress,\r\n            sendRenterAmt\r\n        );\r\n    }\r\n\r\n    function distributeClaimPayment(LendingRenting memory _lendingRenting)\r\n        private\r\n    {\r\n        uint8 paymentTokenIx = uint8(_lendingRenting.lending.paymentToken);\r\n        ensureTokenNotSentinel(paymentTokenIx);\r\n        ERC20 paymentToken = ERC20(resolver.getPaymentToken(paymentTokenIx));\r\n\r\n        uint256 decimals = ERC20(paymentToken).decimals();\r\n        uint256 scale = 10**decimals;\r\n        uint256 nftPrice = _lendingRenting.lending.lentAmount *\r\n            unpackPrice(_lendingRenting.lending.nftPrice, scale);\r\n        uint256 rentPrice = unpackPrice(\r\n            _lendingRenting.lending.dailyRentPrice,\r\n            scale\r\n        );\r\n        uint256 maxRentPayment = rentPrice *\r\n            _lendingRenting.renting.rentDuration;\r\n        uint256 takenFee = takeFee(\r\n            maxRentPayment,\r\n            IResolver.PaymentToken(paymentTokenIx)\r\n        );\r\n        uint256 finalAmt = maxRentPayment + nftPrice;\r\n\r\n        require(maxRentPayment > 0, \"ReNFT::collateral plus rent is zero\");\r\n\r\n        paymentToken.safeTransfer(\r\n            _lendingRenting.lending.lenderAddress,\r\n            finalAmt - takenFee\r\n        );\r\n    }\r\n\r\n    function safeTransfer(\r\n        CallData memory _cd,\r\n        address _from,\r\n        address _to,\r\n        uint256[] memory _tokenIds,\r\n        uint256[] memory _lentAmounts\r\n    ) private {\r\n        if (is721(_cd.nfts[_cd.left])) {\r\n            IERC721(_cd.nfts[_cd.left]).transferFrom(\r\n                _from,\r\n                _to,\r\n                _cd.tokenIds[_cd.left]\r\n            );\r\n        } else if (is1155(_cd.nfts[_cd.left])) {\r\n            IERC1155(_cd.nfts[_cd.left]).safeBatchTransferFrom(\r\n                _from,\r\n                _to,\r\n                _tokenIds,\r\n                _lentAmounts,\r\n                \"\"\r\n            );\r\n        } else {\r\n            revert(\"ReNFT::unsupported token type\");\r\n        }\r\n    }\r\n\r\n    //      .-.     .-.     .-.     .-.     .-.     .-.     .-.     .-.     .-.     .-.\r\n    // `._.'   `._.'   `._.'   `._.'   `._.'   `._.'   `._.'   `._.'   `._.'   `._.'   `._.'\r\n\r\n    function handleLend(CallData memory _cd) private {\r\n        for (uint256 i = _cd.left; i < _cd.right; i++) {\r\n            ensureIsLendable(_cd, i);\r\n\r\n            LendingRenting storage item = lendingRenting[\r\n                keccak256(\r\n                    abi.encodePacked(\r\n                        _cd.nfts[_cd.left],\r\n                        _cd.tokenIds[i],\r\n                        lendingId\r\n                    )\r\n                )\r\n            ];\r\n\r\n            ensureIsNull(item.lending);\r\n            ensureIsNull(item.renting);\r\n\r\n            bool nftIs721 = is721(_cd.nfts[i]);\r\n            item.lending = Lending({\r\n                lenderAddress: payable(msg.sender),\r\n                lentAmount: nftIs721 ? 1 : uint8(_cd.lentAmounts[i]),\r\n                maxRentDuration: _cd.maxRentDurations[i],\r\n                dailyRentPrice: _cd.dailyRentPrices[i],\r\n                nftPrice: _cd.nftPrices[i],\r\n                paymentToken: _cd.paymentTokens[i]\r\n            });\r\n\r\n            emit Lent(\r\n                _cd.nfts[_cd.left],\r\n                _cd.tokenIds[i],\r\n                nftIs721 ? 1 : uint8(_cd.lentAmounts[i]),\r\n                lendingId,\r\n                msg.sender,\r\n                _cd.maxRentDurations[i],\r\n                _cd.dailyRentPrices[i],\r\n                _cd.nftPrices[i],\r\n                nftIs721,\r\n                _cd.paymentTokens[i]\r\n            );\r\n\r\n            lendingId++;\r\n        }\r\n\r\n        safeTransfer(\r\n            _cd,\r\n            msg.sender,\r\n            address(this),\r\n            sliceArr(_cd.tokenIds, _cd.left, _cd.right, 0),\r\n            sliceArr(_cd.lentAmounts, _cd.left, _cd.right, 0)\r\n        );\r\n    }\r\n\r\n    function handleRent(CallData memory _cd) private {\r\n        uint256[] memory lentAmounts = new uint256[](_cd.right - _cd.left);\r\n\r\n        for (uint256 i = _cd.left; i < _cd.right; i++) {\r\n            LendingRenting storage item = lendingRenting[\r\n                keccak256(\r\n                    abi.encodePacked(\r\n                        _cd.nfts[_cd.left],\r\n                        _cd.tokenIds[i],\r\n                        _cd.lendingIds[i]\r\n                    )\r\n                )\r\n            ];\r\n\r\n            ensureIsNotNull(item.lending);\r\n            ensureIsNull(item.renting);\r\n            ensureIsRentable(item.lending, _cd, i, msg.sender);\r\n\r\n            uint8 paymentTokenIx = uint8(item.lending.paymentToken);\r\n            ensureTokenNotSentinel(paymentTokenIx);\r\n            address paymentToken = resolver.getPaymentToken(paymentTokenIx);\r\n            uint256 decimals = ERC20(paymentToken).decimals();\r\n\r\n            {\r\n                uint256 scale = 10**decimals;\r\n                uint256 rentPrice = _cd.rentDurations[i] *\r\n                    unpackPrice(item.lending.dailyRentPrice, scale);\r\n                uint256 nftPrice = item.lending.lentAmount *\r\n                    unpackPrice(item.lending.nftPrice, scale);\r\n\r\n                require(rentPrice > 0, \"ReNFT::rent price is zero\");\r\n                require(nftPrice > 0, \"ReNFT::nft price is zero\");\r\n\r\n                ERC20(paymentToken).safeTransferFrom(\r\n                    msg.sender,\r\n                    address(this),\r\n                    rentPrice + nftPrice\r\n                );\r\n            }\r\n\r\n            lentAmounts[i - _cd.left] = item.lending.lentAmount;\r\n\r\n            item.renting.renterAddress = payable(msg.sender);\r\n            item.renting.rentDuration = _cd.rentDurations[i];\r\n            item.renting.rentedAt = uint32(block.timestamp);\r\n\r\n            emit Rented(\r\n                _cd.lendingIds[i],\r\n                msg.sender,\r\n                _cd.rentDurations[i],\r\n                item.renting.rentedAt\r\n            );\r\n        }\r\n\r\n        safeTransfer(\r\n            _cd,\r\n            address(this),\r\n            msg.sender,\r\n            sliceArr(_cd.tokenIds, _cd.left, _cd.right, 0),\r\n            sliceArr(lentAmounts, _cd.left, _cd.right, _cd.left)\r\n        );\r\n    }\r\n\r\n    function handleReturn(CallData memory _cd) private {\r\n        uint256[] memory lentAmounts = new uint256[](_cd.right - _cd.left);\r\n\r\n        for (uint256 i = _cd.left; i < _cd.right; i++) {\r\n            LendingRenting storage item = lendingRenting[\r\n                keccak256(\r\n                    abi.encodePacked(\r\n                        _cd.nfts[_cd.left],\r\n                        _cd.tokenIds[i],\r\n                        _cd.lendingIds[i]\r\n                    )\r\n                )\r\n            ];\r\n\r\n            ensureIsNotNull(item.lending);\r\n            ensureIsReturnable(item.renting, msg.sender, block.timestamp);\r\n\r\n            uint256 secondsSinceRentStart = block.timestamp -\r\n                item.renting.rentedAt;\r\n            distributePayments(item, secondsSinceRentStart);\r\n\r\n            lentAmounts[i - _cd.left] = item.lending.lentAmount;\r\n\r\n            emit Returned(_cd.lendingIds[i], uint32(block.timestamp));\r\n\r\n            delete item.renting;\r\n        }\r\n\r\n        safeTransfer(\r\n            _cd,\r\n            msg.sender,\r\n            address(this),\r\n            sliceArr(_cd.tokenIds, _cd.left, _cd.right, 0),\r\n            sliceArr(lentAmounts, _cd.left, _cd.right, _cd.left)\r\n        );\r\n    }\r\n\r\n    function handleStopLending(CallData memory _cd) private {\r\n        uint256[] memory lentAmounts = new uint256[](_cd.right - _cd.left);\r\n\r\n        for (uint256 i = _cd.left; i < _cd.right; i++) {\r\n            LendingRenting storage item = lendingRenting[\r\n                keccak256(\r\n                    abi.encodePacked(\r\n                        _cd.nfts[_cd.left],\r\n                        _cd.tokenIds[i],\r\n                        _cd.lendingIds[i]\r\n                    )\r\n                )\r\n            ];\r\n\r\n            ensureIsNotNull(item.lending);\r\n            ensureIsNull(item.renting);\r\n            ensureIsStoppable(item.lending, msg.sender);\r\n\r\n            lentAmounts[i - _cd.left] = item.lending.lentAmount;\r\n\r\n            emit LendingStopped(_cd.lendingIds[i], uint32(block.timestamp));\r\n\r\n            delete item.lending;\r\n        }\r\n\r\n        safeTransfer(\r\n            _cd,\r\n            address(this),\r\n            msg.sender,\r\n            sliceArr(_cd.tokenIds, _cd.left, _cd.right, 0),\r\n            sliceArr(lentAmounts, _cd.left, _cd.right, _cd.left)\r\n        );\r\n    }\r\n\r\n    function handleClaimCollateral(CallData memory _cd) private {\r\n        for (uint256 i = _cd.left; i < _cd.right; i++) {\r\n            LendingRenting storage item = lendingRenting[\r\n                keccak256(\r\n                    abi.encodePacked(\r\n                        _cd.nfts[_cd.left],\r\n                        _cd.tokenIds[i],\r\n                        _cd.lendingIds[i]\r\n                    )\r\n                )\r\n            ];\r\n\r\n            ensureIsNotNull(item.lending);\r\n            ensureIsNotNull(item.renting);\r\n            ensureIsClaimable(item.renting, block.timestamp);\r\n\r\n            distributeClaimPayment(item);\r\n\r\n            emit CollateralClaimed(_cd.lendingIds[i], uint32(block.timestamp));\r\n\r\n            delete item.lending;\r\n            delete item.renting;\r\n        }\r\n    }\r\n\r\n    //      .-.     .-.     .-.     .-.     .-.     .-.     .-.     .-.     .-.     .-.\r\n    // `._.'   `._.'   `._.'   `._.'   `._.'   `._.'   `._.'   `._.'   `._.'   `._.'   `._.'\r\n\r\n    function is721(address _nft) private view returns (bool) {\r\n        return IERC165(_nft).supportsInterface(type(IERC721).interfaceId);\r\n    }\r\n\r\n    function is1155(address _nft) private view returns (bool) {\r\n        return IERC165(_nft).supportsInterface(type(IERC1155).interfaceId);\r\n    }\r\n\r\n    //      .-.     .-.     .-.     .-.     .-.     .-.     .-.     .-.     .-.     .-.\r\n    // `._.'   `._.'   `._.'   `._.'   `._.'   `._.'   `._.'   `._.'   `._.'   `._.'   `._.'\r\n\r\n    function createLendCallData(\r\n        address[] memory _nfts,\r\n        uint256[] memory _tokenIds,\r\n        uint256[] memory _lendAmounts,\r\n        uint8[] memory _maxRentDurations,\r\n        bytes4[] memory _dailyRentPrices,\r\n        bytes4[] memory _nftPrices,\r\n        IResolver.PaymentToken[] memory _paymentTokens\r\n    ) private pure returns (CallData memory cd) {\r\n        cd = CallData({\r\n            left: 0,\r\n            right: 1,\r\n            nfts: _nfts,\r\n            tokenIds: _tokenIds,\r\n            lentAmounts: _lendAmounts,\r\n            lendingIds: new uint256[](0),\r\n            rentDurations: new uint8[](0),\r\n            maxRentDurations: _maxRentDurations,\r\n            dailyRentPrices: _dailyRentPrices,\r\n            nftPrices: _nftPrices,\r\n            paymentTokens: _paymentTokens\r\n        });\r\n    }\r\n\r\n    function createRentCallData(\r\n        address[] memory _nfts,\r\n        uint256[] memory _tokenIds,\r\n        uint256[] memory _lendingIds,\r\n        uint8[] memory _rentDurations\r\n    ) private pure returns (CallData memory cd) {\r\n        cd = CallData({\r\n            left: 0,\r\n            right: 1,\r\n            nfts: _nfts,\r\n            tokenIds: _tokenIds,\r\n            lentAmounts: new uint256[](0),\r\n            lendingIds: _lendingIds,\r\n            rentDurations: _rentDurations,\r\n            maxRentDurations: new uint8[](0),\r\n            dailyRentPrices: new bytes4[](0),\r\n            nftPrices: new bytes4[](0),\r\n            paymentTokens: new IResolver.PaymentToken[](0)\r\n        });\r\n    }\r\n\r\n    function createActionCallData(\r\n        address[] memory _nfts,\r\n        uint256[] memory _tokenIds,\r\n        uint256[] memory _lendingIds\r\n    ) private pure returns (CallData memory cd) {\r\n        cd = CallData({\r\n            left: 0,\r\n            right: 1,\r\n            nfts: _nfts,\r\n            tokenIds: _tokenIds,\r\n            lentAmounts: new uint256[](0),\r\n            lendingIds: _lendingIds,\r\n            rentDurations: new uint8[](0),\r\n            maxRentDurations: new uint8[](0),\r\n            dailyRentPrices: new bytes4[](0),\r\n            nftPrices: new bytes4[](0),\r\n            paymentTokens: new IResolver.PaymentToken[](0)\r\n        });\r\n    }\r\n\r\n    function unpackPrice(bytes4 _price, uint256 _scale)\r\n        private\r\n        pure\r\n        returns (uint256)\r\n    {\r\n        ensureIsUnpackablePrice(_price, _scale);\r\n\r\n        uint16 whole = uint16(bytes2(_price));\r\n        uint16 decimal = uint16(bytes2(_price << 16));\r\n        uint256 decimalScale = _scale / 10000;\r\n\r\n        if (whole > 9999) {\r\n            whole = 9999;\r\n        }\r\n        if (decimal > 9999) {\r\n            decimal = 9999;\r\n        }\r\n\r\n        uint256 w = whole * _scale;\r\n        uint256 d = decimal * decimalScale;\r\n        uint256 price = w + d;\r\n\r\n        return price;\r\n    }\r\n\r\n    function sliceArr(\r\n        uint256[] memory _arr,\r\n        uint256 _fromIx,\r\n        uint256 _toIx,\r\n        uint256 _arrOffset\r\n    ) private pure returns (uint256[] memory r) {\r\n        r = new uint256[](_toIx - _fromIx);\r\n        for (uint256 i = _fromIx; i < _toIx; i++) {\r\n            r[i - _fromIx] = _arr[i - _arrOffset];\r\n        }\r\n    }\r\n\r\n    //      .-.     .-.     .-.     .-.     .-.     .-.     .-.     .-.     .-.     .-.\r\n    // `._.'   `._.'   `._.'   `._.'   `._.'   `._.'   `._.'   `._.'   `._.'   `._.'   `._.'\r\n\r\n    function ensureIsNotZeroAddr(address _addr) private pure {\r\n        require(_addr != address(0), \"ReNFT::zero address\");\r\n    }\r\n\r\n    function ensureIsZeroAddr(address _addr) private pure {\r\n        require(_addr == address(0), \"ReNFT::not a zero address\");\r\n    }\r\n\r\n    function ensureIsNull(Lending memory _lending) private pure {\r\n        ensureIsZeroAddr(_lending.lenderAddress);\r\n        require(_lending.maxRentDuration == 0, \"ReNFT::duration not zero\");\r\n        require(_lending.dailyRentPrice == 0, \"ReNFT::rent price not zero\");\r\n        require(_lending.nftPrice == 0, \"ReNFT::nft price not zero\");\r\n    }\r\n\r\n    function ensureIsNotNull(Lending memory _lending) private pure {\r\n        ensureIsNotZeroAddr(_lending.lenderAddress);\r\n        require(_lending.maxRentDuration != 0, \"ReNFT::duration zero\");\r\n        require(_lending.dailyRentPrice != 0, \"ReNFT::rent price is zero\");\r\n        require(_lending.nftPrice != 0, \"ReNFT::nft price is zero\");\r\n    }\r\n\r\n    function ensureIsNull(Renting memory _renting) private pure {\r\n        ensureIsZeroAddr(_renting.renterAddress);\r\n        require(_renting.rentDuration == 0, \"ReNFT::duration not zero\");\r\n        require(_renting.rentedAt == 0, \"ReNFT::rented at not zero\");\r\n    }\r\n\r\n    function ensureIsNotNull(Renting memory _renting) private pure {\r\n        ensureIsNotZeroAddr(_renting.renterAddress);\r\n        require(_renting.rentDuration != 0, \"ReNFT::duration is zero\");\r\n        require(_renting.rentedAt != 0, \"ReNFT::rented at is zero\");\r\n    }\r\n\r\n    function ensureIsLendable(CallData memory _cd, uint256 _i) private pure {\r\n        require(_cd.lentAmounts[_i] > 0, \"ReNFT::lend amount is zero\");\r\n        require(_cd.lentAmounts[_i] <= type(uint8).max, \"ReNFT::not uint8\");\r\n        require(_cd.maxRentDurations[_i] > 0, \"ReNFT::duration is zero\");\r\n        require(\r\n            _cd.maxRentDurations[_i] <= type(uint8).max,\r\n            \"ReNFT::not uint8\"\r\n        );\r\n        require(\r\n            uint32(_cd.dailyRentPrices[_i]) > 0,\r\n            \"ReNFT::rent price is zero\"\r\n        );\r\n        require(uint32(_cd.nftPrices[_i]) > 0, \"ReNFT::nft price is zero\");\r\n    }\r\n\r\n    function ensureIsRentable(\r\n        Lending memory _lending,\r\n        CallData memory _cd,\r\n        uint256 _i,\r\n        address _msgSender\r\n    ) private pure {\r\n        require(\r\n            _msgSender != _lending.lenderAddress,\r\n            \"ReNFT::cant rent own nft\"\r\n        );\r\n        require(_cd.rentDurations[_i] <= type(uint8).max, \"ReNFT::not uint8\");\r\n        require(_cd.rentDurations[_i] > 0, \"ReNFT::duration is zero\");\r\n        require(\r\n            _cd.rentDurations[_i] <= _lending.maxRentDuration,\r\n            \"ReNFT::rent duration exceeds allowed max\"\r\n        );\r\n    }\r\n\r\n    function ensureIsReturnable(\r\n        Renting memory _renting,\r\n        address _msgSender,\r\n        uint256 _blockTimestamp\r\n    ) private pure {\r\n        require(_renting.renterAddress == _msgSender, \"ReNFT::not renter\");\r\n        require(\r\n            !isPastReturnDate(_renting, _blockTimestamp),\r\n            \"ReNFT::past return date\"\r\n        );\r\n    }\r\n\r\n    function ensureIsStoppable(Lending memory _lending, address _msgSender)\r\n        private\r\n        pure\r\n    {\r\n        require(_lending.lenderAddress == _msgSender, \"ReNFT::not lender\");\r\n    }\r\n\r\n    function ensureIsClaimable(Renting memory _renting, uint256 _blockTimestamp)\r\n        private\r\n        pure\r\n    {\r\n        require(\r\n            isPastReturnDate(_renting, _blockTimestamp),\r\n            \"ReNFT::return date not passed\"\r\n        );\r\n    }\r\n\r\n    function ensureIsUnpackablePrice(bytes4 _price, uint256 _scale)\r\n        private\r\n        pure\r\n    {\r\n        require(uint32(_price) > 0, \"ReNFT::invalid price\");\r\n        require(_scale >= 10000, \"ReNFT::invalid scale\");\r\n    }\r\n\r\n    function ensureTokenNotSentinel(uint8 _paymentIx) private pure {\r\n        require(_paymentIx > 0, \"ReNFT::token is sentinel\");\r\n    }\r\n\r\n    function isPastReturnDate(Renting memory _renting, uint256 _now)\r\n        private\r\n        pure\r\n        returns (bool)\r\n    {\r\n        require(_now > _renting.rentedAt, \"ReNFT::now before rented\");\r\n        return\r\n            _now - _renting.rentedAt > _renting.rentDuration * SECONDS_IN_DAY;\r\n    }\r\n\r\n    //      .-.     .-.     .-.     .-.     .-.     .-.     .-.     .-.     .-.     .-.\r\n    // `._.'   `._.'   `._.'   `._.'   `._.'   `._.'   `._.'   `._.'   `._.'   `._.'   `._.'\r\n\r\n    function setRentFee(uint256 _rentFee) external onlyAdmin {\r\n        require(_rentFee < 10000, \"ReNFT::fee exceeds 100pct\");\r\n        rentFee = _rentFee;\r\n    }\r\n\r\n    function setBeneficiary(address payable _newBeneficiary)\r\n        external\r\n        onlyAdmin\r\n    {\r\n        beneficiary = _newBeneficiary;\r\n    }\r\n\r\n    function setPaused(bool _paused) external onlyAdmin {\r\n        paused = _paused;\r\n    }\r\n}\r\n",
  "sourcePath": "C:\\Github\\rent-NFT\\contracts\\ReNFT.sol",
  "compiler": {
    "name": "solc",
    "version": "0.8.11+commit.d7f03943.Emscripten.clang"
  },
  "schemaVersion": "3.4.11",
  "updatedAt": "2022-12-08T12:05:36.873Z",
  "networkType": "ethereum",
  "devdoc": {
    "kind": "dev",
    "methods": {
      "claimCollateral(address[],uint256[],uint256[])": {
        "details": "claim collateral on rentals that are past their due date"
      },
      "onERC721Received(address,address,uint256,bytes)": {
        "details": "See {IERC721Receiver-onERC721Received}. Always returns `IERC721Receiver.onERC721Received.selector`."
      },
      "supportsInterface(bytes4)": {
        "details": "See {IERC165-supportsInterface}."
      }
    },
    "version": 1
  },
  "userdoc": {
    "kind": "user",
    "methods": {},
    "version": 1
  }
}