{
  "contractName": "ReNFT",
  "abi": [
    {
      "inputs": [
        {
          "internalType": "address",
          "name": "_resolver",
          "type": "address"
        },
        {
          "internalType": "address payable",
          "name": "_beneficiary",
          "type": "address"
        },
        {
          "internalType": "address",
          "name": "_admin",
          "type": "address"
        }
      ],
      "stateMutability": "nonpayable",
      "type": "constructor"
    },
    {
      "anonymous": false,
      "inputs": [
        {
          "indexed": true,
          "internalType": "uint256",
          "name": "lendingId",
          "type": "uint256"
        },
        {
          "indexed": false,
          "internalType": "uint32",
          "name": "claimedAt",
          "type": "uint32"
        }
      ],
      "name": "CollateralClaimed",
      "type": "event"
    },
    {
      "anonymous": false,
      "inputs": [
        {
          "indexed": true,
          "internalType": "uint256",
          "name": "lendingId",
          "type": "uint256"
        },
        {
          "indexed": false,
          "internalType": "uint32",
          "name": "stoppedAt",
          "type": "uint32"
        }
      ],
      "name": "LendingStopped",
      "type": "event"
    },
    {
      "anonymous": false,
      "inputs": [
        {
          "indexed": true,
          "internalType": "address",
          "name": "nftAddress",
          "type": "address"
        },
        {
          "indexed": true,
          "internalType": "uint256",
          "name": "tokenId",
          "type": "uint256"
        },
        {
          "indexed": false,
          "internalType": "uint8",
          "name": "lentAmount",
          "type": "uint8"
        },
        {
          "indexed": false,
          "internalType": "uint256",
          "name": "lendingId",
          "type": "uint256"
        },
        {
          "indexed": true,
          "internalType": "address",
          "name": "lenderAddress",
          "type": "address"
        },
        {
          "indexed": false,
          "internalType": "uint8",
          "name": "maxRentDuration",
          "type": "uint8"
        },
        {
          "indexed": false,
          "internalType": "bytes4",
          "name": "dailyRentPrice",
          "type": "bytes4"
        },
        {
          "indexed": false,
          "internalType": "bytes4",
          "name": "nftPrice",
          "type": "bytes4"
        },
        {
          "indexed": false,
          "internalType": "bool",
          "name": "isERC721",
          "type": "bool"
        },
        {
          "indexed": false,
          "internalType": "enum IResolver.PaymentToken",
          "name": "paymentToken",
          "type": "uint8"
        }
      ],
      "name": "Lent",
      "type": "event"
    },
    {
      "anonymous": false,
      "inputs": [
        {
          "indexed": false,
          "internalType": "uint256",
          "name": "lendingId",
          "type": "uint256"
        },
        {
          "indexed": true,
          "internalType": "address",
          "name": "renterAddress",
          "type": "address"
        },
        {
          "indexed": false,
          "internalType": "uint8",
          "name": "rentDuration",
          "type": "uint8"
        },
        {
          "indexed": false,
          "internalType": "uint32",
          "name": "rentedAt",
          "type": "uint32"
        }
      ],
      "name": "Rented",
      "type": "event"
    },
    {
      "anonymous": false,
      "inputs": [
        {
          "indexed": true,
          "internalType": "uint256",
          "name": "lendingId",
          "type": "uint256"
        },
        {
          "indexed": false,
          "internalType": "uint32",
          "name": "returnedAt",
          "type": "uint32"
        }
      ],
      "name": "Returned",
      "type": "event"
    },
    {
      "inputs": [
        {
          "internalType": "address",
          "name": "",
          "type": "address"
        },
        {
          "internalType": "address",
          "name": "",
          "type": "address"
        },
        {
          "internalType": "uint256[]",
          "name": "",
          "type": "uint256[]"
        },
        {
          "internalType": "uint256[]",
          "name": "",
          "type": "uint256[]"
        },
        {
          "internalType": "bytes",
          "name": "",
          "type": "bytes"
        }
      ],
      "name": "onERC1155BatchReceived",
      "outputs": [
        {
          "internalType": "bytes4",
          "name": "",
          "type": "bytes4"
        }
      ],
      "stateMutability": "nonpayable",
      "type": "function"
    },
    {
      "inputs": [
        {
          "internalType": "address",
          "name": "",
          "type": "address"
        },
        {
          "internalType": "address",
          "name": "",
          "type": "address"
        },
        {
          "internalType": "uint256",
          "name": "",
          "type": "uint256"
        },
        {
          "internalType": "uint256",
          "name": "",
          "type": "uint256"
        },
        {
          "internalType": "bytes",
          "name": "",
          "type": "bytes"
        }
      ],
      "name": "onERC1155Received",
      "outputs": [
        {
          "internalType": "bytes4",
          "name": "",
          "type": "bytes4"
        }
      ],
      "stateMutability": "nonpayable",
      "type": "function"
    },
    {
      "inputs": [
        {
          "internalType": "address",
          "name": "",
          "type": "address"
        },
        {
          "internalType": "address",
          "name": "",
          "type": "address"
        },
        {
          "internalType": "uint256",
          "name": "",
          "type": "uint256"
        },
        {
          "internalType": "bytes",
          "name": "",
          "type": "bytes"
        }
      ],
      "name": "onERC721Received",
      "outputs": [
        {
          "internalType": "bytes4",
          "name": "",
          "type": "bytes4"
        }
      ],
      "stateMutability": "nonpayable",
      "type": "function"
    },
    {
      "inputs": [],
      "name": "paused",
      "outputs": [
        {
          "internalType": "bool",
          "name": "",
          "type": "bool"
        }
      ],
      "stateMutability": "view",
      "type": "function",
      "constant": true
    },
    {
      "inputs": [],
      "name": "rentFee",
      "outputs": [
        {
          "internalType": "uint256",
          "name": "",
          "type": "uint256"
        }
      ],
      "stateMutability": "view",
      "type": "function",
      "constant": true
    },
    {
      "inputs": [
        {
          "internalType": "bytes4",
          "name": "interfaceId",
          "type": "bytes4"
        }
      ],
      "name": "supportsInterface",
      "outputs": [
        {
          "internalType": "bool",
          "name": "",
          "type": "bool"
        }
      ],
      "stateMutability": "view",
      "type": "function",
      "constant": true
    },
    {
      "inputs": [
        {
          "internalType": "address[]",
          "name": "_nfts",
          "type": "address[]"
        },
        {
          "internalType": "uint256[]",
          "name": "_tokenIds",
          "type": "uint256[]"
        },
        {
          "internalType": "uint256[]",
          "name": "_lendAmounts",
          "type": "uint256[]"
        },
        {
          "internalType": "uint8[]",
          "name": "_maxRentDurations",
          "type": "uint8[]"
        },
        {
          "internalType": "bytes4[]",
          "name": "_dailyRentPrices",
          "type": "bytes4[]"
        },
        {
          "internalType": "bytes4[]",
          "name": "_nftPrices",
          "type": "bytes4[]"
        },
        {
          "internalType": "enum IResolver.PaymentToken[]",
          "name": "_paymentTokens",
          "type": "uint8[]"
        }
      ],
      "name": "lend",
      "outputs": [],
      "stateMutability": "nonpayable",
      "type": "function"
    },
    {
      "inputs": [
        {
          "internalType": "address[]",
          "name": "_nfts",
          "type": "address[]"
        },
        {
          "internalType": "uint256[]",
          "name": "_tokenIds",
          "type": "uint256[]"
        },
        {
          "internalType": "uint256[]",
          "name": "_lendingIds",
          "type": "uint256[]"
        },
        {
          "internalType": "uint8[]",
          "name": "_rentDurations",
          "type": "uint8[]"
        }
      ],
      "name": "rent",
      "outputs": [],
      "stateMutability": "nonpayable",
      "type": "function"
    },
    {
      "inputs": [
        {
          "internalType": "address[]",
          "name": "_nfts",
          "type": "address[]"
        },
        {
          "internalType": "uint256[]",
          "name": "_tokenIds",
          "type": "uint256[]"
        },
        {
          "internalType": "uint256[]",
          "name": "_lendingIds",
          "type": "uint256[]"
        }
      ],
      "name": "returnIt",
      "outputs": [],
      "stateMutability": "nonpayable",
      "type": "function"
    },
    {
      "inputs": [
        {
          "internalType": "address[]",
          "name": "_nfts",
          "type": "address[]"
        },
        {
          "internalType": "uint256[]",
          "name": "_tokenIds",
          "type": "uint256[]"
        },
        {
          "internalType": "uint256[]",
          "name": "_lendingIds",
          "type": "uint256[]"
        }
      ],
      "name": "stopLending",
      "outputs": [],
      "stateMutability": "nonpayable",
      "type": "function"
    },
    {
      "inputs": [
        {
          "internalType": "address[]",
          "name": "_nfts",
          "type": "address[]"
        },
        {
          "internalType": "uint256[]",
          "name": "_tokenIds",
          "type": "uint256[]"
        },
        {
          "internalType": "uint256[]",
          "name": "_lendingIds",
          "type": "uint256[]"
        }
      ],
      "name": "claimCollateral",
      "outputs": [],
      "stateMutability": "nonpayable",
      "type": "function"
    },
    {
      "inputs": [
        {
          "internalType": "uint256",
          "name": "_rentFee",
          "type": "uint256"
        }
      ],
      "name": "setRentFee",
      "outputs": [],
      "stateMutability": "nonpayable",
      "type": "function"
    },
    {
      "inputs": [
        {
          "internalType": "address payable",
          "name": "_newBeneficiary",
          "type": "address"
        }
      ],
      "name": "setBeneficiary",
      "outputs": [],
      "stateMutability": "nonpayable",
      "type": "function"
    },
    {
      "inputs": [
        {
          "internalType": "bool",
          "name": "_paused",
          "type": "bool"
        }
      ],
      "name": "setPaused",
      "outputs": [],
      "stateMutability": "nonpayable",
      "type": "function"
    }
  ],
  "bytecode": "0x608060405260016003556004805460ff1916905560006005553480156200002557600080fd5b5060405162004a2638038062004a26833981016040819052620000489162000155565b6200005c83640100000000620000c7810204565b6200007082640100000000620000c7810204565b6200008481640100000000620000c7810204565b60008054600160a060020a03948516600160a060020a031991821617909155600280549385169382169390931790925560018054919093169116179055620001a9565b600160a060020a0381166200013c576040517f08c379a000000000000000000000000000000000000000000000000000000000815260206004820152601360248201527f52654e46543a3a7a65726f206164647265737300000000000000000000000000604482015260640160405180910390fd5b50565b600160a060020a03811681146200013c57600080fd5b6000806000606084860312156200016b57600080fd5b835162000178816200013f565b60208501519093506200018b816200013f565b60408501519092506200019e816200013f565b809150509250925092565b61486d80620001b96000396000f3fe608060405234801561001057600080fd5b50600436106100ee5760003560e060020a900480635de07ca311610090578063bf2b23ea1161006a578063bf2b23ea14610224578063e50364b21461023b578063f23a6e611461024e578063fb1585191461028657600080fd5b80635de07ca3146101c657806376774ea3146101d9578063bc197c81146101ec57600080fd5b806316c38b3c116100cc57806316c38b3c146101805780631c31f7101461019357806359fe66e4146101a65780635c975abb146101b957600080fd5b806301ffc9a7146100f3578063098130df1461011b578063150b7a0214610130575b600080fd5b610106610101366004613d2b565b610299565b60405190151581526020015b60405180910390f35b61012e610129366004613e96565b610302565b005b61016761013e366004613f8e565b7f150b7a0200000000000000000000000000000000000000000000000000000000949350505050565b604051600160e060020a03199091168152602001610112565b61012e61018e366004614008565b610378565b61012e6101a1366004614025565b6103e8565b61012e6101b4366004613e96565b610474565b6004546101069060ff1681565b61012e6101d43660046140b2565b6104db565b61012e6101e7366004614153565b610549565b6101676101fa36600461416c565b7fbc197c810000000000000000000000000000000000000000000000000000000095945050505050565b61022d60055481565b604051908152602001610112565b61012e6102493660046142df565b6105ff565b61016761025c3660046143fa565b7ff23a6e610000000000000000000000000000000000000000000000000000000095945050505050565b61012e610294366004613e96565b610673565b6000600160e060020a031982167f4e2312e00000000000000000000000000000000000000000000000000000000014806102fc57507f01ffc9a700000000000000000000000000000000000000000000000000000000600160e060020a03198316145b92915050565b60045460ff161561035d5760405160e560020a62461bcd02815260206004820152600d60248201527f52654e46543a3a7061757365640000000000000000000000000000000000000060448201526064015b60405180910390fd5b6103736106da61036e858585610aa5565b610be2565b505050565b600154600160a060020a031633146103d55760405160e560020a62461bcd02815260206004820152601060248201527f52654e46543a3a6e6f742061646d696e000000000000000000000000000000006044820152606401610354565b6004805460ff1916911515919091179055565b600154600160a060020a031633146104455760405160e560020a62461bcd02815260206004820152601060248201527f52654e46543a3a6e6f742061646d696e000000000000000000000000000000006044820152606401610354565b6002805473ffffffffffffffffffffffffffffffffffffffff1916600160a060020a0392909216919091179055565b60045460ff16156104ca5760405160e560020a62461bcd02815260206004820152600d60248201527f52654e46543a3a706175736564000000000000000000000000000000000000006044820152606401610354565b610373610d1c61036e858585610aa5565b60045460ff16156105315760405160e560020a62461bcd02815260206004820152600d60248201527f52654e46543a3a706175736564000000000000000000000000000000000000006044820152606401610354565b6105436110bb61036e86868686611776565b50505050565b600154600160a060020a031633146105a65760405160e560020a62461bcd02815260206004820152601060248201527f52654e46543a3a6e6f742061646d696e000000000000000000000000000000006044820152606401610354565b61271081106105fa5760405160e560020a62461bcd02815260206004820152601960248201527f52654e46543a3a666565206578636565647320313030706374000000000000006044820152606401610354565b600555565b60045460ff16156106555760405160e560020a62461bcd02815260206004820152600d60248201527f52654e46543a3a706175736564000000000000000000000000000000000000006044820152606401610354565b61066a6118c561036e89898989898989611ebb565b50505050505050565b60045460ff16156106c95760405160e560020a62461bcd02815260206004820152600d60248201527f52654e46543a3a706175736564000000000000000000000000000000000000006044820152606401610354565b610373611f8a61036e858585610aa5565b805160208201516000916106ed91614480565b67ffffffffffffffff81111561070557610705613d46565b60405190808252806020026020018201604052801561072e578160200160208202803683370190505b5082519091505b8260200151811015610a6957600060066000856040015186600001518151811061076157610761614497565b60200260200101518660600151858151811061077f5761077f614497565b6020026020010151876101000151868151811061079e5761079e614497565b60200260200101516040516020016107e393929190600160a060020a03939093166c010000000000000000000000000283526014830191909152603482015260540190565b60408051601f198184030181529181528151602092830120835282820193909352908201600020825160c0810184528154600160a060020a038116825260ff60a060020a8204811694830194909452600160e060020a031960e060020a60a860020a8304810282169684019690965260c860020a8204909502909416606082015260e860020a8404831660808201529093506108af929091849160a084019160f060020a909104168015610899576108996144b4565b80156108a7576108a76144b4565b9052506122ad565b604080516060810182526001830154600160a060020a038116825260a060020a810460ff16602083015260a860020a900463ffffffff16918101919091526108f6906123cb565b6040805160c0810182528254600160a060020a038116825260ff60a060020a820481166020840152600160e060020a031960e060020a60a860020a8404810282169585019590955260c860020a8304909402909316606083015260e860020a81048316608083015261099792849160a084019160f060020a909104168015610980576109806144b4565b801561098e5761098e6144b4565b90525033612489565b8054845160e860020a90910460ff169084906109b39085614480565b815181106109c3576109c3614497565b60200260200101818152505083610100015182815181106109e6576109e6614497565b60200260200101517f61bcecd87c002ae006d9d8c760291b4f3646fa6109590b4b3ea93084aae4bb6a42604051610a29919063ffffffff91909116815260200190565b60405180910390a280547fff0000000000000000000000000000000000000000000000000000000000000016905580610a61816144d1565b915050610735565b50610aa1823033610a8986606001518760000151886020015160006124f1565b86516020880151610a9c918891816124f1565b6125b1565b5050565b610aad613cb4565b6040518061016001604052806000815260200160018152602001858152602001848152602001600067ffffffffffffffff811115610aed57610aed613d46565b604051908082528060200260200182016040528015610b16578160200160208202803683370190505b5081526020016000604051908082528060200260200182016040528015610b47578160200160208202803683370190505b5081526020016000604051908082528060200260200182016040528015610b78578160200160208202803683370190505b5081526020016000604051908082528060200260200182016040528015610ba9578160200160208202803683370190505b50815260208082019490945260408051600080825281870183528284019190915281519081529485019052606001929092525092915050565b600081604001515111610c3a5760405160e560020a62461bcd02815260206004820152600e60248201527f52654e46543a3a6e6f206e6674730000000000000000000000000000000000006044820152606401610354565b806040015151816020015114610d0f578060400151816020015181518110610c6457610c64614497565b6020026020010151600160a060020a03168160400151826000015181518110610c8f57610c8f614497565b6020026020010151600160a060020a0316148015610cd25750610cd28160400151826020015181518110610cc557610cc5614497565b6020026020010151612759565b15610cef5760208101805190610ce7826144d1565b905250610c3a565b610cfc818363ffffffff16565b60208101805180835290610ce7826144d1565b610aa1818363ffffffff16565b80515b8160200151811015610aa1576000600660008460400151856000015181518110610d4b57610d4b614497565b602002602001015185606001518581518110610d6957610d69614497565b60200260200101518661010001518681518110610d8857610d88614497565b6020026020010151604051602001610dcd93929190600160a060020a03939093166c010000000000000000000000000283526014830191909152603482015260540190565b60408051601f198184030181529181528151602092830120835282820193909352908201600020825160c0810184528154600160a060020a038116825260ff60a060020a8204811694830194909452600160e060020a031960e060020a60a860020a8304810282169684019690965260c860020a8204909502909416606082015260e860020a840483166080820152909350610e83929091849160a084019160f060020a909104168015610899576108996144b4565b604080516060810182526001830154600160a060020a038116825260a060020a810460ff16602083015260a860020a900463ffffffff1691810191909152610eca906127fe565b604080516060810182526001830154600160a060020a038116825260a060020a810460ff16602083015260a860020a900463ffffffff1691810191909152610f1290426128ba565b60408051610100810182528254600160a060020a03811692820192835260ff60a060020a820481166060840152600160e060020a031960e060020a60a860020a840481028216608086015260c860020a8404021660a084015260e860020a8204811660c0840152610ffe9385928492849160e085019160f060020a909104168015610f9f57610f9f6144b4565b8015610fad57610fad6144b4565b90525081526040805160608101825260019390930154600160a060020a038116845260a060020a810460ff1660208086019190915260a860020a90910463ffffffff16918401919091520152612913565b826101000151828151811061101557611015614497565b60200260200101517f8ac1440f996b8b13e31275705c447bd09a92005cf2ec131a8183afedc636f5a242604051611058919063ffffffff91909116815260200190565b60405180910390a280547fff00000000000000000000000000000000000000000000000000000000000000168155600101805478ffffffffffffffffffffffffffffffffffffffffffffffffff19169055806110b3816144d1565b915050610d1f565b805160208201516000916110ce91614480565b67ffffffffffffffff8111156110e6576110e6613d46565b60405190808252806020026020018201604052801561110f578160200160208202803683370190505b5082519091505b8260200151811015610a6957600060066000856040015186600001518151811061114257611142614497565b60200260200101518660600151858151811061116057611160614497565b6020026020010151876101000151868151811061117f5761117f614497565b60200260200101516040516020016111c493929190600160a060020a03939093166c010000000000000000000000000283526014830191909152603482015260540190565b60408051601f198184030181529181528151602092830120835282820193909352908201600020825160c0810184528154600160a060020a038116825260ff60a060020a8204811694830194909452600160e060020a031960e060020a60a860020a8304810282169684019690965260c860020a8204909502909416606082015260e860020a84048316608082015290935061127a929091849160a084019160f060020a909104168015610899576108996144b4565b604080516060810182526001830154600160a060020a038116825260a060020a810460ff16602083015260a860020a900463ffffffff16918101919091526112c1906123cb565b6040805160c0810182528254600160a060020a038116825260ff60a060020a820481166020840152600160e060020a031960e060020a60a860020a8404810282169585019590955260c860020a8304909402909316606083015260e860020a81048316608083015261136492849160a084019160f060020a90910416801561134b5761134b6144b4565b8015611359576113596144b4565b905250858433612b69565b805460009060f060020a900460ff168015611381576113816144b4565b905061138c81612d55565b600080546040517fc6ee427f00000000000000000000000000000000000000000000000000000000815260ff84166004820152600160a060020a039091169063c6ee427f90602401602060405180830381865afa1580156113f1573d6000803e3d6000fd5b505050506040513d601f19601f8201168201806040525081019061141591906144ec565b9050600081600160a060020a031663313ce5676040518163ffffffff1660e060020a028152600401602060405180830381865afa15801561145a573d6000803e3d6000fd5b505050506040513d601f19601f8201168201806040525081019061147e9190614509565b60ff169050600061149082600a61460d565b85549091506000906114af9060a860020a900460e060020a0283612dab565b89610120015188815181106114c6576114c6614497565b602002602001015160ff166114db9190614619565b86549091506000906114fa9060c860020a900460e060020a0284612dab565b8754611510919060e860020a900460ff16614619565b9050600082116115655760405160e560020a62461bcd02815260206004820152601960248201527f52654e46543a3a72656e74207072696365206973207a65726f000000000000006044820152606401610354565b600081116115b85760405160e560020a62461bcd02815260206004820152601860248201527f52654e46543a3a6e6674207072696365206973207a65726f00000000000000006044820152606401610354565b6115d933306115c78486614638565b600160a060020a038916929190612e46565b50508454885160e860020a90910460ff16915087906115f89088614480565b8151811061160857611608614497565b602090810291909101015260018401805473ffffffffffffffffffffffffffffffffffffffff19163317905561012087015180518690811061164c5761164c614497565b60209081029190910101516001850180547fffffffffffffff0000000000ffffffffffffffffffffffffffffffffffffffff1660a060020a60ff909316929092027fffffffffffffff00000000ffffffffffffffffffffffffffffffffffffffffff169190911760a860020a4263ffffffff1602179055610100870151805133917f3140d73adcc923e4a0de3b1522aeec546a872bcdc06a3e25fe1209df30b954ec91889081106116ff576116ff614497565b6020026020010151896101200151888151811061171e5761171e614497565b60209081029190910181015160018901546040805194855260ff9092169284019290925260a860020a90910463ffffffff169082015260600160405180910390a250505050808061176e906144d1565b915050611116565b61177e613cb4565b6040518061016001604052806000815260200160018152602001868152602001858152602001600067ffffffffffffffff8111156117be576117be613d46565b6040519080825280602002602001820160405280156117e7578160200160208202803683370190505b5081526020016000604051908082528060200260200182016040528015611818578160200160208202803683370190505b5081526020016000604051908082528060200260200182016040528015611849578160200160208202803683370190505b508152602001600060405190808252806020026020018201604052801561187a578160200160208202803683370190505b508152602081018590526040810184905260600160006040519080825280602002602001820160405280156118b9578160200160208202803683370190505b50905295945050505050565b80515b8160200151811015611e7f576118de8282612edf565b60006006600084604001518560000151815181106118fe576118fe614497565b60200260200101518560600151858151811061191c5761191c614497565b602002602001015160035460405160200161196493929190600160a060020a03939093166c010000000000000000000000000283526014830191909152603482015260540190565b60408051601f198184030181529181528151602092830120835282820193909352908201600020825160c0810184528154600160a060020a038116825260ff60a060020a8204811694830194909452600160e060020a031960e060020a60a860020a8304810282169684019690965260c860020a8204909502909416606082015260e860020a840483166080820152909350611a30929091849160a084019160f060020a909104168015611a1a57611a1a6144b4565b8015611a2857611a286144b4565b9052506131a5565b604080516060810182526001830154600160a060020a038116825260a060020a810460ff16602083015260a860020a900463ffffffff1691810191909152611a77906123cb565b6000611a9f84604001518481518110611a9257611a92614497565b60200260200101516132c6565b90506040518060c0016040528033600160a060020a031681526020018560a001518581518110611ad157611ad1614497565b602002602001015160ff1681526020018560c001518581518110611af757611af7614497565b60200260200101517bffffffffffffffffffffffffffffffffffffffffffffffffffffffff191681526020018560e001518581518110611b3957611b39614497565b60200260200101517bffffffffffffffffffffffffffffffffffffffffffffffffffffffff1916815260200182611b8d5785608001518581518110611b8057611b80614497565b6020026020010151611b90565b60015b60ff1681526020018561014001518581518110611baf57611baf614497565b60200260200101516000811115611bc857611bc86144b4565b9052805183546020830151604084015160608501516080860151600160a060020a0390951674ffffffffffffffffffffffffffffffffffffffffff199094169390931760a060020a60ff93841602177fffffff0000000000000000ffffffffffffffffffffffffffffffffffffffffff1660a860020a60e060020a92839004027fffffff00000000ffffffffffffffffffffffffffffffffffffffffffffffffff161760c860020a9190930402919091177fffff00ffffffffffffffffffffffffffffffffffffffffffffffffffffffffff811660e860020a9290931691909102918217855560a08301518592909183917fff0000ffffffffffffffffffffffffffffffffffffffffffffffffffffffffff9091167fff00ffffffffffffffffffffffffffffffffffffffffffffffffffffffffffff9091161760f060020a838015611d1657611d166144b4565b021790555090505033600160a060020a031684606001518481518110611d3e57611d3e614497565b60200260200101518560400151866000015181518110611d6057611d60614497565b6020026020010151600160a060020a03167fc1b2f77226541f6b308379a3110d77af45464d9a161a6eb4b6cfdcd0fb2089c684611dba5787608001518781518110611dad57611dad614497565b6020026020010151611dbd565b60015b6003548960a001518981518110611dd657611dd6614497565b60200260200101518a60c001518a81518110611df457611df4614497565b60200260200101518b60e001518b81518110611e1257611e12614497565b6020026020010151898d61014001518d81518110611e3257611e32614497565b6020026020010151604051611e4d9796959493929190614650565b60405180910390a460038054906000611e65836144d1565b919050555050508080611e77906144d1565b9150506118c8565b50611eb8813330611e9f85606001518660000151876020015160006124f1565b610a9c86608001518760000151886020015160006124f1565b50565b611ec3613cb4565b6040518061016001604052806000815260200160018152602001898152602001888152602001878152602001868152602001858152602001848152602001600067ffffffffffffffff811115611f1b57611f1b613d46565b604051908082528060200260200182016040528015611f44578160200160208202803683370190505b5081526020016000604051908082528060200260200182016040528015611f75578160200160208202803683370190505b50815260200192909252509695505050505050565b80516020820151600091611f9d91614480565b67ffffffffffffffff811115611fb557611fb5613d46565b604051908082528060200260200182016040528015611fde578160200160208202803683370190505b5082519091505b826020015181101561228d57600060066000856040015186600001518151811061201157612011614497565b60200260200101518660600151858151811061202f5761202f614497565b6020026020010151876101000151868151811061204e5761204e614497565b602002602001015160405160200161209393929190600160a060020a03939093166c010000000000000000000000000283526014830191909152603482015260540190565b60408051601f198184030181529181528151602092830120835282820193909352908201600020825160c0810184528154600160a060020a038116825260ff60a060020a8204811694830194909452600160e060020a031960e060020a60a860020a8304810282169684019690965260c860020a8204909502909416606082015260e860020a840483166080820152909350612149929091849160a084019160f060020a909104168015610899576108996144b4565b604080516060810182526001830154600160a060020a038116825260a060020a810460ff16602083015260a860020a900463ffffffff169181019190915261219290334261332e565b60018101546000906121b19060a860020a900463ffffffff1642614480565b90506121bd82826133f0565b8154855160e860020a90910460ff169085906121d99086614480565b815181106121e9576121e9614497565b602002602001018181525050846101000151838151811061220c5761220c614497565b60200260200101517f289da9cb3ecd362ad5ae230d4daa346e68abbd8972cd9c01df54b7b1b97ab15b4260405161224f919063ffffffff91909116815260200190565b60405180910390a250600101805478ffffffffffffffffffffffffffffffffffffffffffffffffff1916905580612285816144d1565b915050611fe5565b50610aa1823330610a8986606001518760000151886020015160006124f1565b80516122b890613700565b602081015160ff1661230f5760405160e560020a62461bcd02815260206004820152601460248201527f52654e46543a3a6475726174696f6e207a65726f0000000000000000000000006044820152606401610354565b6040810151600160e060020a03191661236d5760405160e560020a62461bcd02815260206004820152601960248201527f52654e46543a3a72656e74207072696365206973207a65726f000000000000006044820152606401610354565b6060810151600160e060020a031916611eb85760405160e560020a62461bcd02815260206004820152601860248201527f52654e46543a3a6e6674207072696365206973207a65726f00000000000000006044820152606401610354565b80516123d690613759565b602081015160ff161561242e5760405160e560020a62461bcd02815260206004820152601860248201527f52654e46543a3a6475726174696f6e206e6f74207a65726f00000000000000006044820152606401610354565b604081015163ffffffff1615611eb85760405160e560020a62461bcd02815260206004820152601960248201527f52654e46543a3a72656e746564206174206e6f74207a65726f000000000000006044820152606401610354565b80600160a060020a03168260000151600160a060020a031614610aa15760405160e560020a62461bcd02815260206004820152601160248201527f52654e46543a3a6e6f74206c656e6465720000000000000000000000000000006044820152606401610354565b60606124fd8484614480565b67ffffffffffffffff81111561251557612515613d46565b60405190808252806020026020018201604052801561253e578160200160208202803683370190505b509050835b838110156125a857856125568483614480565b8151811061256657612566614497565b602002602001015182868361257b9190614480565b8151811061258b5761258b614497565b6020908102919091010152806125a0816144d1565b915050612543565b50949350505050565b6125ce8560400151866000015181518110611a9257611a92614497565b156126925760408501518551815181106125ea576125ea614497565b6020026020010151600160a060020a03166323b872dd8585886060015189600001518151811061261c5761261c614497565b602090810291909101015160405160e060020a63ffffffff8616028152600160a060020a03938416600482015292909116602483015260448201526064015b600060405180830381600087803b15801561267557600080fd5b505af1158015612689573d6000803e3d6000fd5b50505050612752565b6126af8560400151866000015181518110610cc557610cc5614497565b156127075760408501518551815181106126cb576126cb614497565b6020026020010151600160a060020a0316632eb2c2d6858585856040518563ffffffff1660e060020a02815260040161265b94939291906146fb565b60405160e560020a62461bcd02815260206004820152601d60248201527f52654e46543a3a756e737570706f7274656420746f6b656e20747970650000006044820152606401610354565b5050505050565b6040517f01ffc9a70000000000000000000000000000000000000000000000000000000081527fd9b67a26000000000000000000000000000000000000000000000000000000006004820152600090600160a060020a038316906301ffc9a7906024015b602060405180830381865afa1580156127da573d6000803e3d6000fd5b505050506040513d601f19601f820116820180604052508101906102fc9190614756565b805161280990613700565b602081015160ff166128605760405160e560020a62461bcd02815260206004820152601760248201527f52654e46543a3a6475726174696f6e206973207a65726f0000000000000000006044820152606401610354565b604081015163ffffffff16611eb85760405160e560020a62461bcd02815260206004820152601860248201527f52654e46543a3a72656e746564206174206973207a65726f00000000000000006044820152606401610354565b6128c482826137b3565b610aa15760405160e560020a62461bcd02815260206004820152601d60248201527f52654e46543a3a72657475726e2064617465206e6f74207061737365640000006044820152606401610354565b805160a00151600090801561292a5761292a6144b4565b905061293581612d55565b600080546040517fc6ee427f00000000000000000000000000000000000000000000000000000000815260ff84166004820152600160a060020a039091169063c6ee427f90602401602060405180830381865afa15801561299a573d6000803e3d6000fd5b505050506040513d601f19601f820116820180604052508101906129be91906144ec565b9050600081600160a060020a031663313ce5676040518163ffffffff1660e060020a028152600401602060405180830381865afa158015612a03573d6000803e3d6000fd5b505050506040513d601f19601f82011682018060405250810190612a279190614509565b60ff1690506000612a3982600a61460d565b90506000612a4f86600001516060015183612dab565b865160800151612a62919060ff16614619565b90506000612a7887600001516040015184612dab565b9050600087602001516020015160ff1682612a939190614619565b90506000612ab28260ff8a168015612aad57612aad6144b4565b613844565b90506000612ac08584614638565b905060008311612b3b5760405160e560020a62461bcd02815260206004820152602360248201527f52654e46543a3a636f6c6c61746572616c20706c75732072656e74206973207a60448201527f65726f00000000000000000000000000000000000000000000000000000000006064820152608401610354565b895151612b5d90612b4c8484614480565b600160a060020a038b16919061392e565b50505050505050505050565b8351600160a060020a0382811691161415612bc95760405160e560020a62461bcd02815260206004820152601860248201527f52654e46543a3a63616e742072656e74206f776e206e667400000000000000006044820152606401610354565b60ff80168361012001518381518110612be457612be4614497565b602002602001015160ff161115612c405760405160e560020a62461bcd02815260206004820152601060248201527f52654e46543a3a6e6f742075696e7438000000000000000000000000000000006044820152606401610354565b60008361012001518381518110612c5957612c59614497565b602002602001015160ff1611612cb45760405160e560020a62461bcd02815260206004820152601760248201527f52654e46543a3a6475726174696f6e206973207a65726f0000000000000000006044820152606401610354565b836020015160ff168361012001518381518110612cd357612cd3614497565b602002602001015160ff1611156105435760405160e560020a62461bcd02815260206004820152602860248201527f52654e46543a3a72656e74206475726174696f6e206578636565647320616c6c60448201527f6f776564206d61780000000000000000000000000000000000000000000000006064820152608401610354565b60008160ff1611611eb85760405160e560020a62461bcd02815260206004820152601860248201527f52654e46543a3a746f6b656e2069732073656e74696e656c00000000000000006044820152606401610354565b6000612db78383613977565b60f060020a8084049062010000600160e060020a0319861602046000612ddf61271086614773565b905061270f8361ffff161115612df55761270f92505b61270f8261ffff161115612e095761270f91505b6000612e198661ffff8616614619565b90506000612e2b8361ffff8616614619565b90506000612e398284614638565b9998505050505050505050565b604051600160a060020a03808516602483015283166044820152606481018290526105439085907f23b872dd00000000000000000000000000000000000000000000000000000000906084015b60408051601f198184030181529190526020810180517bffffffffffffffffffffffffffffffffffffffffffffffffffffffff16600160e060020a031990931692909217909152613a28565b600082608001518281518110612ef757612ef7614497565b602002602001015111612f4f5760405160e560020a62461bcd02815260206004820152601a60248201527f52654e46543a3a6c656e6420616d6f756e74206973207a65726f0000000000006044820152606401610354565b60ff801682608001518281518110612f6957612f69614497565b60200260200101511115612fc25760405160e560020a62461bcd02815260206004820152601060248201527f52654e46543a3a6e6f742075696e7438000000000000000000000000000000006044820152606401610354565b60008260a001518281518110612fda57612fda614497565b602002602001015160ff16116130355760405160e560020a62461bcd02815260206004820152601760248201527f52654e46543a3a6475726174696f6e206973207a65726f0000000000000000006044820152606401610354565b60ff80168260a00151828151811061304f5761304f614497565b602002602001015160ff1611156130ab5760405160e560020a62461bcd02815260206004820152601060248201527f52654e46543a3a6e6f742075696e7438000000000000000000000000000000006044820152606401610354565b60008260c0015182815181106130c3576130c3614497565b602002602001015160e060020a900463ffffffff16116131285760405160e560020a62461bcd02815260206004820152601960248201527f52654e46543a3a72656e74207072696365206973207a65726f000000000000006044820152606401610354565b60008260e00151828151811061314057613140614497565b602002602001015160e060020a900463ffffffff1611610aa15760405160e560020a62461bcd02815260206004820152601860248201527f52654e46543a3a6e6674207072696365206973207a65726f00000000000000006044820152606401610354565b80516131b090613759565b602081015160ff16156132085760405160e560020a62461bcd02815260206004820152601860248201527f52654e46543a3a6475726174696f6e206e6f74207a65726f00000000000000006044820152606401610354565b6040810151600160e060020a031916156132675760405160e560020a62461bcd02815260206004820152601a60248201527f52654e46543a3a72656e74207072696365206e6f74207a65726f0000000000006044820152606401610354565b6060810151600160e060020a03191615611eb85760405160e560020a62461bcd02815260206004820152601960248201527f52654e46543a3a6e6674207072696365206e6f74207a65726f000000000000006044820152606401610354565b6040517f01ffc9a70000000000000000000000000000000000000000000000000000000081527f80ac58cd000000000000000000000000000000000000000000000000000000006004820152600090600160a060020a038316906301ffc9a7906024016127bd565b81600160a060020a03168360000151600160a060020a0316146133965760405160e560020a62461bcd02815260206004820152601160248201527f52654e46543a3a6e6f742072656e7465720000000000000000000000000000006044820152606401610354565b6133a083826137b3565b156103735760405160e560020a62461bcd02815260206004820152601760248201527f52654e46543a3a706173742072657475726e20646174650000000000000000006044820152606401610354565b815460009060f060020a900460ff16801561340d5761340d6144b4565b905061341881612d55565b600080546040517fc6ee427f00000000000000000000000000000000000000000000000000000000815260ff84166004820152600160a060020a039091169063c6ee427f90602401602060405180830381865afa15801561347d573d6000803e3d6000fd5b505050506040513d601f19601f820116820180604052508101906134a191906144ec565b9050600081600160a060020a031663313ce5676040518163ffffffff1660e060020a028152600401602060405180830381865afa1580156134e6573d6000803e3d6000fd5b505050506040513d601f19601f8201168201806040525081019061350a9190614509565b60ff169050600061351c82600a61460d565b865490915060009061353b9060c860020a900460e060020a0283612dab565b8754613551919060e860020a900460ff16614619565b87549091506000906135709060a860020a900460e060020a0284612dab565b600189015490915060009061358f9060a060020a900460ff1683614619565b90506000620151806135a1848b614619565b6135ab9190614773565b9050600082116136265760405160e560020a62461bcd02815260206004820152602a60248201527f52654e46543a3a746f74616c207061796d656e7420776f20636f6c6c6174657260448201527f616c206973207a65726f000000000000000000000000000000000000000000006064820152608401610354565b600081116136795760405160e560020a62461bcd02815260206004820152601d60248201527f52654e46543a3a6c656e646572207061796d656e74206973207a65726f0000006044820152606401610354565b60006136858284614480565b8b549091506000906136a290849060f060020a900460ff16613844565b90506136ae8184614480565b92506136ba8683614638565b8c549092506136d690600160a060020a038b811691168561392e565b60018c01546136f290600160a060020a038b811691168461392e565b505050505050505050505050565b600160a060020a038116611eb85760405160e560020a62461bcd02815260206004820152601360248201527f52654e46543a3a7a65726f2061646472657373000000000000000000000000006044820152606401610354565b600160a060020a03811615611eb85760405160e560020a62461bcd02815260206004820152601960248201527f52654e46543a3a6e6f742061207a65726f2061646472657373000000000000006044820152606401610354565b6000826040015163ffffffff1682116138115760405160e560020a62461bcd02815260206004820152601860248201527f52654e46543a3a6e6f77206265666f72652072656e74656400000000000000006044820152606401610354565b62015180836020015160ff166138279190614619565b604084015161383c9063ffffffff1684614480565b119392505050565b6000600554836138549190614619565b905061386261271082614773565b90506000828015613875576138756144b4565b905061388081612d55565b600080546040517fc6ee427f00000000000000000000000000000000000000000000000000000000815260ff84166004820152600160a060020a039091169063c6ee427f90602401602060405180830381865afa1580156138e5573d6000803e3d6000fd5b505050506040513d601f19601f8201168201806040525081019061390991906144ec565b60025490915061392690600160a060020a0380841691168561392e565b505092915050565b604051600160a060020a0383166024820152604481018290526103739084907fa9059cbb0000000000000000000000000000000000000000000000000000000090606401612e93565b63ffffffff60e060020a8304166139d35760405160e560020a62461bcd02815260206004820152601460248201527f52654e46543a3a696e76616c69642070726963650000000000000000000000006044820152606401610354565b612710811015610aa15760405160e560020a62461bcd02815260206004820152601460248201527f52654e46543a3a696e76616c6964207363616c650000000000000000000000006044820152606401610354565b6000613a7d826040518060400160405280602081526020017f5361666545524332303a206c6f772d6c6576656c2063616c6c206661696c656481525085600160a060020a0316613b109092919063ffffffff16565b8051909150156103735780806020019051810190613a9b9190614756565b6103735760405160e560020a62461bcd02815260206004820152602a60248201527f5361666545524332303a204552433230206f7065726174696f6e20646964206e60448201527f6f742073756363656564000000000000000000000000000000000000000000006064820152608401610354565b6060613b1f8484600085613b29565b90505b9392505050565b60603031831115613ba55760405160e560020a62461bcd02815260206004820152602660248201527f416464726573733a20696e73756666696369656e742062616c616e636520666f60448201527f722063616c6c00000000000000000000000000000000000000000000000000006064820152608401610354565b600160a060020a0385163b613bff5760405160e560020a62461bcd02815260206004820152601d60248201527f416464726573733a2063616c6c20746f206e6f6e2d636f6e74726163740000006044820152606401610354565b60008086600160a060020a03168587604051613c1b91906147c8565b60006040518083038185875af1925050503d8060008114613c58576040519150601f19603f3d011682016040523d82523d6000602084013e613c5d565b606091505b5091509150613c6d828286613c78565b979650505050505050565b60608315613c87575081613b22565b825115613c975782518084602001fd5b8160405160e560020a62461bcd02815260040161035491906147e4565b60405180610160016040528060008152602001600081526020016060815260200160608152602001606081526020016060815260200160608152602001606081526020016060815260200160608152602001606081525090565b8035600160e060020a031981168114613d2657600080fd5b919050565b600060208284031215613d3d57600080fd5b613b2282613d0e565b600080516020614818833981519152600052604160045260246000fd5b604051601f8201601f1916810167ffffffffffffffff81118282101715613d8c57613d8c613d46565b604052919050565b600067ffffffffffffffff821115613dae57613dae613d46565b5060209081020190565b600160a060020a0381168114611eb857600080fd5b600082601f830112613dde57600080fd5b81356020613df3613dee83613d94565b613d63565b82815291810284018101918181019086841115613e0f57600080fd5b8286015b84811015613e33578035613e2681613db8565b8352918301918301613e13565b509695505050505050565b600082601f830112613e4f57600080fd5b81356020613e5f613dee83613d94565b82815291810284018101918181019086841115613e7b57600080fd5b8286015b84811015613e335780358352918301918301613e7f565b600080600060608486031215613eab57600080fd5b833567ffffffffffffffff80821115613ec357600080fd5b613ecf87838801613dcd565b94506020860135915080821115613ee557600080fd5b613ef187838801613e3e565b93506040860135915080821115613f0757600080fd5b50613f1486828701613e3e565b9150509250925092565b600082601f830112613f2f57600080fd5b813567ffffffffffffffff811115613f4957613f49613d46565b613f5c601f8201601f1916602001613d63565b818152846020838601011115613f7157600080fd5b816020850160208301376000918101602001919091529392505050565b60008060008060808587031215613fa457600080fd5b8435613faf81613db8565b93506020850135613fbf81613db8565b925060408501359150606085013567ffffffffffffffff811115613fe257600080fd5b613fee87828801613f1e565b91505092959194509250565b8015158114611eb857600080fd5b60006020828403121561401a57600080fd5b8135613b2281613ffa565b60006020828403121561403757600080fd5b8135613b2281613db8565b60ff81168114611eb857600080fd5b600082601f83011261406257600080fd5b81356020614072613dee83613d94565b8281529181028401810191818101908684111561408e57600080fd5b8286015b84811015613e335780356140a581614042565b8352918301918301614092565b600080600080608085870312156140c857600080fd5b843567ffffffffffffffff808211156140e057600080fd5b6140ec88838901613dcd565b9550602087013591508082111561410257600080fd5b61410e88838901613e3e565b9450604087013591508082111561412457600080fd5b61413088838901613e3e565b9350606087013591508082111561414657600080fd5b50613fee87828801614051565b60006020828403121561416557600080fd5b5035919050565b600080600080600060a0868803121561418457600080fd5b853561418f81613db8565b9450602086013561419f81613db8565b9350604086013567ffffffffffffffff808211156141bc57600080fd5b6141c889838a01613e3e565b945060608801359150808211156141de57600080fd5b6141ea89838a01613e3e565b9350608088013591508082111561420057600080fd5b5061420d88828901613f1e565b9150509295509295909350565b600082601f83011261422b57600080fd5b8135602061423b613dee83613d94565b8281529181028401810191818101908684111561425757600080fd5b8286015b84811015613e335761426c81613d0e565b835291830191830161425b565b600082601f83011261428a57600080fd5b8135602061429a613dee83613d94565b828152918102840181019181810190868411156142b657600080fd5b8286015b84811015613e33578035600181106142d25760008081fd5b83529183019183016142ba565b600080600080600080600060e0888a0312156142fa57600080fd5b873567ffffffffffffffff8082111561431257600080fd5b61431e8b838c01613dcd565b985060208a013591508082111561433457600080fd5b6143408b838c01613e3e565b975060408a013591508082111561435657600080fd5b6143628b838c01613e3e565b965060608a013591508082111561437857600080fd5b6143848b838c01614051565b955060808a013591508082111561439a57600080fd5b6143a68b838c0161421a565b945060a08a01359150808211156143bc57600080fd5b6143c88b838c0161421a565b935060c08a01359150808211156143de57600080fd5b506143eb8a828b01614279565b91505092959891949750929550565b600080600080600060a0868803121561441257600080fd5b853561441d81613db8565b9450602086013561442d81613db8565b93506040860135925060608601359150608086013567ffffffffffffffff81111561445757600080fd5b61420d88828901613f1e565b600080516020614818833981519152600052601160045260246000fd5b60008282101561449257614492614463565b500390565b600080516020614818833981519152600052603260045260246000fd5b600080516020614818833981519152600052602160045260246000fd5b60006000198214156144e5576144e5614463565b5060010190565b6000602082840312156144fe57600080fd5b8151613b2281613db8565b60006020828403121561451b57600080fd5b8151613b2281614042565b600181815b8085111561456357816000190482111561454757614547614463565b8085161561455457918102915b6002909404939080029061452b565b509250929050565b60008261457a575060016102fc565b81614587575060006102fc565b816001811461459d57600281146145a7576145c4565b60019150506102fc565b60ff8411156145b8576145b8614463565b8360020a9150506102fc565b5060208310610133831016604e8410600b84101617156145e7575081810a6102fc565b6145f18383614526565b806000190482111561460557614605614463565b029392505050565b6000613b22838361456b565b600081600019048311821515161561463357614633614463565b500290565b6000821982111561464b5761464b614463565b500190565b60ff88811682526020820188905286166040820152600160e060020a031985811660608301528416608082015282151560a082015260e08101600183106146ae57600080516020614818833981519152600052602160045260246000fd5b8260c083015298975050505050505050565b600081518084526020808501945080840160005b838110156146f0578151875295820195908201906001016146d4565b509495945050505050565b6000600160a060020a03808716835280861660208401525060a0604083015261472760a08301856146c0565b828103606084015261473981856146c0565b838103608090940193909352505060008152602001949350505050565b60006020828403121561476857600080fd5b8151613b2281613ffa565b60008261479757600080516020614818833981519152600052601260045260246000fd5b500490565b60005b838110156147b757818101518382015260200161479f565b838111156105435750506000910152565b600082516147da81846020870161479c565b9190910192915050565b602081526000825180602084015261480381604085016020870161479c565b601f01601f1916919091016040019291505056fe4e487b7100000000000000000000000000000000000000000000000000000000a264697066735822122065df990e14b2641100c14227e90be14a25e6164358c14e7204997452a07c87fe64736f6c634300080b0033",
  "immutableReferences": {},
  "source": "// SPDX-License-Identifier: MIT\r\npragma solidity ^0.8.11;\r\n\r\nimport \"@openzeppelin/contracts/token/ERC20/IERC20.sol\";\r\nimport \"@openzeppelin/contracts/token/ERC20/ERC20.sol\";\r\nimport \"@openzeppelin/contracts/token/ERC721/IERC721.sol\";\r\nimport \"@openzeppelin/contracts/token/ERC1155/IERC1155.sol\";\r\nimport \"@openzeppelin/contracts/token/ERC721/utils/ERC721Holder.sol\";\r\nimport \"@openzeppelin/contracts/token/ERC1155/utils/ERC1155Receiver.sol\";\r\nimport \"@openzeppelin/contracts/token/ERC1155/utils/ERC1155Holder.sol\";\r\n\r\nimport \"./Interface/IResolver.sol\";\r\nimport \"./Interface/IReNFT.sol\";\r\n\r\ncontract ReNFT is IReNft, ERC721Holder, ERC1155Receiver, ERC1155Holder {\r\n    using SafeERC20 for ERC20;\r\n\r\n    IResolver private resolver;\r\n    address private admin;\r\n    address payable private beneficiary;\r\n    uint256 private lendingId = 1;\r\n    bool public paused = false;\r\n\r\n    // in bps. so 1000 => 1%\r\n    uint256 public rentFee = 0;\r\n\r\n    uint256 private constant SECONDS_IN_DAY = 86400;\r\n\r\n    // single storage slot: address - 160 bits, 168, 200, 232, 240, 248\r\n    struct Lending {\r\n        address payable lenderAddress;\r\n        uint8 maxRentDuration;\r\n        bytes4 dailyRentPrice;\r\n        bytes4 nftPrice;\r\n        uint8 lentAmount;\r\n        IResolver.PaymentToken paymentToken;\r\n    }\r\n\r\n    // single storage slot: 160 bits, 168, 200\r\n    struct Renting {\r\n        address payable renterAddress;\r\n        uint8 rentDuration;\r\n        uint32 rentedAt;\r\n    }\r\n\r\n    struct LendingRenting {\r\n        Lending lending;\r\n        Renting renting;\r\n    }\r\n\r\n    mapping(bytes32 => LendingRenting) private lendingRenting;\r\n\r\n    struct CallData {\r\n        uint256 left;\r\n        uint256 right;\r\n        address[] nfts;\r\n        uint256[] tokenIds;\r\n        uint256[] lentAmounts;\r\n        uint8[] maxRentDurations;\r\n        bytes4[] dailyRentPrices;\r\n        bytes4[] nftPrices;\r\n        uint256[] lendingIds;\r\n        uint8[] rentDurations;\r\n        IResolver.PaymentToken[] paymentTokens;\r\n    }\r\n\r\n    modifier onlyAdmin() {\r\n        require(msg.sender == admin, \"ReNFT::not admin\");\r\n        _;\r\n    }\r\n\r\n    modifier notPaused() {\r\n        require(!paused, \"ReNFT::paused\");\r\n        _;\r\n    }\r\n\r\n    constructor(\r\n        address _resolver,\r\n        address payable _beneficiary,\r\n        address _admin\r\n    ) {\r\n        ensureIsNotZeroAddr(_resolver);\r\n        ensureIsNotZeroAddr(_beneficiary);\r\n        ensureIsNotZeroAddr(_admin);\r\n        resolver = IResolver(_resolver);\r\n        beneficiary = _beneficiary;\r\n        admin = _admin;\r\n    }\r\n\r\n    function bundleCall(function(CallData memory) _handler, CallData memory _cd)\r\n        private\r\n    {\r\n        require(_cd.nfts.length > 0, \"ReNFT::no nfts\");\r\n        while (_cd.right != _cd.nfts.length) {\r\n            if (\r\n                (_cd.nfts[_cd.left] == _cd.nfts[_cd.right]) &&\r\n                (is1155(_cd.nfts[_cd.right]))\r\n            ) {\r\n                _cd.right++;\r\n            } else {\r\n                _handler(_cd);\r\n                _cd.left = _cd.right;\r\n                _cd.right++;\r\n            }\r\n        }\r\n        _handler(_cd);\r\n    }\r\n\r\n    // lend, rent, return, stop, claim\r\n\r\n    function lend(\r\n        address[] memory _nfts,\r\n        uint256[] memory _tokenIds,\r\n        uint256[] memory _lendAmounts,\r\n        uint8[] memory _maxRentDurations,\r\n        bytes4[] memory _dailyRentPrices,\r\n        bytes4[] memory _nftPrices,\r\n        IResolver.PaymentToken[] memory _paymentTokens\r\n    ) external override notPaused {\r\n        bundleCall(\r\n            handleLend,\r\n            createLendCallData(\r\n                _nfts,\r\n                _tokenIds,\r\n                _lendAmounts,\r\n                _maxRentDurations,\r\n                _dailyRentPrices,\r\n                _nftPrices,\r\n                _paymentTokens\r\n            )\r\n        );\r\n    }\r\n\r\n    function rent(\r\n        address[] memory _nfts,\r\n        uint256[] memory _tokenIds,\r\n        uint256[] memory _lendingIds,\r\n        uint8[] memory _rentDurations\r\n    ) external override notPaused {\r\n        bundleCall(\r\n            handleRent,\r\n            createRentCallData(_nfts, _tokenIds, _lendingIds, _rentDurations)\r\n        );\r\n    }\r\n\r\n    function returnIt(\r\n        address[] memory _nfts,\r\n        uint256[] memory _tokenIds,\r\n        uint256[] memory _lendingIds\r\n    ) external override notPaused {\r\n        bundleCall(\r\n            handleReturn,\r\n            createActionCallData(_nfts, _tokenIds, _lendingIds)\r\n        );\r\n    }\r\n\r\n    function stopLending(\r\n        address[] memory _nfts,\r\n        uint256[] memory _tokenIds,\r\n        uint256[] memory _lendingIds\r\n    ) external override notPaused {\r\n        bundleCall(\r\n            handleStopLending,\r\n            createActionCallData(_nfts, _tokenIds, _lendingIds)\r\n        );\r\n    }\r\n\r\n    function claimCollateral(\r\n        address[] memory _nfts,\r\n        uint256[] memory _tokenIds,\r\n        uint256[] memory _lendingIds\r\n    ) external override notPaused {\r\n        bundleCall(\r\n            handleClaimCollateral,\r\n            createActionCallData(_nfts, _tokenIds, _lendingIds)\r\n        );\r\n    }\r\n\r\n    //      .-.     .-.     .-.     .-.     .-.     .-.     .-.     .-.     .-.     .-.\r\n    // `._.'   `._.'   `._.'   `._.'   `._.'   `._.'   `._.'   `._.'   `._.'   `._.'   `._.'\r\n\r\n    function takeFee(uint256 _rent, IResolver.PaymentToken _paymentToken)\r\n        private\r\n        returns (uint256 fee)\r\n    {\r\n        fee = _rent * rentFee;\r\n        fee /= 10000;\r\n        uint8 paymentTokenIx = uint8(_paymentToken);\r\n        ensureTokenNotSentinel(paymentTokenIx);\r\n        ERC20 paymentToken = ERC20(resolver.getPaymentToken(paymentTokenIx));\r\n        paymentToken.safeTransfer(beneficiary, fee);\r\n    }\r\n\r\n    function distributePayments(\r\n        LendingRenting storage _lendingRenting,\r\n        uint256 _secondsSinceRentStart\r\n    ) private {\r\n        uint8 paymentTokenIx = uint8(_lendingRenting.lending.paymentToken);\r\n        ensureTokenNotSentinel(paymentTokenIx);\r\n        address paymentToken = resolver.getPaymentToken(paymentTokenIx);\r\n        uint256 decimals = ERC20(paymentToken).decimals();\r\n\r\n        uint256 scale = 10**decimals;\r\n        uint256 nftPrice = _lendingRenting.lending.lentAmount *\r\n            unpackPrice(_lendingRenting.lending.nftPrice, scale);\r\n        uint256 rentPrice = unpackPrice(\r\n            _lendingRenting.lending.dailyRentPrice,\r\n            scale\r\n        );\r\n        uint256 totalRenterPmtWoCollateral = rentPrice *\r\n            _lendingRenting.renting.rentDuration;\r\n        uint256 sendLenderAmt = (_secondsSinceRentStart * rentPrice) /\r\n            SECONDS_IN_DAY;\r\n        require(\r\n            totalRenterPmtWoCollateral > 0,\r\n            \"ReNFT::total payment wo collateral is zero\"\r\n        );\r\n        require(sendLenderAmt > 0, \"ReNFT::lender payment is zero\");\r\n        uint256 sendRenterAmt = totalRenterPmtWoCollateral - sendLenderAmt;\r\n\r\n        uint256 takenFee = takeFee(\r\n            sendLenderAmt,\r\n            _lendingRenting.lending.paymentToken\r\n        );\r\n\r\n        sendLenderAmt -= takenFee;\r\n        sendRenterAmt += nftPrice;\r\n\r\n        ERC20(paymentToken).safeTransfer(\r\n            _lendingRenting.lending.lenderAddress,\r\n            sendLenderAmt\r\n        );\r\n        ERC20(paymentToken).safeTransfer(\r\n            _lendingRenting.renting.renterAddress,\r\n            sendRenterAmt\r\n        );\r\n    }\r\n\r\n    function distributeClaimPayment(LendingRenting memory _lendingRenting)\r\n        private\r\n    {\r\n        uint8 paymentTokenIx = uint8(_lendingRenting.lending.paymentToken);\r\n        ensureTokenNotSentinel(paymentTokenIx);\r\n        ERC20 paymentToken = ERC20(resolver.getPaymentToken(paymentTokenIx));\r\n\r\n        uint256 decimals = ERC20(paymentToken).decimals();\r\n        uint256 scale = 10**decimals;\r\n        uint256 nftPrice = _lendingRenting.lending.lentAmount *\r\n            unpackPrice(_lendingRenting.lending.nftPrice, scale);\r\n        uint256 rentPrice = unpackPrice(\r\n            _lendingRenting.lending.dailyRentPrice,\r\n            scale\r\n        );\r\n        uint256 maxRentPayment = rentPrice *\r\n            _lendingRenting.renting.rentDuration;\r\n        uint256 takenFee = takeFee(\r\n            maxRentPayment,\r\n            IResolver.PaymentToken(paymentTokenIx)\r\n        );\r\n        uint256 finalAmt = maxRentPayment + nftPrice;\r\n\r\n        require(maxRentPayment > 0, \"ReNFT::collateral plus rent is zero\");\r\n\r\n        paymentToken.safeTransfer(\r\n            _lendingRenting.lending.lenderAddress,\r\n            finalAmt - takenFee\r\n        );\r\n    }\r\n\r\n    function safeTransfer(\r\n        CallData memory _cd,\r\n        address _from,\r\n        address _to,\r\n        uint256[] memory _tokenIds,\r\n        uint256[] memory _lentAmounts\r\n    ) private {\r\n        if (is721(_cd.nfts[_cd.left])) {\r\n            IERC721(_cd.nfts[_cd.left]).transferFrom(\r\n                _from,\r\n                _to,\r\n                _cd.tokenIds[_cd.left]\r\n            );\r\n        } else if (is1155(_cd.nfts[_cd.left])) {\r\n            IERC1155(_cd.nfts[_cd.left]).safeBatchTransferFrom(\r\n                _from,\r\n                _to,\r\n                _tokenIds,\r\n                _lentAmounts,\r\n                \"\"\r\n            );\r\n        } else {\r\n            revert(\"ReNFT::unsupported token type\");\r\n        }\r\n    }\r\n\r\n    //      .-.     .-.     .-.     .-.     .-.     .-.     .-.     .-.     .-.     .-.\r\n    // `._.'   `._.'   `._.'   `._.'   `._.'   `._.'   `._.'   `._.'   `._.'   `._.'   `._.'\r\n\r\n    function handleLend(CallData memory _cd) private {\r\n        for (uint256 i = _cd.left; i < _cd.right; i++) {\r\n            ensureIsLendable(_cd, i);\r\n\r\n            LendingRenting storage item = lendingRenting[\r\n                keccak256(\r\n                    abi.encodePacked(\r\n                        _cd.nfts[_cd.left],\r\n                        _cd.tokenIds[i],\r\n                        lendingId\r\n                    )\r\n                )\r\n            ];\r\n\r\n            ensureIsNull(item.lending);\r\n            ensureIsNull(item.renting);\r\n\r\n            bool nftIs721 = is721(_cd.nfts[i]);\r\n            item.lending = Lending({\r\n                lenderAddress: payable(msg.sender),\r\n                lentAmount: nftIs721 ? 1 : uint8(_cd.lentAmounts[i]),\r\n                maxRentDuration: _cd.maxRentDurations[i],\r\n                dailyRentPrice: _cd.dailyRentPrices[i],\r\n                nftPrice: _cd.nftPrices[i],\r\n                paymentToken: _cd.paymentTokens[i]\r\n            });\r\n\r\n            emit Lent(\r\n                _cd.nfts[_cd.left],\r\n                _cd.tokenIds[i],\r\n                nftIs721 ? 1 : uint8(_cd.lentAmounts[i]),\r\n                lendingId,\r\n                msg.sender,\r\n                _cd.maxRentDurations[i],\r\n                _cd.dailyRentPrices[i],\r\n                _cd.nftPrices[i],\r\n                nftIs721,\r\n                _cd.paymentTokens[i]\r\n            );\r\n\r\n            lendingId++;\r\n        }\r\n\r\n        safeTransfer(\r\n            _cd,\r\n            msg.sender,\r\n            address(this),\r\n            sliceArr(_cd.tokenIds, _cd.left, _cd.right, 0),\r\n            sliceArr(_cd.lentAmounts, _cd.left, _cd.right, 0)\r\n        );\r\n    }\r\n\r\n    function handleRent(CallData memory _cd) private {\r\n        uint256[] memory lentAmounts = new uint256[](_cd.right - _cd.left);\r\n\r\n        for (uint256 i = _cd.left; i < _cd.right; i++) {\r\n            LendingRenting storage item = lendingRenting[\r\n                keccak256(\r\n                    abi.encodePacked(\r\n                        _cd.nfts[_cd.left],\r\n                        _cd.tokenIds[i],\r\n                        _cd.lendingIds[i]\r\n                    )\r\n                )\r\n            ];\r\n\r\n            ensureIsNotNull(item.lending);\r\n            ensureIsNull(item.renting);\r\n            ensureIsRentable(item.lending, _cd, i, msg.sender);\r\n\r\n            uint8 paymentTokenIx = uint8(item.lending.paymentToken);\r\n            ensureTokenNotSentinel(paymentTokenIx);\r\n            address paymentToken = resolver.getPaymentToken(paymentTokenIx);\r\n            uint256 decimals = ERC20(paymentToken).decimals();\r\n\r\n            {\r\n                uint256 scale = 10**decimals;\r\n                uint256 rentPrice = _cd.rentDurations[i] *\r\n                    unpackPrice(item.lending.dailyRentPrice, scale);\r\n                uint256 nftPrice = item.lending.lentAmount *\r\n                    unpackPrice(item.lending.nftPrice, scale);\r\n\r\n                require(rentPrice > 0, \"ReNFT::rent price is zero\");\r\n                require(nftPrice > 0, \"ReNFT::nft price is zero\");\r\n\r\n                ERC20(paymentToken).safeTransferFrom(\r\n                    msg.sender,\r\n                    address(this),\r\n                    rentPrice + nftPrice\r\n                );\r\n            }\r\n\r\n            lentAmounts[i - _cd.left] = item.lending.lentAmount;\r\n\r\n            item.renting.renterAddress = payable(msg.sender);\r\n            item.renting.rentDuration = _cd.rentDurations[i];\r\n            item.renting.rentedAt = uint32(block.timestamp);\r\n\r\n            emit Rented(\r\n                _cd.lendingIds[i],\r\n                msg.sender,\r\n                _cd.rentDurations[i],\r\n                item.renting.rentedAt\r\n            );\r\n        }\r\n\r\n        safeTransfer(\r\n            _cd,\r\n            address(this),\r\n            msg.sender,\r\n            sliceArr(_cd.tokenIds, _cd.left, _cd.right, 0),\r\n            sliceArr(lentAmounts, _cd.left, _cd.right, _cd.left)\r\n        );\r\n    }\r\n\r\n    function handleReturn(CallData memory _cd) private {\r\n        uint256[] memory lentAmounts = new uint256[](_cd.right - _cd.left);\r\n\r\n        for (uint256 i = _cd.left; i < _cd.right; i++) {\r\n            LendingRenting storage item = lendingRenting[\r\n                keccak256(\r\n                    abi.encodePacked(\r\n                        _cd.nfts[_cd.left],\r\n                        _cd.tokenIds[i],\r\n                        _cd.lendingIds[i]\r\n                    )\r\n                )\r\n            ];\r\n\r\n            ensureIsNotNull(item.lending);\r\n            ensureIsReturnable(item.renting, msg.sender, block.timestamp);\r\n\r\n            uint256 secondsSinceRentStart = block.timestamp -\r\n                item.renting.rentedAt;\r\n            distributePayments(item, secondsSinceRentStart);\r\n\r\n            lentAmounts[i - _cd.left] = item.lending.lentAmount;\r\n\r\n            emit Returned(_cd.lendingIds[i], uint32(block.timestamp));\r\n\r\n            delete item.renting;\r\n        }\r\n\r\n        safeTransfer(\r\n            _cd,\r\n            msg.sender,\r\n            address(this),\r\n            sliceArr(_cd.tokenIds, _cd.left, _cd.right, 0),\r\n            sliceArr(lentAmounts, _cd.left, _cd.right, _cd.left)\r\n        );\r\n    }\r\n\r\n    function handleStopLending(CallData memory _cd) private {\r\n        uint256[] memory lentAmounts = new uint256[](_cd.right - _cd.left);\r\n\r\n        for (uint256 i = _cd.left; i < _cd.right; i++) {\r\n            LendingRenting storage item = lendingRenting[\r\n                keccak256(\r\n                    abi.encodePacked(\r\n                        _cd.nfts[_cd.left],\r\n                        _cd.tokenIds[i],\r\n                        _cd.lendingIds[i]\r\n                    )\r\n                )\r\n            ];\r\n\r\n            ensureIsNotNull(item.lending);\r\n            ensureIsNull(item.renting);\r\n            ensureIsStoppable(item.lending, msg.sender);\r\n\r\n            lentAmounts[i - _cd.left] = item.lending.lentAmount;\r\n\r\n            emit LendingStopped(_cd.lendingIds[i], uint32(block.timestamp));\r\n\r\n            delete item.lending;\r\n        }\r\n\r\n        safeTransfer(\r\n            _cd,\r\n            address(this),\r\n            msg.sender,\r\n            sliceArr(_cd.tokenIds, _cd.left, _cd.right, 0),\r\n            sliceArr(lentAmounts, _cd.left, _cd.right, _cd.left)\r\n        );\r\n    }\r\n\r\n    function handleClaimCollateral(CallData memory _cd) private {\r\n        for (uint256 i = _cd.left; i < _cd.right; i++) {\r\n            LendingRenting storage item = lendingRenting[\r\n                keccak256(\r\n                    abi.encodePacked(\r\n                        _cd.nfts[_cd.left],\r\n                        _cd.tokenIds[i],\r\n                        _cd.lendingIds[i]\r\n                    )\r\n                )\r\n            ];\r\n\r\n            ensureIsNotNull(item.lending);\r\n            ensureIsNotNull(item.renting);\r\n            ensureIsClaimable(item.renting, block.timestamp);\r\n\r\n            distributeClaimPayment(item);\r\n\r\n            emit CollateralClaimed(_cd.lendingIds[i], uint32(block.timestamp));\r\n\r\n            delete item.lending;\r\n            delete item.renting;\r\n        }\r\n    }\r\n\r\n    //      .-.     .-.     .-.     .-.     .-.     .-.     .-.     .-.     .-.     .-.\r\n    // `._.'   `._.'   `._.'   `._.'   `._.'   `._.'   `._.'   `._.'   `._.'   `._.'   `._.'\r\n\r\n    function is721(address _nft) private view returns (bool) {\r\n        return IERC165(_nft).supportsInterface(type(IERC721).interfaceId);\r\n    }\r\n\r\n    function is1155(address _nft) private view returns (bool) {\r\n        return IERC165(_nft).supportsInterface(type(IERC1155).interfaceId);\r\n    }\r\n\r\n    //      .-.     .-.     .-.     .-.     .-.     .-.     .-.     .-.     .-.     .-.\r\n    // `._.'   `._.'   `._.'   `._.'   `._.'   `._.'   `._.'   `._.'   `._.'   `._.'   `._.'\r\n\r\n    function createLendCallData(\r\n        address[] memory _nfts,\r\n        uint256[] memory _tokenIds,\r\n        uint256[] memory _lendAmounts,\r\n        uint8[] memory _maxRentDurations,\r\n        bytes4[] memory _dailyRentPrices,\r\n        bytes4[] memory _nftPrices,\r\n        IResolver.PaymentToken[] memory _paymentTokens\r\n    ) private pure returns (CallData memory cd) {\r\n        cd = CallData({\r\n            left: 0,\r\n            right: 1,\r\n            nfts: _nfts,\r\n            tokenIds: _tokenIds,\r\n            lentAmounts: _lendAmounts,\r\n            lendingIds: new uint256[](0),\r\n            rentDurations: new uint8[](0),\r\n            maxRentDurations: _maxRentDurations,\r\n            dailyRentPrices: _dailyRentPrices,\r\n            nftPrices: _nftPrices,\r\n            paymentTokens: _paymentTokens\r\n        });\r\n    }\r\n\r\n    function createRentCallData(\r\n        address[] memory _nfts,\r\n        uint256[] memory _tokenIds,\r\n        uint256[] memory _lendingIds,\r\n        uint8[] memory _rentDurations\r\n    ) private pure returns (CallData memory cd) {\r\n        cd = CallData({\r\n            left: 0,\r\n            right: 1,\r\n            nfts: _nfts,\r\n            tokenIds: _tokenIds,\r\n            lentAmounts: new uint256[](0),\r\n            lendingIds: _lendingIds,\r\n            rentDurations: _rentDurations,\r\n            maxRentDurations: new uint8[](0),\r\n            dailyRentPrices: new bytes4[](0),\r\n            nftPrices: new bytes4[](0),\r\n            paymentTokens: new IResolver.PaymentToken[](0)\r\n        });\r\n    }\r\n\r\n    function createActionCallData(\r\n        address[] memory _nfts,\r\n        uint256[] memory _tokenIds,\r\n        uint256[] memory _lendingIds\r\n    ) private pure returns (CallData memory cd) {\r\n        cd = CallData({\r\n            left: 0,\r\n            right: 1,\r\n            nfts: _nfts,\r\n            tokenIds: _tokenIds,\r\n            lentAmounts: new uint256[](0),\r\n            lendingIds: _lendingIds,\r\n            rentDurations: new uint8[](0),\r\n            maxRentDurations: new uint8[](0),\r\n            dailyRentPrices: new bytes4[](0),\r\n            nftPrices: new bytes4[](0),\r\n            paymentTokens: new IResolver.PaymentToken[](0)\r\n        });\r\n    }\r\n\r\n    function unpackPrice(bytes4 _price, uint256 _scale)\r\n        private\r\n        pure\r\n        returns (uint256)\r\n    {\r\n        ensureIsUnpackablePrice(_price, _scale);\r\n\r\n        uint16 whole = uint16(bytes2(_price));\r\n        uint16 decimal = uint16(bytes2(_price << 16));\r\n        uint256 decimalScale = _scale / 10000;\r\n\r\n        if (whole > 9999) {\r\n            whole = 9999;\r\n        }\r\n        if (decimal > 9999) {\r\n            decimal = 9999;\r\n        }\r\n\r\n        uint256 w = whole * _scale;\r\n        uint256 d = decimal * decimalScale;\r\n        uint256 price = w + d;\r\n\r\n        return price;\r\n    }\r\n\r\n    function sliceArr(\r\n        uint256[] memory _arr,\r\n        uint256 _fromIx,\r\n        uint256 _toIx,\r\n        uint256 _arrOffset\r\n    ) private pure returns (uint256[] memory r) {\r\n        r = new uint256[](_toIx - _fromIx);\r\n        for (uint256 i = _fromIx; i < _toIx; i++) {\r\n            r[i - _fromIx] = _arr[i - _arrOffset];\r\n        }\r\n    }\r\n\r\n    //      .-.     .-.     .-.     .-.     .-.     .-.     .-.     .-.     .-.     .-.\r\n    // `._.'   `._.'   `._.'   `._.'   `._.'   `._.'   `._.'   `._.'   `._.'   `._.'   `._.'\r\n\r\n    function ensureIsNotZeroAddr(address _addr) private pure {\r\n        require(_addr != address(0), \"ReNFT::zero address\");\r\n    }\r\n\r\n    function ensureIsZeroAddr(address _addr) private pure {\r\n        require(_addr == address(0), \"ReNFT::not a zero address\");\r\n    }\r\n\r\n    function ensureIsNull(Lending memory _lending) private pure {\r\n        ensureIsZeroAddr(_lending.lenderAddress);\r\n        require(_lending.maxRentDuration == 0, \"ReNFT::duration not zero\");\r\n        require(_lending.dailyRentPrice == 0, \"ReNFT::rent price not zero\");\r\n        require(_lending.nftPrice == 0, \"ReNFT::nft price not zero\");\r\n    }\r\n\r\n    function ensureIsNotNull(Lending memory _lending) private pure {\r\n        ensureIsNotZeroAddr(_lending.lenderAddress);\r\n        require(_lending.maxRentDuration != 0, \"ReNFT::duration zero\");\r\n        require(_lending.dailyRentPrice != 0, \"ReNFT::rent price is zero\");\r\n        require(_lending.nftPrice != 0, \"ReNFT::nft price is zero\");\r\n    }\r\n\r\n    function ensureIsNull(Renting memory _renting) private pure {\r\n        ensureIsZeroAddr(_renting.renterAddress);\r\n        require(_renting.rentDuration == 0, \"ReNFT::duration not zero\");\r\n        require(_renting.rentedAt == 0, \"ReNFT::rented at not zero\");\r\n    }\r\n\r\n    function ensureIsNotNull(Renting memory _renting) private pure {\r\n        ensureIsNotZeroAddr(_renting.renterAddress);\r\n        require(_renting.rentDuration != 0, \"ReNFT::duration is zero\");\r\n        require(_renting.rentedAt != 0, \"ReNFT::rented at is zero\");\r\n    }\r\n\r\n    function ensureIsLendable(CallData memory _cd, uint256 _i) private pure {\r\n        require(_cd.lentAmounts[_i] > 0, \"ReNFT::lend amount is zero\");\r\n        require(_cd.lentAmounts[_i] <= type(uint8).max, \"ReNFT::not uint8\");\r\n        require(_cd.maxRentDurations[_i] > 0, \"ReNFT::duration is zero\");\r\n        require(\r\n            _cd.maxRentDurations[_i] <= type(uint8).max,\r\n            \"ReNFT::not uint8\"\r\n        );\r\n        require(\r\n            uint32(_cd.dailyRentPrices[_i]) > 0,\r\n            \"ReNFT::rent price is zero\"\r\n        );\r\n        require(uint32(_cd.nftPrices[_i]) > 0, \"ReNFT::nft price is zero\");\r\n    }\r\n\r\n    function ensureIsRentable(\r\n        Lending memory _lending,\r\n        CallData memory _cd,\r\n        uint256 _i,\r\n        address _msgSender\r\n    ) private pure {\r\n        require(\r\n            _msgSender != _lending.lenderAddress,\r\n            \"ReNFT::cant rent own nft\"\r\n        );\r\n        require(_cd.rentDurations[_i] <= type(uint8).max, \"ReNFT::not uint8\");\r\n        require(_cd.rentDurations[_i] > 0, \"ReNFT::duration is zero\");\r\n        require(\r\n            _cd.rentDurations[_i] <= _lending.maxRentDuration,\r\n            \"ReNFT::rent duration exceeds allowed max\"\r\n        );\r\n    }\r\n\r\n    function ensureIsReturnable(\r\n        Renting memory _renting,\r\n        address _msgSender,\r\n        uint256 _blockTimestamp\r\n    ) private pure {\r\n        require(_renting.renterAddress == _msgSender, \"ReNFT::not renter\");\r\n        require(\r\n            !isPastReturnDate(_renting, _blockTimestamp),\r\n            \"ReNFT::past return date\"\r\n        );\r\n    }\r\n\r\n    function ensureIsStoppable(Lending memory _lending, address _msgSender)\r\n        private\r\n        pure\r\n    {\r\n        require(_lending.lenderAddress == _msgSender, \"ReNFT::not lender\");\r\n    }\r\n\r\n    function ensureIsClaimable(Renting memory _renting, uint256 _blockTimestamp)\r\n        private\r\n        pure\r\n    {\r\n        require(\r\n            isPastReturnDate(_renting, _blockTimestamp),\r\n            \"ReNFT::return date not passed\"\r\n        );\r\n    }\r\n\r\n    function ensureIsUnpackablePrice(bytes4 _price, uint256 _scale)\r\n        private\r\n        pure\r\n    {\r\n        require(uint32(_price) > 0, \"ReNFT::invalid price\");\r\n        require(_scale >= 10000, \"ReNFT::invalid scale\");\r\n    }\r\n\r\n    function ensureTokenNotSentinel(uint8 _paymentIx) private pure {\r\n        require(_paymentIx > 0, \"ReNFT::token is sentinel\");\r\n    }\r\n\r\n    function isPastReturnDate(Renting memory _renting, uint256 _now)\r\n        private\r\n        pure\r\n        returns (bool)\r\n    {\r\n        require(_now > _renting.rentedAt, \"ReNFT::now before rented\");\r\n        return\r\n            _now - _renting.rentedAt > _renting.rentDuration * SECONDS_IN_DAY;\r\n    }\r\n\r\n    //      .-.     .-.     .-.     .-.     .-.     .-.     .-.     .-.     .-.     .-.\r\n    // `._.'   `._.'   `._.'   `._.'   `._.'   `._.'   `._.'   `._.'   `._.'   `._.'   `._.'\r\n\r\n    function setRentFee(uint256 _rentFee) external onlyAdmin {\r\n        require(_rentFee < 10000, \"ReNFT::fee exceeds 100pct\");\r\n        rentFee = _rentFee;\r\n    }\r\n\r\n    function setBeneficiary(address payable _newBeneficiary)\r\n        external\r\n        onlyAdmin\r\n    {\r\n        beneficiary = _newBeneficiary;\r\n    }\r\n\r\n    function setPaused(bool _paused) external onlyAdmin {\r\n        paused = _paused;\r\n    }\r\n}\r\n",
  "sourcePath": "C:\\Github\\rent-NFT\\contracts\\ReNFT.sol",
  "compiler": {
    "name": "solc",
    "version": "0.8.11+commit.d7f03943.Emscripten.clang"
  },
  "schemaVersion": "3.4.11",
  "updatedAt": "2022-12-08T13:34:12.989Z",
  "networkType": "ethereum",
  "devdoc": {
    "kind": "dev",
    "methods": {
      "claimCollateral(address[],uint256[],uint256[])": {
        "details": "claim collateral on rentals that are past their due date"
      },
      "onERC721Received(address,address,uint256,bytes)": {
        "details": "See {IERC721Receiver-onERC721Received}. Always returns `IERC721Receiver.onERC721Received.selector`."
      },
      "supportsInterface(bytes4)": {
        "details": "See {IERC165-supportsInterface}."
      }
    },
    "version": 1
  },
  "userdoc": {
    "kind": "user",
    "methods": {},
    "version": 1
  }
}