{
  "contractName": "Resolver",
  "abi": [
    {
      "inputs": [
        {
          "internalType": "address",
          "name": "_admin",
          "type": "address"
        }
      ],
      "stateMutability": "nonpayable",
      "type": "constructor"
    },
    {
      "inputs": [
        {
          "internalType": "uint8",
          "name": "_pt",
          "type": "uint8"
        }
      ],
      "name": "getPaymentToken",
      "outputs": [
        {
          "internalType": "address",
          "name": "",
          "type": "address"
        }
      ],
      "stateMutability": "view",
      "type": "function",
      "constant": true
    },
    {
      "inputs": [
        {
          "internalType": "uint8",
          "name": "_pt",
          "type": "uint8"
        },
        {
          "internalType": "address",
          "name": "_v",
          "type": "address"
        }
      ],
      "name": "setPaymentToken",
      "outputs": [],
      "stateMutability": "nonpayable",
      "type": "function"
    }
  ],
  "bytecode": "0x608060405234801561001057600080fd5b50604051610678380380610678833981810160405281019061003291906100db565b806000806101000a81548173ffffffffffffffffffffffffffffffffffffffff021916908373ffffffffffffffffffffffffffffffffffffffff16021790555050610108565b600080fd5b600073ffffffffffffffffffffffffffffffffffffffff82169050919050565b60006100a88261007d565b9050919050565b6100b88161009d565b81146100c357600080fd5b50565b6000815190506100d5816100af565b92915050565b6000602082840312156100f1576100f0610078565b5b60006100ff848285016100c6565b91505092915050565b610561806101176000396000f3fe608060405234801561001057600080fd5b50600436106100365760003560e01c8063321c6aea1461003b578063c6ee427f14610057575b600080fd5b6100556004803603810190610050919061033f565b610087565b005b610071600480360381019061006c919061037f565b610260565b60405161007e91906103bb565b60405180910390f35b60008260ff1614156100ce576040517f08c379a00000000000000000000000000000000000000000000000000000000081526004016100c590610433565b60405180910390fd5b600073ffffffffffffffffffffffffffffffffffffffff16600160008460ff1660ff16815260200190815260200160002060009054906101000a900473ffffffffffffffffffffffffffffffffffffffff1673ffffffffffffffffffffffffffffffffffffffff1614610176576040517f08c379a000000000000000000000000000000000000000000000000000000000815260040161016d9061049f565b60405180910390fd5b60008054906101000a900473ffffffffffffffffffffffffffffffffffffffff1673ffffffffffffffffffffffffffffffffffffffff163373ffffffffffffffffffffffffffffffffffffffff1614610204576040517f08c379a00000000000000000000000000000000000000000000000000000000081526004016101fb9061050b565b60405180910390fd5b80600160008460ff1660ff16815260200190815260200160002060006101000a81548173ffffffffffffffffffffffffffffffffffffffff021916908373ffffffffffffffffffffffffffffffffffffffff1602179055505050565b6000600160008360ff1660ff16815260200190815260200160002060009054906101000a900473ffffffffffffffffffffffffffffffffffffffff169050919050565b600080fd5b600060ff82169050919050565b6102be816102a8565b81146102c957600080fd5b50565b6000813590506102db816102b5565b92915050565b600073ffffffffffffffffffffffffffffffffffffffff82169050919050565b600061030c826102e1565b9050919050565b61031c81610301565b811461032757600080fd5b50565b60008135905061033981610313565b92915050565b60008060408385031215610356576103556102a3565b5b6000610364858286016102cc565b92505060206103758582860161032a565b9150509250929050565b600060208284031215610395576103946102a3565b5b60006103a3848285016102cc565b91505092915050565b6103b581610301565b82525050565b60006020820190506103d060008301846103ac565b92915050565b600082825260208201905092915050565b7f52654e46543a3a63616e74207365742073656e74696e656c0000000000000000600082015250565b600061041d6018836103d6565b9150610428826103e7565b602082019050919050565b6000602082019050818103600083015261044c81610410565b9050919050565b7f52654e46543a3a63616e6e6f7420726573657420746865206164647265737300600082015250565b6000610489601f836103d6565b915061049482610453565b602082019050919050565b600060208201905081810360008301526104b88161047c565b9050919050565b7f52654e46543a3a6f6e6c792061646d696e000000000000000000000000000000600082015250565b60006104f56011836103d6565b9150610500826104bf565b602082019050919050565b60006020820190508181036000830152610524816104e8565b905091905056fea26469706673582212205ef8e15fdb4ff25c9e84937452fb2f60745f567847e98f397a72ba36814e11cd64736f6c634300080b0033",
  "immutableReferences": {},
  "source": "/**\r\n * This contract uses for management multiple allowed tokens\r\n */\r\n\r\n// SPDX-License-Identifier: MIT\r\npragma solidity ^0.8.11;\r\n\r\nimport \"./Interface/IResolver.sol\";\r\n\r\ncontract Resolver is IResolver {\r\n    address private admin;\r\n    mapping(uint8 => address) private addresses;\r\n\r\n    constructor(address _admin) {\r\n        admin = _admin;\r\n    }\r\n\r\n    function getPaymentToken(uint8 _pt)\r\n        external\r\n        view\r\n        override\r\n        returns (address)\r\n    {\r\n        return addresses[_pt];\r\n    }\r\n\r\n    function setPaymentToken(uint8 _pt, address _v) external override {\r\n        require(_pt != 0, \"ReNFT::cant set sentinel\");\r\n        require(\r\n            addresses[_pt] == address(0),\r\n            \"ReNFT::cannot reset the address\"\r\n        );\r\n        require(msg.sender == admin, \"ReNFT::only admin\");\r\n        addresses[_pt] = _v;\r\n    }\r\n}\r\n",
  "sourcePath": "C:\\Github\\rent-NFT\\contracts\\Resolver.sol",
  "compiler": {
    "name": "solc",
    "version": "0.8.11+commit.d7f03943.Emscripten.clang"
  },
  "schemaVersion": "3.4.11",
  "updatedAt": "2022-12-08T12:05:36.905Z",
  "networkType": "ethereum",
  "devdoc": {
    "kind": "dev",
    "methods": {},
    "version": 1
  },
  "userdoc": {
    "kind": "user",
    "methods": {},
    "version": 1
  }
}