{
  "contractName": "Resolver",
  "abi": [
    {
      "inputs": [
        {
          "internalType": "address",
          "name": "_admin",
          "type": "address"
        }
      ],
      "stateMutability": "nonpayable",
      "type": "constructor"
    },
    {
      "inputs": [
        {
          "internalType": "uint8",
          "name": "_pt",
          "type": "uint8"
        }
      ],
      "name": "getPaymentToken",
      "outputs": [
        {
          "internalType": "address",
          "name": "",
          "type": "address"
        }
      ],
      "stateMutability": "view",
      "type": "function",
      "constant": true
    },
    {
      "inputs": [
        {
          "internalType": "uint8",
          "name": "_pt",
          "type": "uint8"
        },
        {
          "internalType": "address",
          "name": "_v",
          "type": "address"
        }
      ],
      "name": "setPaymentToken",
      "outputs": [],
      "stateMutability": "nonpayable",
      "type": "function"
    }
  ],
  "bytecode": "0x608060405234801561001057600080fd5b506040516103ec3803806103ec83398101604081905261002f91610054565b60008054600160a060020a031916600160a060020a0392909216919091179055610084565b60006020828403121561006657600080fd5b8151600160a060020a038116811461007d57600080fd5b9392505050565b610359806100936000396000f3fe608060405234801561001057600080fd5b5060043610610052577c01000000000000000000000000000000000000000000000000000000006000350463321c6aea8114610057578063c6ee427f1461006c575b600080fd5b61006a6100653660046102b1565b6100ce565b005b6100a561007a366004610301565b60ff1660009081526001602052604090205473ffffffffffffffffffffffffffffffffffffffff1690565b60405173ffffffffffffffffffffffffffffffffffffffff909116815260200160405180910390f35b60ff821661013d576040517f08c379a000000000000000000000000000000000000000000000000000000000815260206004820152601860248201527f52654e46543a3a63616e74207365742073656e74696e656c000000000000000060448201526064015b60405180910390fd5b60ff821660009081526001602052604090205473ffffffffffffffffffffffffffffffffffffffff16156101cd576040517f08c379a000000000000000000000000000000000000000000000000000000000815260206004820152601f60248201527f52654e46543a3a63616e6e6f74207265736574207468652061646472657373006044820152606401610134565b60005473ffffffffffffffffffffffffffffffffffffffff16331461024e576040517f08c379a000000000000000000000000000000000000000000000000000000000815260206004820152601160248201527f52654e46543a3a6f6e6c792061646d696e0000000000000000000000000000006044820152606401610134565b60ff919091166000908152600160205260409020805473ffffffffffffffffffffffffffffffffffffffff191673ffffffffffffffffffffffffffffffffffffffff909216919091179055565b803560ff811681146102ac57600080fd5b919050565b600080604083850312156102c457600080fd5b6102cd8361029b565b9150602083013573ffffffffffffffffffffffffffffffffffffffff811681146102f657600080fd5b809150509250929050565b60006020828403121561031357600080fd5b61031c8261029b565b939250505056fea2646970667358221220c02445bf55131f184abb2a3924dc1e08918d594e97b2512c2c09764747917bdb64736f6c634300080b0033",
  "immutableReferences": {},
  "source": "/**\r\n * This contract uses for management multiple allowed tokens\r\n */\r\n\r\n// SPDX-License-Identifier: MIT\r\npragma solidity ^0.8.11;\r\n\r\nimport \"./Interface/IResolver.sol\";\r\n\r\ncontract Resolver is IResolver {\r\n    address private admin;\r\n    mapping(uint8 => address) private addresses;\r\n\r\n    constructor(address _admin) {\r\n        admin = _admin;\r\n    }\r\n\r\n    function getPaymentToken(uint8 _pt)\r\n        external\r\n        view\r\n        override\r\n        returns (address)\r\n    {\r\n        return addresses[_pt];\r\n    }\r\n\r\n    function setPaymentToken(uint8 _pt, address _v) external override {\r\n        require(_pt != 0, \"ReNFT::cant set sentinel\");\r\n        require(\r\n            addresses[_pt] == address(0),\r\n            \"ReNFT::cannot reset the address\"\r\n        );\r\n        require(msg.sender == admin, \"ReNFT::only admin\");\r\n        addresses[_pt] = _v;\r\n    }\r\n}\r\n",
  "sourcePath": "C:\\Github\\rent-NFT\\contracts\\Resolver.sol",
  "compiler": {
    "name": "solc",
    "version": "0.8.11+commit.d7f03943.Emscripten.clang"
  },
  "schemaVersion": "3.4.11",
  "updatedAt": "2022-12-17T04:10:20.401Z",
  "networkType": "ethereum",
  "devdoc": {
    "kind": "dev",
    "methods": {},
    "version": 1
  },
  "userdoc": {
    "kind": "user",
    "methods": {},
    "version": 1
  }
}